{
  "contractName": "Distributor",
  "abi": [
    {
      "inputs": [
        {
          "internalType": "address",
          "name": "_userAddress",
          "type": "address"
        }
      ],
      "stateMutability": "nonpayable",
      "type": "constructor"
    },
    {
      "anonymous": false,
      "inputs": [
        {
          "indexed": true,
          "internalType": "address",
          "name": "orderRequestId",
          "type": "address"
        },
        {
          "indexed": false,
          "internalType": "uint256",
          "name": "orderStatus",
          "type": "uint256"
        },
        {
          "indexed": false,
          "internalType": "uint256",
          "name": "submissionTimestamp",
          "type": "uint256"
        },
        {
          "indexed": false,
          "internalType": "uint256",
          "name": "orderModifiedDate",
          "type": "uint256"
        }
      ],
      "name": "OrderStatusEvt",
      "type": "event"
    },
    {
      "anonymous": false,
      "inputs": [
        {
          "indexed": true,
          "internalType": "address",
          "name": "productId",
          "type": "address"
        },
        {
          "indexed": false,
          "internalType": "uint256",
          "name": "status",
          "type": "uint256"
        },
        {
          "indexed": false,
          "internalType": "uint256",
          "name": "totalRegProductCount",
          "type": "uint256"
        }
      ],
      "name": "ProductBatchUpdatedEvt",
      "type": "event"
    },
    {
      "inputs": [
        {
          "internalType": "address",
          "name": "",
          "type": "address"
        },
        {
          "internalType": "uint256",
          "name": "",
          "type": "uint256"
        }
      ],
      "name": "ProductBatchesAssignedToTransporter",
      "outputs": [
        {
          "internalType": "address",
          "name": "",
          "type": "address"
        }
      ],
      "stateMutability": "view",
      "type": "function",
      "constant": true
    },
    {
      "inputs": [
        {
          "internalType": "address",
          "name": "",
          "type": "address"
        },
        {
          "internalType": "uint256",
          "name": "",
          "type": "uint256"
        }
      ],
      "name": "RegisteredProductBatches",
      "outputs": [
        {
          "internalType": "address",
          "name": "",
          "type": "address"
        }
      ],
      "stateMutability": "view",
      "type": "function",
      "constant": true
    },
    {
      "inputs": [
        {
          "internalType": "string",
          "name": "_productName",
          "type": "string"
        },
        {
          "internalType": "string",
          "name": "_productDesc",
          "type": "string"
        },
        {
          "internalType": "string",
          "name": "_warehouseLoc",
          "type": "string"
        },
        {
          "internalType": "uint256",
          "name": "_quantity",
          "type": "uint256"
        },
        {
          "internalType": "uint256",
          "name": "_price",
          "type": "uint256"
        },
        {
          "internalType": "uint256",
          "name": "_totalPrice",
          "type": "uint256"
        },
        {
          "internalType": "string",
          "name": "_manufacturerName",
          "type": "string"
        },
        {
          "internalType": "string",
          "name": "_manufacturerLoc",
          "type": "string"
        },
        {
          "internalType": "address",
          "name": "_transporter",
          "type": "address"
        },
        {
          "internalType": "address",
          "name": "_retailer",
          "type": "address"
        },
        {
          "internalType": "address",
          "name": "_orderRequestId",
          "type": "address"
        }
      ],
      "name": "registerProductBatch",
      "outputs": [],
      "stateMutability": "nonpayable",
      "type": "function"
    },
    {
      "inputs": [
        {
          "internalType": "address",
          "name": "_productId",
          "type": "address"
        },
        {
          "internalType": "address",
          "name": "_transporter",
          "type": "address"
        }
      ],
      "name": "initiateProductShipment",
      "outputs": [],
      "stateMutability": "nonpayable",
      "type": "function"
    },
    {
      "inputs": [
        {
          "internalType": "address",
          "name": "_productId",
          "type": "address"
        },
        {
          "internalType": "string",
          "name": "_reason",
          "type": "string"
        }
      ],
      "name": "cancelInitiatedShipment",
      "outputs": [],
      "stateMutability": "nonpayable",
      "type": "function"
    },
    {
      "inputs": [
        {
          "internalType": "address",
          "name": "_distributor",
          "type": "address"
        }
      ],
      "name": "getAllRegisteredProductBatches",
      "outputs": [
        {
          "internalType": "address[]",
          "name": "",
          "type": "address[]"
        }
      ],
      "stateMutability": "view",
      "type": "function",
      "constant": true
    },
    {
      "inputs": [
        {
          "internalType": "address",
          "name": "_transporter",
          "type": "address"
        }
      ],
      "name": "getTransporterAssignedProductBatches",
      "outputs": [
        {
          "internalType": "address[]",
          "name": "",
          "type": "address[]"
        }
      ],
      "stateMutability": "view",
      "type": "function",
      "constant": true
    },
    {
      "inputs": [
        {
          "internalType": "address",
          "name": "_productId",
          "type": "address"
        }
      ],
      "name": "getProductDetails",
      "outputs": [
        {
          "components": [
            {
              "internalType": "address",
              "name": "productId",
              "type": "address"
            },
            {
              "internalType": "address",
              "name": "orderRequestId",
              "type": "address"
            },
            {
              "internalType": "string",
              "name": "productName",
              "type": "string"
            },
            {
              "internalType": "string",
              "name": "productDesc",
              "type": "string"
            },
            {
              "internalType": "string",
              "name": "warehouseLoc",
              "type": "string"
            },
            {
              "internalType": "uint256",
              "name": "quantity",
              "type": "uint256"
            },
            {
              "internalType": "uint256",
              "name": "totalPrice",
              "type": "uint256"
            },
            {
              "internalType": "uint256",
              "name": "price",
              "type": "uint256"
            },
            {
              "internalType": "uint256",
              "name": "quantityRemain",
              "type": "uint256"
            }
          ],
          "internalType": "struct ProductBasicInfo",
          "name": "productBasicInfo",
          "type": "tuple"
        },
        {
          "components": [
            {
              "internalType": "enum BatchStatus",
              "name": "batchStatus",
              "type": "uint8"
            },
            {
              "internalType": "address",
              "name": "transporter",
              "type": "address"
            },
            {
              "internalType": "address",
              "name": "distributor",
              "type": "address"
            },
            {
              "internalType": "string",
              "name": "manufacturerName",
              "type": "string"
            },
            {
              "internalType": "string",
              "name": "manufacturerLoc",
              "type": "string"
            },
            {
              "internalType": "address",
              "name": "retailer",
              "type": "address"
            },
            {
              "internalType": "string",
              "name": "reasonForShipmentCancellation",
              "type": "string"
            },
            {
              "internalType": "string",
              "name": "reasonForPackageRejection",
              "type": "string"
            },
            {
              "internalType": "uint256",
              "name": "lastModifiedTimestamp",
              "type": "uint256"
            }
          ],
          "internalType": "struct ProductAdvanceInfo",
          "name": "productAdvanceInfo",
          "type": "tuple"
        },
        {
          "internalType": "uint256",
          "name": "_status",
          "type": "uint256"
        }
      ],
      "stateMutability": "view",
      "type": "function",
      "constant": true
    }
  ],
  "bytecode": "0x608060405234801561001057600080fd5b5060405161398838038061398883398101604081905261002f91610054565b60008054600160a060020a031916600160a060020a0392909216919091179055610084565b60006020828403121561006657600080fd5b8151600160a060020a038116811461007d57600080fd5b9392505050565b6138f5806100936000396000f3fe60806040523480156200001157600080fd5b5060043610620000975760003560e060020a900480636078fa4211620000665780636078fa42146200012b5780636d3f5fb21462000142578063bd8ce22c1462000159578063d2342247146200018157600080fd5b806311a3d75c146200009c57806325249f1914620000cb578063255ebe6914620000fb5780632969ac011462000112575b600080fd5b620000b3620000ad36600462000ea2565b62000198565b604051620000c2919062000ec9565b60405180910390f35b620000e2620000dc36600462000f18565b62000210565b604051600160a060020a039091168152602001620000c2565b620000b36200010c36600462000ea2565b62000249565b620001296200012336600462001085565b620002bf565b005b620000e26200013c36600462000f18565b620007ae565b6200012962000153366004620011c2565b620007cb565b620001706200016a36600462000ea2565b620009f6565b604051620000c29392919062001387565b620001296200019236600462001474565b62000b1b565b600160a060020a0381166000908152600260209081526040918290208054835181840281018401909452808452606093928301828280156200020457602002820191906000526020600020905b8154600160a060020a03168152600190910190602001808311620001e5575b50505050509050919050565b600260205281600052604060002081815481106200022d57600080fd5b600091825260209091200154600160a060020a03169150829050565b600160a060020a0381166000908152600160209081526040918290208054835181840281018401909452808452606093928301828280156200020457602002820191906000526020600020908154600160a060020a03168152600190910190602001808311620001e55750505050509050919050565b6000546040517f27820851000000000000000000000000000000000000000000000000000000008152336004820152600160a060020a0390911690632782085190602401602060405180830381865afa15801562000321573d6000803e3d6000fd5b505050506040513d601f19601f82011682018060405250810190620003479190620014ca565b600214620003755760405160e560020a62461bcd0281526004016200036c90620014e4565b60405180910390fd5b80600160a060020a03166367e552b46040518163ffffffff1660e060020a028152600401602060405180830381865afa158015620003b7573d6000803e3d6000fd5b505050506040513d601f19601f82011682018060405250810190620003dd9190620014ca565b6002148015620003f65750620003f681898d8862000cc8565b1562000755576000818c8c8c8c8c8b8b8b8b33604051620004179062000e69565b6200042d9b9a999897969594939291906200151b565b604051809103906000f0801580156200044a573d6000803e3d6000fd5b50336000908152600260209081526040808320805460018101825590845282842001805473ffffffffffffffffffffffffffffffffffffffff1916600160a060020a038681169190911790915581517f9989bdf10000000000000000000000000000000000000000000000000000000081529151949550861693639989bdf1936004808401949383900301908290875af1158015620004ed573d6000803e3d6000fd5b505050506040513d601f19601f82011682018060405250810190620005139190620015e1565b5080600160a060020a03167f333465192ba83f040c60ecd122b50235e8fe15c7574e22f4528514c2df823a8b82600160a060020a031663db748f4a6040518163ffffffff1660e060020a028152600401602060405180830381865afa15801562000581573d6000803e3d6000fd5b505050506040513d601f19601f82011682018060405250810190620005a79190620014ca565b33600090815260026020908152604091829020548251938452908301520160405180910390a281600160a060020a03167f9f8ef4b6c4eb3e41e5b9ad875e6fafb318a10a000193e633a43b8bafe1a276de83600160a060020a03166367e552b46040518163ffffffff1660e060020a028152600401602060405180830381865afa1580156200063a573d6000803e3d6000fd5b505050506040513d601f19601f82011682018060405250810190620006609190620014ca565b84600160a060020a03166302f5ab146040518163ffffffff1660e060020a028152600401602060405180830381865afa158015620006a2573d6000803e3d6000fd5b505050506040513d601f19601f82011682018060405250810190620006c89190620014ca565b85600160a060020a031663d1be9bfe6040518163ffffffff1660e060020a028152600401602060405180830381865afa1580156200070a573d6000803e3d6000fd5b505050506040513d601f19601f82011682018060405250810190620007309190620014ca565b6040805193845260208401929092529082015260600160405180910390a250620007a1565b60405160e560020a62461bcd02815260206004820152601660248201527f4f524445525f4e4f545f5945545f41434345505445440000000000000000000060448201526064016200036c565b5050505050505050505050565b600160205281600052604060002081815481106200022d57600080fd5b6000546040517f27820851000000000000000000000000000000000000000000000000000000008152336004820152600160a060020a0390911690632782085190602401602060405180830381865afa1580156200082d573d6000803e3d6000fd5b505050506040513d601f19601f82011682018060405250810190620008539190620014ca565b600214620008785760405160e560020a62461bcd0281526004016200036c90620014e4565b81600160a060020a031662613a776040518163ffffffff1660e060020a0281526004016020604051808303816000875af1158015620008bb573d6000803e3d6000fd5b505050506040513d601f19601f82011682018060405250810190620008e19190620015e1565b15620009f257600160a060020a03818116600090815260016020818152604080842080549384018155845292819020909101805473ffffffffffffffffffffffffffffffffffffffff1916938616938417905581517fdb748f4a00000000000000000000000000000000000000000000000000000000815291517f333465192ba83f040c60ecd122b50235e8fe15c7574e22f4528514c2df823a8b92849263db748f4a926004808401938290030181865afa158015620009a5573d6000803e3d6000fd5b505050506040513d601f19601f82011682018060405250810190620009cb9190620014ca565b33600090815260026020908152604091829020548251938452908301520160405180910390a25b5050565b62000a586040518061012001604052806000600160a060020a031681526020016000600160a060020a03168152602001606081526020016060815260200160608152602001600081526020016000815260200160008152602001600081525090565b604080516101208101825260008082526020820181905291810182905260608082018190526080820181905260a0820183905260c0820181905260e0820152610100810191909152600083600160a060020a031663fc72a3856040518163ffffffff1660e060020a028152600401600060405180830381865afa15801562000ae4573d6000803e3d6000fd5b505050506040513d6000823e601f3d908101601f1916820160405262000b0e919081019062001797565b9250925092509193909250565b6000546040517f27820851000000000000000000000000000000000000000000000000000000008152336004820152600160a060020a0390911690632782085190602401602060405180830381865afa15801562000b7d573d6000803e3d6000fd5b505050506040513d601f19601f8201168201806040525081019062000ba39190620014ca565b60021462000bc85760405160e560020a62461bcd0281526004016200036c90620014e4565b6040517fae597cd6000000000000000000000000000000000000000000000000000000008152600160a060020a0383169063ae597cd69062000c0f908490600401620018de565b6020604051808303816000875af115801562000c2f573d6000803e3d6000fd5b505050506040513d601f19601f8201168201806040525081019062000c559190620015e1565b15620009f25781600160a060020a03167f333465192ba83f040c60ecd122b50235e8fe15c7574e22f4528514c2df823a8b83600160a060020a031663db748f4a6040518163ffffffff1660e060020a028152600401602060405180830381865afa158015620009a5573d6000803e3d6000fd5b60008085600160a060020a031663534206ad6040518163ffffffff1660e060020a028152600401600060405180830381865afa15801562000d0d573d6000803e3d6000fd5b505050506040513d6000823e601f3d908101601f1916820160405262000d37919081019062001903565b90508481608001511462000d915760405160e560020a62461bcd02815260206004820152600c60248201527f5154595f4d49534d41544348000000000000000000000000000000000000000060448201526064016200036c565b83805190602001208160200151805190602001201462000df75760405160e560020a62461bcd02815260206004820152601260248201527f50524f445f4e414d455f4d49534d41544348000000000000000000000000000060448201526064016200036c565b82805190602001208160600151805190602001201462000e5d5760405160e560020a62461bcd02815260206004820152600e60248201527f4d414e55465f4d49534d4154434800000000000000000000000000000000000060448201526064016200036c565b50600195945050505050565b611e0e8062001ab283390190565b600160a060020a038116811462000e8d57600080fd5b50565b803562000e9d8162000e77565b919050565b60006020828403121562000eb557600080fd5b813562000ec28162000e77565b9392505050565b6020808252825182820181905260009190848201906040850190845b8181101562000f0c578351600160a060020a03168352928401929184019160010162000ee5565b50909695505050505050565b6000806040838503121562000f2c57600080fd5b823562000f398162000e77565b946020939093013593505050565b7f4e487b7100000000000000000000000000000000000000000000000000000000600052604160045260246000fd5b604051610120810167ffffffffffffffff8111828210171562000f9d5762000f9d62000f47565b60405290565b6040516101a0810167ffffffffffffffff8111828210171562000f9d5762000f9d62000f47565b604051601f8201601f1916810167ffffffffffffffff8111828210171562000ff65762000ff662000f47565b604052919050565b600067ffffffffffffffff8211156200101b576200101b62000f47565b50601f01601f191660200190565b600082601f8301126200103b57600080fd5b8135620010526200104c8262000ffe565b62000fca565b8181528460208386010111156200106857600080fd5b816020850160208301376000918101602001919091529392505050565b60008060008060008060008060008060006101608c8e031215620010a857600080fd5b67ffffffffffffffff808d351115620010c057600080fd5b620010cf8e8e358f0162001029565b9b508060208e01351115620010e357600080fd5b620010f58e60208f01358f0162001029565b9a508060408e013511156200110957600080fd5b6200111b8e60408f01358f0162001029565b995060608d0135985060808d0135975060a08d013596508060c08e013511156200114457600080fd5b620011568e60c08f01358f0162001029565b95508060e08e013511156200116a57600080fd5b506200117d8d60e08e01358e0162001029565b93506200118e6101008d0162000e90565b92506200119f6101208d0162000e90565b9150620011b06101408d0162000e90565b90509295989b509295989b9093969950565b60008060408385031215620011d657600080fd5b8235620011e38162000e77565b91506020830135620011f58162000e77565b809150509250929050565b60005b838110156200121d57818101518382015260200162001203565b838111156200122d576000848401525b50505050565b600081518084526200124d81602086016020860162001200565b601f01601f19169290920160200192915050565b6007811062001299577f4e487b7100000000000000000000000000000000000000000000000000000000600052602160045260246000fd5b9052565b6000610120620012af84845162001261565b6020830151620012ca6020860182600160a060020a03169052565b506040830151620012e66040860182600160a060020a03169052565b506060830151816060860152620013008286018262001233565b915050608083015184820360808601526200131c828262001233565b91505060a08301516200133a60a0860182600160a060020a03169052565b5060c083015184820360c086015262001354828262001233565b91505060e083015184820360e086015262001370828262001233565b610100948501519590940194909452509092915050565b60608152620013a2606082018551600160a060020a03169052565b60006020850151620013bf6080840182600160a060020a03169052565b5060408501516101208060a0850152620013de61018085018362001233565b91506060870151605f19808685030160c0870152620013fe848362001233565b935060808901519150808685030160e0870152506200141e838262001233565b92505060a0870151610100818187015260c08901518387015260e08901516101408701528089015161016087015250505082810360208401526200146381866200129d565b915050826040830152949350505050565b600080604083850312156200148857600080fd5b8235620014958162000e77565b9150602083013567ffffffffffffffff811115620014b257600080fd5b620014c08582860162001029565b9150509250929050565b600060208284031215620014dd57600080fd5b5051919050565b60208082526004908201527f4f44434300000000000000000000000000000000000000000000000000000000604082015260600190565b6000610160600160a060020a03808f168452816020850152620015418285018f62001233565b9150838203604085015262001557828e62001233565b915083820360608501526200156d828d62001233565b91508a60808501528960a085015283820360c08501526200158f828a62001233565b915083820360e0850152620015a5828962001233565b878216610100860152908616610120850152600160a060020a0385166101408501529150620015d19050565b9c9b505050505050505050505050565b600060208284031215620015f457600080fd5b8151801515811462000ec257600080fd5b805162000e9d8162000e77565b600082601f8301126200162457600080fd5b8151620016356200104c8262000ffe565b8181528460208386010111156200164b57600080fd5b6200165e82602083016020870162001200565b949350505050565b80516007811062000e9d57600080fd5b600061012082840312156200168a57600080fd5b6200169462000f76565b9050620016a18262001666565b8152620016b16020830162001605565b6020820152620016c46040830162001605565b6040820152606082015167ffffffffffffffff80821115620016e557600080fd5b620016f38583860162001612565b606084015260808401519150808211156200170d57600080fd5b6200171b8583860162001612565b60808401526200172e60a0850162001605565b60a084015260c08401519150808211156200174857600080fd5b620017568583860162001612565b60c084015260e08401519150808211156200177057600080fd5b506200177f8482850162001612565b60e08301525061010080830151818301525092915050565b600080600060608486031215620017ad57600080fd5b835167ffffffffffffffff80821115620017c657600080fd5b908501906101208288031215620017dc57600080fd5b620017e662000f76565b620017f18362001605565b8152620018016020840162001605565b60208201526040830151828111156200181957600080fd5b620018278982860162001612565b6040830152506060830151828111156200184057600080fd5b6200184e8982860162001612565b6060830152506080830151828111156200186757600080fd5b620018758982860162001612565b60808301525060a083015160a082015260c083015160c082015260e083015160e0820152610100808401518183015250809550506020860151915080821115620018be57600080fd5b50620018cd8682870162001676565b925050604084015190509250925092565b60208152600062000ec2602083018462001233565b80516006811062000e9d57600080fd5b6000602082840312156200191657600080fd5b815167ffffffffffffffff808211156200192f57600080fd5b908301906101a082860312156200194557600080fd5b6200194f62000fa3565b6200195a8362001605565b81526020830151828111156200196f57600080fd5b6200197d8782860162001612565b6020830152506040830151828111156200199657600080fd5b620019a48782860162001612565b604083015250606083015182811115620019bd57600080fd5b620019cb8782860162001612565b60608301525060808301516080820152620019e960a0840162001605565b60a0820152620019fc60c0840162001605565b60c082015260e08301518281111562001a1457600080fd5b62001a228782860162001612565b60e083015250610100808401518381111562001a3d57600080fd5b62001a4b8882870162001612565b82840152505061012062001a61818501620018f3565b908201526101408381015190820152610160808401518381111562001a8557600080fd5b62001a938882870162001612565b9183019190915250610180928301519281019290925250939250505056fe60806040523480156200001157600080fd5b5060405162001e0e38038062001e0e8339810160408190526200003491620002f5565b60028054600160a060020a038d16600160a060020a03199182161790915560018054909116301790558951620000729060039060208d01906200014c565b508851620000889060049060208c01906200014c565b5087516200009e9060059060208b01906200014c565b50600687905560098790556008869055620000ba86886200044d565b600755600a805460ff191690558451620000dc90600c9060208801906200014c565b508351620000f290600d9060208701906200014c565b50600a8054600160a060020a039485166101000261010060a860020a0319909116179055600e8054928416600160a060020a0319938416179055600b805491909316911617905550504260115550620004ea945050505050565b8280546200015a9062000494565b90600052602060002090601f0160209004810192826200017e5760008555620001c9565b82601f106200019957805160ff1916838001178555620001c9565b82800160010185558215620001c9579182015b82811115620001c9578251825591602001919060010190620001ac565b50620001d7929150620001db565b5090565b5b80821115620001d75760008155600101620001dc565b8051600160a060020a03811681146200020a57600080fd5b919050565b7f4e487b7100000000000000000000000000000000000000000000000000000000600052604160045260246000fd5b600082601f8301126200025057600080fd5b81516001604060020a03808211156200026d576200026d6200020f565b604051601f8301601f19908116603f011681019082821181831017156200029857620002986200020f565b81604052838152602092508683858801011115620002b557600080fd5b600091505b83821015620002d95785820183015181830184015290820190620002ba565b83821115620002eb5760008385830101525b9695505050505050565b60008060008060008060008060008060006101608c8e0312156200031857600080fd5b620003238c620001f2565b9a5060208c01516001604060020a038111156200033f57600080fd5b6200034d8e828f016200023e565b9a505060408c01516001604060020a038111156200036a57600080fd5b620003788e828f016200023e565b99505060608c01516001604060020a038111156200039557600080fd5b620003a38e828f016200023e565b98505060808c0151965060a08c0151955060c08c01516001604060020a03811115620003ce57600080fd5b620003dc8e828f016200023e565b95505060e08c01516001604060020a03811115620003f957600080fd5b620004078e828f016200023e565b945050620004196101008d01620001f2565b92506200042a6101208d01620001f2565b91506200043b6101408d01620001f2565b90509295989b509295989b9093969950565b60008160001904831182151516156200048f577f4e487b7100000000000000000000000000000000000000000000000000000000600052601160045260246000fd5b500290565b600281046001821680620004a957607f821691505b60208210811415620004e4577f4e487b7100000000000000000000000000000000000000000000000000000000600052602260045260246000fd5b50919050565b61191480620004fa6000396000f3fe608060405234801561001057600080fd5b506004361061011c576000357c01000000000000000000000000000000000000000000000000000000009004806384a469da116100b4578063db748f4a11610083578063db748f4a14610229578063ea622a7f1461023f578063f0ca9ef614610247578063fc72a3851461025a57600080fd5b806384a469da146101d6578063a42f3f74146101f3578063ae597cd61461020e578063b7aab7f31461022157600080fd5b8063200d2ed2116100f0578063200d2ed21461018c57806340377ef9146101a6578063521634df146101bb57806352b72a1c146101c357600080fd5b8062613a771461012157806310a95f961461013e57806315f9735a1461015157806317fa1f471461016e575b600080fd5b610129610271565b60405190151581526020015b60405180910390f35b61012961014c36600461136e565b610284565b6101596102ba565b604051610135999897969594939291906113f8565b61018a61017c366004611477565b600681905560095542601155565b005b6000546101999060ff1681565b60405161013591906114ce565b6101ae610496565b604051610135919061158b565b6101296106ab565b6101296101d13660046115c1565b6106b9565b6101de61079e565b604051610135999897969594939291906116c8565b600254604051600160a060020a039091168152602001610135565b61012961021c36600461136e565b610a16565b610129610a25565b610231610a33565b604051908152602001610135565b610129610a4d565b61012961025536600461136e565b610a5b565b610262610a8d565b6040516101359392919061175d565b600061027f60016000610fe9565b905090565b60008061029360026003610fe9565b905080156102b05782516102ae90600f9060208601906111d1565b505b4260115592915050565b6001805460025460038054600160a060020a039384169492909316926102df90611857565b80601f016020809104026020016040519081016040528092919081815260200182805461030b90611857565b80156103585780601f1061032d57610100808354040283529160200191610358565b820191906000526020600020905b81548152906001019060200180831161033b57829003601f168201915b50505050509080600301805461036d90611857565b80601f016020809104026020016040519081016040528092919081815260200182805461039990611857565b80156103e65780601f106103bb576101008083540402835291602001916103e6565b820191906000526020600020905b8154815290600101906020018083116103c957829003601f168201915b5050505050908060040180546103fb90611857565b80601f016020809104026020016040519081016040528092919081815260200182805461042790611857565b80156104745780601f1061044957610100808354040283529160200191610474565b820191906000526020600020905b81548152906001019060200180831161045757829003601f168201915b5050505050908060050154908060060154908060070154908060080154905089565b61049e611255565b604080516101208101825260018054600160a060020a0390811683526002541660208301526003805492939192918401916104d890611857565b80601f016020809104026020016040519081016040528092919081815260200182805461050490611857565b80156105515780601f1061052657610100808354040283529160200191610551565b820191906000526020600020905b81548152906001019060200180831161053457829003601f168201915b5050505050815260200160038201805461056a90611857565b80601f016020809104026020016040519081016040528092919081815260200182805461059690611857565b80156105e35780601f106105b8576101008083540402835291602001916105e3565b820191906000526020600020905b8154815290600101906020018083116105c657829003601f168201915b505050505081526020016004820180546105fc90611857565b80601f016020809104026020016040519081016040528092919081815260200182805461062890611857565b80156106755780601f1061064a57610100808354040283529160200191610675565b820191906000526020600020905b81548152906001019060200180831161065857829003601f168201915b50505050508152602001600582015481526020016006820154815260200160078201548152602001600882015481525050905090565b600061027f60046003610fe9565b88516000906106cf9060039060208d01906111d1565b5088516106e39060049060208c01906111d1565b5087516106f79060059060208b01906111d1565b506006879055600987905560088690556107118688611895565b600755845161072790600c9060208801906111d1565b50835161073b90600d9060208701906111d1565b5050600a805474ffffffffffffffffffffffffffffffffffffffff001916610100600160a060020a0394851602179055600e805473ffffffffffffffffffffffffffffffffffffffff191691909216179055505042601155506001949350505050565b600a8054600b54600c805460ff841694610100909404600160a060020a039081169493169291906107ce90611857565b80601f01602080910402602001604051908101604052809291908181526020018280546107fa90611857565b80156108475780601f1061081c57610100808354040283529160200191610847565b820191906000526020600020905b81548152906001019060200180831161082a57829003601f168201915b50505050509080600301805461085c90611857565b80601f016020809104026020016040519081016040528092919081815260200182805461088890611857565b80156108d55780601f106108aa576101008083540402835291602001916108d5565b820191906000526020600020905b8154815290600101906020018083116108b857829003601f168201915b50505060048401546005850180549495600160a060020a039092169491935091506108ff90611857565b80601f016020809104026020016040519081016040528092919081815260200182805461092b90611857565b80156109785780601f1061094d57610100808354040283529160200191610978565b820191906000526020600020905b81548152906001019060200180831161095b57829003601f168201915b50505050509080600601805461098d90611857565b80601f01602080910402602001604051908101604052809291908181526020018280546109b990611857565b8015610a065780601f106109db57610100808354040283529160200191610a06565b820191906000526020600020905b8154815290600101906020018083116109e957829003601f168201915b5050505050908060070154905089565b60008061029360026001610fe9565b600061027f60066004610fe9565b600a5460009060ff16600681111561027f5761027f611490565b600061027f60036001610fe9565b600080610a6a60056004610fe9565b90508015610a87578251610a859060109060208601906111d1565b505b92915050565b610a95611255565b604080516101208101825260008082526020820181905291810182905260608082018190526080820181905260a0820183905260c0820181905260e0820152610100810191909152600a805460009160019160ff166006811115610afb57610afb611490565b60408051610120810182528454600160a060020a0390811682526001860154166020820152600285018054919286929084019190610b3890611857565b80601f0160208091040260200160405190810160405280929190818152602001828054610b6490611857565b8015610bb15780601f10610b8657610100808354040283529160200191610bb1565b820191906000526020600020905b815481529060010190602001808311610b9457829003601f168201915b50505050508152602001600382018054610bca90611857565b80601f0160208091040260200160405190810160405280929190818152602001828054610bf690611857565b8015610c435780601f10610c1857610100808354040283529160200191610c43565b820191906000526020600020905b815481529060010190602001808311610c2657829003601f168201915b50505050508152602001600482018054610c5c90611857565b80601f0160208091040260200160405190810160405280929190818152602001828054610c8890611857565b8015610cd55780601f10610caa57610100808354040283529160200191610cd5565b820191906000526020600020905b815481529060010190602001808311610cb857829003601f168201915b50505050508152602001600582015481526020016006820154815260200160078201548152602001600882015481525050925081604051806101200160405290816000820160009054906101000a900460ff166006811115610d3957610d39611490565b6006811115610d4a57610d4a611490565b81528154600160a060020a03610100909104811660208301526001830154166040820152600282018054606090920191610d8390611857565b80601f0160208091040260200160405190810160405280929190818152602001828054610daf90611857565b8015610dfc5780601f10610dd157610100808354040283529160200191610dfc565b820191906000526020600020905b815481529060010190602001808311610ddf57829003601f168201915b50505050508152602001600382018054610e1590611857565b80601f0160208091040260200160405190810160405280929190818152602001828054610e4190611857565b8015610e8e5780601f10610e6357610100808354040283529160200191610e8e565b820191906000526020600020905b815481529060010190602001808311610e7157829003601f168201915b50505091835250506004820154600160a060020a03166020820152600582018054604090920191610ebe90611857565b80601f0160208091040260200160405190810160405280929190818152602001828054610eea90611857565b8015610f375780601f10610f0c57610100808354040283529160200191610f37565b820191906000526020600020905b815481529060010190602001808311610f1a57829003601f168201915b50505050508152602001600682018054610f5090611857565b80601f0160208091040260200160405190810160405280929190818152602001828054610f7c90611857565b8015610fc95780601f10610f9e57610100808354040283529160200191610fc9565b820191906000526020600020905b815481529060010190602001808311610fac57829003601f168201915b505050505081526020016007820154815250509150925092509250909192565b6000610ff36110db565b15610a875781600681111561100a5761100a611490565b600681111561101b5761101b611490565b600a5460ff16600681111561103257611032611490565b14156110745782600681111561104a5761104a611490565b600a805460ff1916600183600681111561106657611066611490565b021790555060019050610a87565b6040517fbd0259e600000000000000000000000000000000000000000000000000000000815260206004820152601b60248201527f50524556494f55535f535445505f4e4f545f434f4d504c45544544000000000060448201526064015b60405180910390fd5b600254604080517f67e552b40000000000000000000000000000000000000000000000000000000081529051600092600160a060020a0316916367e552b49160048083019260209291908290030181865afa15801561113e573d6000803e3d6000fd5b505050506040513d601f19601f8201168201806040525081019061116291906118c5565b6003146111cb576040517f08c379a000000000000000000000000000000000000000000000000000000000815260206004820152600e60248201527f4f524445525f43414e43454c454400000000000000000000000000000000000060448201526064016110d2565b50600190565b8280546111dd90611857565b90600052602060002090601f0160209004810192826111ff5760008555611245565b82601f1061121857805160ff1916838001178555611245565b82800160010185558215611245579182015b8281111561124557825182559160200191906001019061122a565b506112519291506112b3565b5090565b6040518061012001604052806000600160a060020a031681526020016000600160a060020a03168152602001606081526020016060815260200160608152602001600081526020016000815260200160008152602001600081525090565b5b8082111561125157600081556001016112b4565b60e060020a634e487b7102600052604160045260246000fd5b600082601f8301126112f257600080fd5b813567ffffffffffffffff8082111561130d5761130d6112c8565b604051601f8301601f19908116603f01168101908282118183101715611335576113356112c8565b8160405283815286602085880101111561134e57600080fd5b836020870160208301376000602085830101528094505050505092915050565b60006020828403121561138057600080fd5b813567ffffffffffffffff81111561139757600080fd5b6113a3848285016112e1565b949350505050565b6000815180845260005b818110156113d1576020818501810151868301820152016113b5565b818111156113e3576000602083870101525b50601f01601f19169290920160200192915050565b6000610120600160a060020a03808d168452808c166020850152508060408401526114258184018b6113ab565b90508281036060840152611439818a6113ab565b9050828103608084015261144d81896113ab565b9150508560a08301528460c08301528360e0830152826101008301529a9950505050505050505050565b60006020828403121561148957600080fd5b5035919050565b60e060020a634e487b7102600052602160045260246000fd5b600781106114ca5760e060020a634e487b7102600052602160045260246000fd5b9052565b60208101610a8782846114a9565b8051600160a060020a03168252600061012060208301516115086020860182600160a060020a03169052565b506040830151816040860152611520828601826113ab565b9150506060830151848203606086015261153a82826113ab565b9150506080830151848203608086015261155482826113ab565b91505060a083015160a085015260c083015160c085015260e083015160e08501526101008084015181860152508091505092915050565b60208152600061159e60208301846114dc565b9392505050565b8035600160a060020a03811681146115bc57600080fd5b919050565b60008060008060008060008060006101208a8c0312156115e057600080fd5b893567ffffffffffffffff808211156115f857600080fd5b6116048d838e016112e1565b9a5060208c013591508082111561161a57600080fd5b6116268d838e016112e1565b995060408c013591508082111561163c57600080fd5b6116488d838e016112e1565b985060608c0135975060808c0135965060a08c013591508082111561166c57600080fd5b6116788d838e016112e1565b955060c08c013591508082111561168e57600080fd5b5061169b8c828d016112e1565b9350506116aa60e08b016115a5565b91506116b96101008b016115a5565b90509295985092959850929598565b60006101206116d7838d6114a9565b600160a060020a03808c166020850152808b1660408501528160608501526117018285018b6113ab565b91508382036080850152611715828a6113ab565b90881660a085015283810360c0850152905061173181876113ab565b905082810360e084015261174581866113ab565b915050826101008301529a9950505050505050505050565b60608152600061177060608301866114dc565b82810360208401526101206117868287516114a9565b60208601516117a06020840182600160a060020a03169052565b5060408601516117bb6040840182600160a060020a03169052565b5060608601518160608401526117d3828401826113ab565b915050608086015182820360808401526117ed82826113ab565b91505060a086015161180a60a0840182600160a060020a03169052565b5060c086015182820360c084015261182282826113ab565b91505060e086015182820360e084015261183c82826113ab565b61010097880151939097019290925250505060400152919050565b60028104600182168061186b57607f821691505b6020821081141561188f5760e060020a634e487b7102600052602260045260246000fd5b50919050565b60008160001904831182151516156118c05760e060020a634e487b7102600052601160045260246000fd5b500290565b6000602082840312156118d757600080fd5b505191905056fea26469706673582212209a30d2b4f7a71d759841481a5e85b7fa307768a34e325761b5a5278e94bc8ed164736f6c634300080b0033a264697066735822122048db7fdf84dc93afffe0da24a6119bfc91494976cedb36b9b9caf13667b66efa64736f6c634300080b0033",
  "immutableReferences": {},
  "source": "// SPDX-License-Identifier: MIT\r\npragma solidity ^0.8.11;\r\npragma experimental ABIEncoderV2;\r\n\r\nimport \"./User.sol\";\r\nimport \"./Product.sol\";\r\nimport \"./OrderRequestInfo.sol\";\r\n\r\ncontract Distributor {\r\n    User user;\r\n\r\n    constructor(address _userAddress) {\r\n        user = User(_userAddress);\r\n    }\r\n\r\n    mapping(address => address[]) public ProductBatchesAssignedToTransporter;\r\n    mapping(address => address[]) public RegisteredProductBatches;\r\n\r\n    modifier onlyDistributor() {\r\n        require(user.getUserRole(msg.sender) == 2, \"ODCC\");\r\n        _;\r\n    }\r\n\r\n    event ProductBatchUpdatedEvt(\r\n        address indexed productId,\r\n        uint256 status,\r\n        uint256 totalRegProductCount\r\n    );\r\n\r\n    event OrderStatusEvt(\r\n        address indexed orderRequestId,\r\n        uint256 orderStatus,\r\n        uint256 submissionTimestamp,\r\n        uint256 orderModifiedDate\r\n    );\r\n\r\n    function registerProductBatch(\r\n        string memory _productName,\r\n        string memory _productDesc,\r\n        string memory _warehouseLoc,\r\n        uint256 _quantity,\r\n        uint256 _price,\r\n        uint256 _totalPrice,\r\n        string memory _manufacturerName,\r\n        string memory _manufacturerLoc,\r\n        address _transporter, // logistic\r\n        address _retailer, // receiver\r\n        address _orderRequestId\r\n    ) public onlyDistributor {\r\n        if (\r\n            OrderRequestInfo(_orderRequestId).getOrderRequestStatus() == 2 &&\r\n            validateProductBatch(\r\n                _orderRequestId,\r\n                _quantity,\r\n                _productName,\r\n                _manufacturerName\r\n            )\r\n        ) {\r\n            Product productBatch = new Product(\r\n                _orderRequestId,\r\n                _productName,\r\n                _productDesc,\r\n                _warehouseLoc,\r\n                _quantity,\r\n                _price,\r\n                _manufacturerName,\r\n                _manufacturerLoc,\r\n                _transporter,\r\n                _retailer,\r\n                msg.sender\r\n            );\r\n            RegisteredProductBatches[msg.sender].push(address(productBatch));\r\n            OrderRequestInfo(_orderRequestId).inProcess();\r\n            emit ProductBatchUpdatedEvt(\r\n                address(productBatch),\r\n                Product(address(productBatch)).getProductBatchStatus(),\r\n                RegisteredProductBatches[msg.sender].length\r\n            );\r\n            emit OrderStatusEvt(\r\n                _orderRequestId,\r\n                OrderRequestInfo(_orderRequestId).getOrderRequestStatus(),\r\n                OrderRequestInfo(_orderRequestId).getOrderSubmissionTimestamp(),\r\n                OrderRequestInfo(_orderRequestId).getOrderModifiedDate()\r\n            );\r\n        } else {\r\n            revert(\"ORDER_NOT_YET_ACCEPTED\");\r\n        }\r\n    }\r\n\r\n    function initiateProductShipment(address _productId, address _transporter)\r\n        public\r\n        onlyDistributor\r\n    {\r\n        if (Product(_productId).initiateTransit()) {\r\n            ProductBatchesAssignedToTransporter[_transporter].push(_productId);\r\n            emit ProductBatchUpdatedEvt(\r\n                _productId,\r\n                Product(_productId).getProductBatchStatus(),\r\n                RegisteredProductBatches[msg.sender].length\r\n            );\r\n        }\r\n    }\r\n\r\n    function cancelInitiatedShipment(address _productId, string memory _reason)\r\n        public\r\n        onlyDistributor\r\n    {\r\n        if (Product(_productId).cancelProductShipment(_reason)) {\r\n            emit ProductBatchUpdatedEvt(\r\n                _productId,\r\n                Product(_productId).getProductBatchStatus(),\r\n                RegisteredProductBatches[msg.sender].length\r\n            );\r\n        }\r\n    }\r\n\r\n    function validateProductBatch(\r\n        address _orderRequestId,\r\n        uint256 _quantity,\r\n        string memory _productName,\r\n        string memory _manufacturerDetail\r\n    ) private view returns (bool flag) {\r\n        OrderInfo memory _orderInfo = OrderRequestInfo(_orderRequestId)\r\n            .getOrderRequestInfo();\r\n        if (_orderInfo.quantity != _quantity) {\r\n            revert(\"QTY_MISMATCH\");\r\n        } else if (\r\n            keccak256(bytes(_orderInfo.productName)) !=\r\n            keccak256(bytes(_productName))\r\n        ) {\r\n            revert(\"PROD_NAME_MISMATCH\");\r\n        } else if (\r\n            keccak256(bytes(_orderInfo.manufacturerDetail)) !=\r\n            keccak256(bytes(_manufacturerDetail))\r\n        ) {\r\n            revert(\"MANUF_MISMATCH\");\r\n        }\r\n\r\n        return true;\r\n    }\r\n\r\n    //get list of registered product batches by distributor\r\n    function getAllRegisteredProductBatches(address _distributor)\r\n        public\r\n        view\r\n        returns (address[] memory)\r\n    {\r\n        return RegisteredProductBatches[_distributor];\r\n    }\r\n\r\n    //get list of product batches initiated for transfer by distributor to transporter\r\n    function getTransporterAssignedProductBatches(address _transporter)\r\n        public\r\n        view\r\n        returns (address[] memory)\r\n    {\r\n        return ProductBatchesAssignedToTransporter[_transporter];\r\n    }\r\n\r\n    //Retrieve product details\r\n    //@param _productId Address product Id\r\n    function getProductDetails(address _productId)\r\n        public\r\n        view\r\n        returns (\r\n            ProductBasicInfo memory productBasicInfo,\r\n            ProductAdvanceInfo memory productAdvanceInfo,\r\n            uint256 _status\r\n        )\r\n    {\r\n        return Product(_productId).getProductInfo();\r\n    }\r\n}\r\n",
  "sourcePath": "C:\\Development\\Blockchain\\AAP-Blockchain\\aap_blockchainpoc_updated_version\\aap_supplychainpoc_blockchain\\contracts\\Distributor.sol",
  "compiler": {
    "name": "solc",
    "version": "0.8.11+commit.d7f03943.Emscripten.clang"
  },
  "schemaVersion": "3.4.4",
  "updatedAt": "2022-02-15T09:06:17.559Z",
  "networkType": "ethereum",
  "devdoc": {
    "kind": "dev",
    "methods": {},
    "version": 1
  },
  "userdoc": {
    "kind": "user",
    "methods": {},
    "version": 1
  }
}