{
  "contractName": "OrderRequest",
  "abi": [
    {
      "inputs": [
        {
          "internalType": "string",
          "name": "_productName",
          "type": "string"
        },
        {
          "internalType": "string",
          "name": "_productDesc",
          "type": "string"
        },
        {
          "internalType": "string",
          "name": "_manufacturerDetail",
          "type": "string"
        },
        {
          "internalType": "string",
          "name": "_notes",
          "type": "string"
        },
        {
          "internalType": "address",
          "name": "_distributor",
          "type": "address"
        },
        {
          "internalType": "address",
          "name": "_retailer",
          "type": "address"
        }
      ],
      "stateMutability": "nonpayable",
      "type": "constructor"
    },
    {
      "inputs": [
        {
          "internalType": "string",
          "name": "message",
          "type": "string"
        }
      ],
      "name": "PriceMismatch",
      "type": "error"
    },
    {
      "inputs": [
        {
          "internalType": "string",
          "name": "message",
          "type": "string"
        }
      ],
      "name": "UnderProcess",
      "type": "error"
    },
    {
      "inputs": [],
      "name": "orderInfo",
      "outputs": [
        {
          "internalType": "address",
          "name": "orderRequestId",
          "type": "address"
        },
        {
          "internalType": "string",
          "name": "productName",
          "type": "string"
        },
        {
          "internalType": "string",
          "name": "productDesc",
          "type": "string"
        },
        {
          "internalType": "string",
          "name": "manufacturerDetail",
          "type": "string"
        },
        {
          "internalType": "address",
          "name": "retailer",
          "type": "address"
        },
        {
          "internalType": "address",
          "name": "distributor",
          "type": "address"
        },
        {
          "internalType": "string",
          "name": "notes",
          "type": "string"
        },
        {
          "internalType": "string",
          "name": "reasonForOrderCancellation",
          "type": "string"
        },
        {
          "internalType": "enum OrderRequest.OrderStatus",
          "name": "orderStatus",
          "type": "uint8"
        },
        {
          "internalType": "uint256",
          "name": "orderModifiedDate",
          "type": "uint256"
        },
        {
          "internalType": "string",
          "name": "remark",
          "type": "string"
        }
      ],
      "stateMutability": "view",
      "type": "function"
    },
    {
      "inputs": [],
      "name": "getOrderRequestStatus",
      "outputs": [
        {
          "internalType": "uint256",
          "name": "",
          "type": "uint256"
        }
      ],
      "stateMutability": "view",
      "type": "function"
    },
    {
      "inputs": [
        {
          "internalType": "string",
          "name": "_reason",
          "type": "string"
        }
      ],
      "name": "reject",
      "outputs": [
        {
          "internalType": "bool",
          "name": "",
          "type": "bool"
        }
      ],
      "stateMutability": "nonpayable",
      "type": "function"
    },
    {
      "inputs": [],
      "name": "accept",
      "outputs": [
        {
          "internalType": "bool",
          "name": "",
          "type": "bool"
        }
      ],
      "stateMutability": "nonpayable",
      "type": "function"
    },
    {
      "inputs": [
        {
          "internalType": "string",
          "name": "_remark",
          "type": "string"
        }
      ],
      "name": "complete",
      "outputs": [
        {
          "internalType": "bool",
          "name": "",
          "type": "bool"
        }
      ],
      "stateMutability": "nonpayable",
      "type": "function"
    }
  ],
  "bytecode": "0x60806040523480156200001157600080fd5b5060405162000d3938038062000d3983398101604081905262000034916200028f565b60008054600160a060020a0319163017905585516200005b906001906020890190620000e6565b50845162000071906002906020880190620000e6565b506008805460ff19169055835162000091906003906020870190620000e6565b508251620000a7906006906020860190620000e6565b5060048054600160a060020a03928316600160a060020a0319918216179091556005805493909216921691909117905550504260095550620003c29050565b828054620000f4906200036c565b90600052602060002090601f01602090048101928262000118576000855562000163565b82601f106200013357805160ff191683800117855562000163565b8280016001018555821562000163579182015b828111156200016357825182559160200191906001019062000146565b506200017192915062000175565b5090565b5b8082111562000171576000815560010162000176565b7f4e487b7100000000000000000000000000000000000000000000000000000000600052604160045260246000fd5b600082601f830112620001cd57600080fd5b81516001604060020a0380821115620001ea57620001ea6200018c565b604051601f8301601f19908116603f011681019082821181831017156200021557620002156200018c565b816040528381526020925086838588010111156200023257600080fd5b600091505b8382101562000256578582018301518183018401529082019062000237565b83821115620002685760008385830101525b9695505050505050565b8051600160a060020a03811681146200028a57600080fd5b919050565b60008060008060008060c08789031215620002a957600080fd5b86516001604060020a0380821115620002c157600080fd5b620002cf8a838b01620001bb565b97506020890151915080821115620002e657600080fd5b620002f48a838b01620001bb565b965060408901519150808211156200030b57600080fd5b620003198a838b01620001bb565b955060608901519150808211156200033057600080fd5b506200033f89828a01620001bb565b935050620003506080880162000272565b91506200036060a0880162000272565b90509295509295509295565b6002810460018216806200038157607f821691505b60208210811415620003bc577f4e487b7100000000000000000000000000000000000000000000000000000000600052602260045260246000fd5b50919050565b61096780620003d26000396000f3fe608060405234801561001057600080fd5b5060043610610073577c01000000000000000000000000000000000000000000000000000000006000350463201c5cc181146100785780632852b71c146100a057806367e552b4146100a8578063ad932b5c146100be578063e958303f146100d1575b600080fd5b61008b6100863660046106c3565b6100f0565b60405190151581526020015b60405180910390f35b61008b610124565b6100b0610137565b604051908152602001610097565b61008b6100cc3660046106c3565b610151565b6100d9610177565b6040516100979b9a999897969594939291906107ff565b60006100fe6001600061052a565b1561011f578151610116906007906020850190610611565b50600192915050565b919050565b60006101326002600061052a565b905090565b60085460009060ff166003811115610132576101326107c1565b600061015f6003600261052a565b1561011f57815161011690600a906020850190610611565b600080546001805473ffffffffffffffffffffffffffffffffffffffff90921692916101a2906108f3565b80601f01602080910402602001604051908101604052809291908181526020018280546101ce906108f3565b801561021b5780601f106101f05761010080835404028352916020019161021b565b820191906000526020600020905b8154815290600101906020018083116101fe57829003601f168201915b505050505090806002018054610230906108f3565b80601f016020809104026020016040519081016040528092919081815260200182805461025c906108f3565b80156102a95780601f1061027e576101008083540402835291602001916102a9565b820191906000526020600020905b81548152906001019060200180831161028c57829003601f168201915b5050505050908060030180546102be906108f3565b80601f01602080910402602001604051908101604052809291908181526020018280546102ea906108f3565b80156103375780601f1061030c57610100808354040283529160200191610337565b820191906000526020600020905b81548152906001019060200180831161031a57829003601f168201915b50505060048401546005850154600686018054959673ffffffffffffffffffffffffffffffffffffffff93841696929093169450919250610377906108f3565b80601f01602080910402602001604051908101604052809291908181526020018280546103a3906108f3565b80156103f05780601f106103c5576101008083540402835291602001916103f0565b820191906000526020600020905b8154815290600101906020018083116103d357829003601f168201915b505050505090806007018054610405906108f3565b80601f0160208091040260200160405190810160405280929190818152602001828054610431906108f3565b801561047e5780601f106104535761010080835404028352916020019161047e565b820191906000526020600020905b81548152906001019060200180831161046157829003601f168201915b5050505060088301546009840154600a85018054949560ff90931694919350906104a7906108f3565b80601f01602080910402602001604051908101604052809291908181526020018280546104d3906108f3565b80156105205780601f106104f557610100808354040283529160200191610520565b820191906000526020600020905b81548152906001019060200180831161050357829003601f168201915b505050505090508b565b600081600381111561053e5761053e6107c1565b600381111561054f5761054f6107c1565b60085460ff166003811115610566576105666107c1565b146105d1576040517fbd0259e600000000000000000000000000000000000000000000000000000000815260206004820152601b60248201527f50524556494f55535f535445505f4e4f545f434f4d504c455445440000000000604482015260640160405180910390fd5b8260038111156105e3576105e36107c1565b6008805460ff191660018360038111156105ff576105ff6107c1565b02179055505042600955600192915050565b82805461061d906108f3565b90600052602060002090601f01602090048101928261063f5760008555610685565b82601f1061065857805160ff1916838001178555610685565b82800160010185558215610685579182015b8281111561068557825182559160200191906001019061066a565b50610691929150610695565b5090565b5b808211156106915760008155600101610696565b60e060020a634e487b7102600052604160045260246000fd5b6000602082840312156106d557600080fd5b813567ffffffffffffffff808211156106ed57600080fd5b818401915084601f83011261070157600080fd5b813581811115610713576107136106aa565b604051601f8201601f19908116603f0116810190838211818310171561073b5761073b6106aa565b8160405282815287602084870101111561075457600080fd5b826020860160208301376000928101602001929092525095945050505050565b6000815180845260005b8181101561079a5760208185018101518683018201520161077e565b818111156107ac576000602083870101525b50601f01601f19169290920160200192915050565b60e060020a634e487b7102600052602160045260246000fd5b600481106107fb5760e060020a634e487b7102600052602160045260246000fd5b9052565b600061016073ffffffffffffffffffffffffffffffffffffffff8e16835280602084015261082f8184018e610774565b90508281036040840152610843818d610774565b90508281036060840152610857818c610774565b73ffffffffffffffffffffffffffffffffffffffff8b166080850152905073ffffffffffffffffffffffffffffffffffffffff891660a084015282810360c08401526108a38189610774565b905082810360e08401526108b78188610774565b90506108c76101008401876107da565b846101208401528281036101408401526108e18185610774565b9e9d5050505050505050505050505050565b60028104600182168061090757607f821691505b6020821081141561092b5760e060020a634e487b7102600052602260045260246000fd5b5091905056fea264697066735822122069a3871062f9e0e1bd995fae62d60e845d8c05fda47783587a59783ef4a1fe4864736f6c634300080b0033",
  "immutableReferences": {},
  "source": "// SPDX-License-Identifier: MIT\r\npragma solidity ^0.8.11;\r\npragma experimental ABIEncoderV2;\r\n\r\ncontract OrderRequest {\r\n    //Enum Status - To hold different order status in Supply chain\r\n    enum OrderStatus {\r\n        submitted,\r\n        rejected,\r\n        accepted,\r\n        completed\r\n    }\r\n\r\n    //Order request info\r\n    struct OrderInfo {\r\n        //Order request id\r\n        address orderRequestId;\r\n        //Product name\r\n        string productName;\r\n        //Product description\r\n        string productDesc;\r\n        //manufacturer detail\r\n        string manufacturerDetail;\r\n        //retailer/requestor address\r\n        address retailer;\r\n        //distributor/vendor address\r\n        address distributor;\r\n        //notes from retailer\r\n        string notes;\r\n        //reason for order cancel\r\n        string reasonForOrderCancellation;\r\n        //order status;\r\n        OrderStatus orderStatus;\r\n        //order date timestamp\r\n        uint256 orderModifiedDate;\r\n        //additional remark from distributor\r\n        string remark;\r\n    }\r\n\r\n    // custom error\r\n    error UnderProcess(string message);\r\n    error PriceMismatch(string message);\r\n\r\n    //Order request details\r\n    OrderInfo public orderInfo;\r\n\r\n    //Create new instance of Product batch by distributor .\r\n    //@param _productName String Name of product\r\n    //@param _productDesc String Desc of product\r\n    //@param _manufacturerName String Manufacturer name\r\n    //@param _retailer Address retailer store address\r\n    constructor(\r\n        string memory _productName,\r\n        string memory _productDesc,\r\n        string memory _manufacturerDetail,\r\n        string memory _notes,\r\n        address _distributor,\r\n        address _retailer\r\n    ) {\r\n        orderInfo.orderRequestId = address(this);\r\n        orderInfo.productName = _productName;\r\n        orderInfo.productDesc = _productDesc;\r\n        orderInfo.orderStatus = OrderStatus(0);\r\n        orderInfo.manufacturerDetail = _manufacturerDetail;\r\n        orderInfo.notes = _notes;\r\n        orderInfo.retailer = _retailer;\r\n        orderInfo.distributor = _distributor;\r\n        orderInfo.orderModifiedDate = block.timestamp;\r\n    }\r\n\r\n    //Get the order request status.\r\n    function getOrderRequestStatus() public view returns (uint256) {\r\n        return uint256(orderInfo.orderStatus);\r\n    }\r\n\r\n    //Reject order received from retailer\r\n    function reject(string memory _reason) public returns (bool) {\r\n        if (updateOrderStatus(1, 0)) {\r\n            orderInfo.reasonForOrderCancellation = _reason;\r\n            return true;\r\n        }\r\n    }\r\n\r\n    //Accept order received from retailer\r\n    function accept() public returns (bool) {\r\n        return updateOrderStatus(2, 0);\r\n    }\r\n\r\n    //Complete order received from retailer\r\n    function complete(string memory _remark) public returns (bool) {\r\n        if (updateOrderStatus(3, 2)) {\r\n            orderInfo.remark = _remark;\r\n            return true;\r\n        }\r\n    }\r\n\r\n    //Generic method to update order status\r\n    function updateOrderStatus(uint256 _updatedStatus, uint256 _prevStatus)\r\n        private\r\n        returns (bool)\r\n    {\r\n        if (orderInfo.orderStatus != OrderStatus(_prevStatus)) {\r\n            revert UnderProcess(\"PREVIOUS_STEP_NOT_COMPLETED\");\r\n        } else {\r\n            orderInfo.orderStatus = OrderStatus(_updatedStatus);\r\n            orderInfo.orderModifiedDate = block.timestamp;\r\n            return true;\r\n        }\r\n    }\r\n}\r\n",
  "sourcePath": "C:\\Development\\Blockchain\\AAP-Blockchain\\aap_supplychainpoc_blockchain\\contracts\\OrderRequest.sol",
  "compiler": {
    "name": "solc",
    "version": "0.8.11+commit.d7f03943.Emscripten.clang"
  },
  "schemaVersion": "3.4.4",
  "updatedAt": "2022-01-29T18:01:29.959Z",
  "devdoc": {
    "kind": "dev",
    "methods": {},
    "version": 1
  },
  "userdoc": {
    "kind": "user",
    "methods": {},
    "version": 1
  }
}