{
  "contractName": "Order",
  "abi": [
    {
      "inputs": [
        {
          "internalType": "address",
          "name": "_userAddress",
          "type": "address"
        }
      ],
      "stateMutability": "nonpayable",
      "type": "constructor"
    },
    {
      "anonymous": false,
      "inputs": [
        {
          "indexed": true,
          "internalType": "address",
          "name": "orderRequestId",
          "type": "address"
        },
        {
          "indexed": false,
          "internalType": "uint256",
          "name": "status",
          "type": "uint256"
        }
      ],
      "name": "OrderRequestEvt",
      "type": "event"
    },
    {
      "inputs": [
        {
          "internalType": "string",
          "name": "_productName",
          "type": "string"
        },
        {
          "internalType": "string",
          "name": "_productDesc",
          "type": "string"
        },
        {
          "internalType": "string",
          "name": "_manufacturerDetail",
          "type": "string"
        },
        {
          "internalType": "uint256",
          "name": "_quantity",
          "type": "uint256"
        },
        {
          "internalType": "string",
          "name": "_notes",
          "type": "string"
        },
        {
          "internalType": "address",
          "name": "_distributor",
          "type": "address"
        }
      ],
      "name": "submitOrder",
      "outputs": [],
      "stateMutability": "nonpayable",
      "type": "function"
    },
    {
      "inputs": [
        {
          "internalType": "address",
          "name": "_orderRequestId",
          "type": "address"
        },
        {
          "internalType": "string",
          "name": "_reason",
          "type": "string"
        },
        {
          "internalType": "bool",
          "name": "isApprove",
          "type": "bool"
        }
      ],
      "name": "updateOrder",
      "outputs": [],
      "stateMutability": "nonpayable",
      "type": "function"
    },
    {
      "inputs": [
        {
          "internalType": "address",
          "name": "_retailer",
          "type": "address"
        }
      ],
      "name": "getRetailerSubmittedOrders",
      "outputs": [
        {
          "internalType": "address[]",
          "name": "",
          "type": "address[]"
        }
      ],
      "stateMutability": "view",
      "type": "function",
      "constant": true
    },
    {
      "inputs": [
        {
          "internalType": "address",
          "name": "_distributor",
          "type": "address"
        }
      ],
      "name": "getDistributorAssignedOrders",
      "outputs": [
        {
          "internalType": "address[]",
          "name": "",
          "type": "address[]"
        }
      ],
      "stateMutability": "view",
      "type": "function",
      "constant": true
    },
    {
      "inputs": [
        {
          "internalType": "address",
          "name": "_retailer",
          "type": "address"
        }
      ],
      "name": "getRetailerSubmittedOrderCount",
      "outputs": [
        {
          "internalType": "uint256",
          "name": "",
          "type": "uint256"
        }
      ],
      "stateMutability": "view",
      "type": "function",
      "constant": true
    },
    {
      "inputs": [
        {
          "internalType": "address",
          "name": "_distributor",
          "type": "address"
        }
      ],
      "name": "getDistributorAssignedOrderCount",
      "outputs": [
        {
          "internalType": "uint256",
          "name": "",
          "type": "uint256"
        }
      ],
      "stateMutability": "view",
      "type": "function",
      "constant": true
    },
    {
      "inputs": [
        {
          "internalType": "address",
          "name": "_orderRequestId",
          "type": "address"
        }
      ],
      "name": "getOrderDetails",
      "outputs": [
        {
          "components": [
            {
              "internalType": "address",
              "name": "orderRequestId",
              "type": "address"
            },
            {
              "internalType": "string",
              "name": "productName",
              "type": "string"
            },
            {
              "internalType": "string",
              "name": "productDesc",
              "type": "string"
            },
            {
              "internalType": "string",
              "name": "manufacturerDetail",
              "type": "string"
            },
            {
              "internalType": "uint256",
              "name": "quantity",
              "type": "uint256"
            },
            {
              "internalType": "address",
              "name": "retailer",
              "type": "address"
            },
            {
              "internalType": "address",
              "name": "distributor",
              "type": "address"
            },
            {
              "internalType": "string",
              "name": "notes",
              "type": "string"
            },
            {
              "internalType": "string",
              "name": "reasonForOrderCancellation",
              "type": "string"
            },
            {
              "internalType": "enum OrderStatus",
              "name": "orderStatus",
              "type": "uint8"
            },
            {
              "internalType": "uint256",
              "name": "orderModifiedDate",
              "type": "uint256"
            },
            {
              "internalType": "string",
              "name": "remark",
              "type": "string"
            },
            {
              "internalType": "uint256",
              "name": "submissionTimestamp",
              "type": "uint256"
            }
          ],
          "internalType": "struct OrderInfo",
          "name": "",
          "type": "tuple"
        }
      ],
      "stateMutability": "view",
      "type": "function",
      "constant": true
    }
  ],
  "bytecode": "0x608060405234801561001057600080fd5b5060405161251838038061251883398101604081905261002f91610054565b60008054600160a060020a031916600160a060020a0392909216919091179055610084565b60006020828403121561006657600080fd5b8151600160a060020a038116811461007d57600080fd5b9392505050565b612485806100936000396000f3fe60806040523480156200001157600080fd5b50600436106200008b5760003560e060020a900480639495536c11620000665780639495536c14620001205780639c56806b1462000137578063ca0f415c1462000150578063e9feac45146200016757600080fd5b80636e233d31146200009057806374ba198e14620000bf5780638ab33c8a14620000e5575b600080fd5b620000a7620000a1366004620008b5565b62000193565b604051620000b69190620009a8565b60405180910390f35b620000d6620000d0366004620008b5565b6200020f565b604051620000b6919062000afd565b62000111620000f6366004620008b5565b600160a060020a031660009081526001602052604090205490565b604051908152602001620000b6565b620000d662000131366004620008b5565b62000287565b6200014e6200014836600462000c63565b620002fd565b005b6200014e6200016136600462000d47565b62000568565b6200011162000178366004620008b5565b600160a060020a031660009081526002602052604090205490565b6200019d620007e5565b81600160a060020a031663534206ad6040518163ffffffff1660e060020a028152600401600060405180830381865afa158015620001df573d6000803e3d6000fd5b505050506040513d6000823e601f3d908101601f1916820160405262000209919081019062000e24565b92915050565b600160a060020a0381166000908152600160209081526040918290208054835181840281018401909452808452606093928301828280156200027b57602002820191906000526020600020905b8154600160a060020a031681526001909101906020018083116200025c575b50505050509050919050565b600160a060020a0381166000908152600260209081526040918290208054835181840281018401909452808452606093928301828280156200027b57602002820191906000526020600020908154600160a060020a031681526001909101906020018083116200025c5750505050509050919050565b6000546040517f27820851000000000000000000000000000000000000000000000000000000008152336004820152600160a060020a0390911690632782085190602401602060405180830381865afa1580156200035f573d6000803e3d6000fd5b505050506040513d601f19601f8201168201806040525081019062000385919062000fd2565b600314620003fb576040517f08c379a0000000000000000000000000000000000000000000000000000000008152600401620003f29060208082526004908201527f4f52434300000000000000000000000000000000000000000000000000000000604082015260600190565b60405180910390fd5b60008686868686863360405162000412906200087c565b62000424979695949392919062000fec565b604051809103906000f08015801562000441573d6000803e3d6000fd5b5033600090815260016020818152604080842080548085018255908552828520018054600160a060020a0380881673ffffffffffffffffffffffffffffffffffffffff1992831681179093558916865260028452828620805495860181558652948390209093018054909416831790935582517f67e552b4000000000000000000000000000000000000000000000000000000008152925193945090927fd121d3864b3161c4fc493f93b770fb5f02689caea75621ad990b9b60e1eda58c9284926367e552b4926004808401938290030181865afa15801562000528573d6000803e3d6000fd5b505050506040513d601f19601f820116820180604052508101906200054e919062000fd2565b60405190815260200160405180910390a250505050505050565b6000546040517f27820851000000000000000000000000000000000000000000000000000000008152336004820152600160a060020a0390911690632782085190602401602060405180830381865afa158015620005ca573d6000803e3d6000fd5b505050506040513d601f19601f82011682018060405250810190620005f0919062000fd2565b6002146200065d576040517f08c379a0000000000000000000000000000000000000000000000000000000008152600401620003f29060208082526004908201527f4f44434300000000000000000000000000000000000000000000000000000000604082015260600190565b80156200077e5782600160a060020a0316632852b71c6040518163ffffffff1660e060020a0281526004016020604051808303816000875af1158015620006a8573d6000803e3d6000fd5b505050506040513d601f19601f82011682018060405250810190620006ce91906200106f565b15620007795782600160a060020a03167fd121d3864b3161c4fc493f93b770fb5f02689caea75621ad990b9b60e1eda58c84600160a060020a03166367e552b46040518163ffffffff1660e060020a028152600401602060405180830381865afa15801562000741573d6000803e3d6000fd5b505050506040513d601f19601f8201168201806040525081019062000767919062000fd2565b60405190815260200160405180910390a25b505050565b6040517f201c5cc1000000000000000000000000000000000000000000000000000000008152600160a060020a0384169063201c5cc190620007c59085906004016200108f565b6020604051808303816000875af1158015620006a8573d6000803e3d6000fd5b604051806101a001604052806000600160a060020a03168152602001606081526020016060815260200160608152602001600081526020016000600160a060020a031681526020016000600160a060020a031681526020016060815260200160608152602001600060058111156200086157620008616200093d565b81526020016000815260200160608152602001600081525090565b6113ab80620010a583390190565b600160a060020a0381168114620008a057600080fd5b50565b8035620008b0816200088a565b919050565b600060208284031215620008c857600080fd5b8135620008d5816200088a565b9392505050565b60005b83811015620008f9578181015183820152602001620008df565b8381111562000909576000848401525b50505050565b6000815180845262000929816020860160208601620008dc565b601f01601f19169290920160200192915050565b7f4e487b7100000000000000000000000000000000000000000000000000000000600052602160045260246000fd5b60068110620009a4577f4e487b7100000000000000000000000000000000000000000000000000000000600052602160045260246000fd5b9052565b60208152620009c3602082018351600160a060020a03169052565b600060208301516101a0806040850152620009e36101c08501836200090f565b91506040850151601f198086850301606087015262000a0384836200090f565b9350606087015191508086850301608087015262000a2284836200090f565b9350608087015160a087015260a0870151915062000a4b60c0870183600160a060020a03169052565b60c0870151600160a060020a03811660e0880152915060e0870151915061010081878603018188015262000a8085846200090f565b94508088015192505061012081878603018188015262000aa185846200090f565b94508088015192505061014062000abb818801846200096c565b8088015192505061016082818801528088015192505061018081878603018188015262000ae985846200090f565b970151959092019490945250929392505050565b6020808252825182820181905260009190848201906040850190845b8181101562000b40578351600160a060020a03168352928401929184019160010162000b19565b50909695505050505050565b7f4e487b7100000000000000000000000000000000000000000000000000000000600052604160045260246000fd5b6040516101a0810167ffffffffffffffff8111828210171562000ba25762000ba262000b4c565b60405290565b604051601f8201601f1916810167ffffffffffffffff8111828210171562000bd45762000bd462000b4c565b604052919050565b600067ffffffffffffffff82111562000bf95762000bf962000b4c565b50601f01601f191660200190565b600082601f83011262000c1957600080fd5b813562000c3062000c2a8262000bdc565b62000ba8565b81815284602083860101111562000c4657600080fd5b816020850160208301376000918101602001919091529392505050565b60008060008060008060c0878903121562000c7d57600080fd5b863567ffffffffffffffff8082111562000c9657600080fd5b62000ca48a838b0162000c07565b9750602089013591508082111562000cbb57600080fd5b62000cc98a838b0162000c07565b9650604089013591508082111562000ce057600080fd5b62000cee8a838b0162000c07565b955060608901359450608089013591508082111562000d0c57600080fd5b5062000d1b89828a0162000c07565b92505062000d2c60a08801620008a3565b90509295509295509295565b8015158114620008a057600080fd5b60008060006060848603121562000d5d57600080fd5b833562000d6a816200088a565b9250602084013567ffffffffffffffff81111562000d8757600080fd5b62000d958682870162000c07565b925050604084013562000da88162000d38565b809150509250925092565b8051620008b0816200088a565b600082601f83011262000dd257600080fd5b815162000de362000c2a8262000bdc565b81815284602083860101111562000df957600080fd5b62000e0c826020830160208701620008dc565b949350505050565b805160068110620008b057600080fd5b60006020828403121562000e3757600080fd5b815167ffffffffffffffff8082111562000e5057600080fd5b908301906101a0828603121562000e6657600080fd5b62000e7062000b7b565b62000e7b8362000db3565b815260208301518281111562000e9057600080fd5b62000e9e8782860162000dc0565b60208301525060408301518281111562000eb757600080fd5b62000ec58782860162000dc0565b60408301525060608301518281111562000ede57600080fd5b62000eec8782860162000dc0565b6060830152506080830151608082015262000f0a60a0840162000db3565b60a082015262000f1d60c0840162000db3565b60c082015260e08301518281111562000f3557600080fd5b62000f438782860162000dc0565b60e083015250610100808401518381111562000f5e57600080fd5b62000f6c8882870162000dc0565b82840152505061012062000f8281850162000e14565b908201526101408381015190820152610160808401518381111562000fa657600080fd5b62000fb48882870162000dc0565b91830191909152506101809283015192810192909252509392505050565b60006020828403121562000fe557600080fd5b5051919050565b60e0815260006200100160e083018a6200090f565b828103602084015262001015818a6200090f565b905082810360408401526200102b81896200090f565b905086606084015282810360808401526200104781876200090f565b915050600160a060020a0380851660a084015280841660c08401525098975050505050505050565b6000602082840312156200108257600080fd5b8151620008d58162000d38565b602081526000620008d560208301846200090f56fe60806040523480156200001157600080fd5b50604051620013ab380380620013ab83398101604081905262000034916200029a565b60018054600160a060020a0319163017905586516200005b9060029060208a0190620000f1565b50855162000071906003906020890190620000f1565b50600a805460ff19169055845162000091906004906020880190620000f1565b5060058490558251620000ac906008906020860190620000f1565b5060068054600160a060020a03928316600160a060020a03199182161790915560078054939092169216919091179055505042600d819055600b5550620003d8915050565b828054620000ff9062000382565b90600052602060002090601f0160209004810192826200012357600085556200016e565b82601f106200013e57805160ff19168380011785556200016e565b828001600101855582156200016e579182015b828111156200016e57825182559160200191906001019062000151565b506200017c92915062000180565b5090565b5b808211156200017c576000815560010162000181565b7f4e487b7100000000000000000000000000000000000000000000000000000000600052604160045260246000fd5b600082601f830112620001d857600080fd5b81516001604060020a0380821115620001f557620001f562000197565b604051601f8301601f19908116603f0116810190828211818310171562000220576200022062000197565b816040528381526020925086838588010111156200023d57600080fd5b600091505b8382101562000261578582018301518183018401529082019062000242565b83821115620002735760008385830101525b9695505050505050565b8051600160a060020a03811681146200029557600080fd5b919050565b600080600080600080600060e0888a031215620002b657600080fd5b87516001604060020a0380821115620002ce57600080fd5b620002dc8b838c01620001c6565b985060208a0151915080821115620002f357600080fd5b620003018b838c01620001c6565b975060408a01519150808211156200031857600080fd5b620003268b838c01620001c6565b965060608a0151955060808a01519150808211156200034457600080fd5b50620003538a828b01620001c6565b9350506200036460a089016200027d565b91506200037460c089016200027d565b905092959891949750929550565b6002810460018216806200039757607f821691505b60208210811415620003d2577f4e487b7100000000000000000000000000000000000000000000000000000000600052602260045260246000fd5b50919050565b610fc380620003e86000396000f3fe608060405234801561001057600080fd5b50600436106100bb576000357c010000000000000000000000000000000000000000000000000000000090048063534206ad11610083578063534206ad1461012457806367e552b4146101395780639989bdf114610141578063d1be9bfe14610149578063e958303f1461015157600080fd5b806302f5ab14146100c0578063200d2ed2146100d7578063201c5cc1146100f15780632852b71c14610114578063522e11771461011c575b600080fd5b600d545b6040519081526020015b60405180910390f35b6000546100e49060ff1681565b6040516100ce9190610c02565b6101046100ff366004610c29565b610172565b60405190151581526020016100ce565b6101046101a6565b6101046101b9565b61012c6101d5565b6040516100ce9190610d27565b6100c46105e1565b6101046105fb565b600b546100c4565b610159610609565b6040516100ce9d9c9b9a99989796959493929190610e6c565b6000610180600160006109ad565b156101a1578151610198906009906020850190610a97565b50600192915050565b919050565b60006101b4600260006109ad565b905090565b60006101c7600460036109ad565b156101d25750600190565b90565b6101dd610b1b565b604080516101a0810190915260018054600160a060020a031682526002805460208401919061020b90610f4f565b80601f016020809104026020016040519081016040528092919081815260200182805461023790610f4f565b80156102845780601f1061025957610100808354040283529160200191610284565b820191906000526020600020905b81548152906001019060200180831161026757829003601f168201915b5050505050815260200160028201805461029d90610f4f565b80601f01602080910402602001604051908101604052809291908181526020018280546102c990610f4f565b80156103165780601f106102eb57610100808354040283529160200191610316565b820191906000526020600020905b8154815290600101906020018083116102f957829003601f168201915b5050505050815260200160038201805461032f90610f4f565b80601f016020809104026020016040519081016040528092919081815260200182805461035b90610f4f565b80156103a85780601f1061037d576101008083540402835291602001916103a8565b820191906000526020600020905b81548152906001019060200180831161038b57829003601f168201915b5050509183525050600482015460208201526005820154600160a060020a03908116604083015260068301541660608201526007820180546080909201916103ef90610f4f565b80601f016020809104026020016040519081016040528092919081815260200182805461041b90610f4f565b80156104685780601f1061043d57610100808354040283529160200191610468565b820191906000526020600020905b81548152906001019060200180831161044b57829003601f168201915b5050505050815260200160088201805461048190610f4f565b80601f01602080910402602001604051908101604052809291908181526020018280546104ad90610f4f565b80156104fa5780601f106104cf576101008083540402835291602001916104fa565b820191906000526020600020905b8154815290600101906020018083116104dd57829003601f168201915b5050509183525050600982015460209091019060ff16600581111561052157610521610bc4565b600581111561053257610532610bc4565b8152602001600a8201548152602001600b8201805461055090610f4f565b80601f016020809104026020016040519081016040528092919081815260200182805461057c90610f4f565b80156105c95780601f1061059e576101008083540402835291602001916105c9565b820191906000526020600020905b8154815290600101906020018083116105ac57829003601f168201915b50505050508152602001600c82015481525050905090565b600a5460009060ff1660058111156101b4576101b4610bc4565b60006101b4600360026109ad565b6001805460028054600160a060020a03909216929161062790610f4f565b80601f016020809104026020016040519081016040528092919081815260200182805461065390610f4f565b80156106a05780601f10610675576101008083540402835291602001916106a0565b820191906000526020600020905b81548152906001019060200180831161068357829003601f168201915b5050505050908060020180546106b590610f4f565b80601f01602080910402602001604051908101604052809291908181526020018280546106e190610f4f565b801561072e5780601f106107035761010080835404028352916020019161072e565b820191906000526020600020905b81548152906001019060200180831161071157829003601f168201915b50505050509080600301805461074390610f4f565b80601f016020809104026020016040519081016040528092919081815260200182805461076f90610f4f565b80156107bc5780601f10610791576101008083540402835291602001916107bc565b820191906000526020600020905b81548152906001019060200180831161079f57829003601f168201915b50505060048401546005850154600686015460078701805496979396600160a060020a0393841696509190921693506107f490610f4f565b80601f016020809104026020016040519081016040528092919081815260200182805461082090610f4f565b801561086d5780601f106108425761010080835404028352916020019161086d565b820191906000526020600020905b81548152906001019060200180831161085057829003601f168201915b50505050509080600801805461088290610f4f565b80601f01602080910402602001604051908101604052809291908181526020018280546108ae90610f4f565b80156108fb5780601f106108d0576101008083540402835291602001916108fb565b820191906000526020600020905b8154815290600101906020018083116108de57829003601f168201915b505050506009830154600a840154600b85018054949560ff909316949193509061092490610f4f565b80601f016020809104026020016040519081016040528092919081815260200182805461095090610f4f565b801561099d5780601f106109725761010080835404028352916020019161099d565b820191906000526020600020905b81548152906001019060200180831161098057829003601f168201915b50505050509080600c015490508d565b60008160058111156109c1576109c1610bc4565b60058111156109d2576109d2610bc4565b600a5460ff1660058111156109e9576109e9610bc4565b1415610a2b57826005811115610a0157610a01610bc4565b600a805460ff19166001836005811115610a1d57610a1d610bc4565b021790555060019050610a91565b6040517f08c379a000000000000000000000000000000000000000000000000000000000815260206004820152600a60248201527f494e5f50524f4345535300000000000000000000000000000000000000000000604482015260640160405180910390fd5b92915050565b828054610aa390610f4f565b90600052602060002090601f016020900481019282610ac55760008555610b0b565b82601f10610ade57805160ff1916838001178555610b0b565b82800160010185558215610b0b579182015b82811115610b0b578251825591602001919060010190610af0565b50610b17929150610baf565b5090565b604051806101a001604052806000600160a060020a03168152602001606081526020016060815260200160608152602001600081526020016000600160a060020a031681526020016000600160a060020a03168152602001606081526020016060815260200160006005811115610b9457610b94610bc4565b81526020016000815260200160608152602001600081525090565b5b80821115610b175760008155600101610bb0565b60e060020a634e487b7102600052602160045260246000fd5b60068110610bfe5760e060020a634e487b7102600052602160045260246000fd5b9052565b60208101610a918284610bdd565b60e060020a634e487b7102600052604160045260246000fd5b600060208284031215610c3b57600080fd5b813567ffffffffffffffff80821115610c5357600080fd5b818401915084601f830112610c6757600080fd5b813581811115610c7957610c79610c10565b604051601f8201601f19908116603f01168101908382118183101715610ca157610ca1610c10565b81604052828152876020848701011115610cba57600080fd5b826020860160208301376000928101602001929092525095945050505050565b6000815180845260005b81811015610d0057602081850181015186830182015201610ce4565b81811115610d12576000602083870101525b50601f01601f19169290920160200192915050565b60208152610d41602082018351600160a060020a03169052565b600060208301516101a0806040850152610d5f6101c0850183610cda565b91506040850151601f1980868503016060870152610d7d8483610cda565b93506060870151915080868503016080870152610d9a8483610cda565b9350608087015160a087015260a08701519150610dc260c0870183600160a060020a03169052565b60c0870151600160a060020a03811660e0880152915060e08701519150610100818786030181880152610df58584610cda565b945080880151925050610120818786030181880152610e148584610cda565b945080880151925050610140610e2c81880184610bdd565b80880151925050610160828188015280880151925050610180818786030181880152610e588584610cda565b970151959092019490945250929392505050565b600160a060020a038e1681526101a060208201526000610e906101a083018f610cda565b8281036040840152610ea2818f610cda565b90508281036060840152610eb6818e610cda565b90508b6080840152610ed360a084018c600160a060020a03169052565b600160a060020a038a1660c084015282810360e0840152610ef4818a610cda565b9050828103610100840152610f098189610cda565b9050610f19610120840188610bdd565b85610140840152828103610160840152610f338186610cda565b915050826101808301529e9d5050505050505050505050505050565b600281046001821680610f6357607f821691505b60208210811415610f875760e060020a634e487b7102600052602260045260246000fd5b5091905056fea2646970667358221220fafe03e5149ab62e9179af2a60df38e3cec4a9a8360dc0d079d67f47e12939aa64736f6c634300080b0033a264697066735822122015daa44ddce001524dcf9f72ae4db6bffbe07b7125367294f016751f376eef2d64736f6c634300080b0033",
  "immutableReferences": {},
  "source": "// SPDX-License-Identifier: MIT\r\npragma solidity ^0.8.11;\r\npragma experimental ABIEncoderV2;\r\n\r\nimport \"./User.sol\";\r\nimport \"./OrderRequestInfo.sol\";\r\nimport \"./OrderInfo.sol\";\r\n\r\ncontract Order {\r\n    User user;\r\n\r\n    constructor(address _userAddress) {\r\n        user = User(_userAddress);\r\n    }\r\n\r\n    modifier onlyDistributor() {\r\n        require(user.getUserRole(msg.sender) == 2, \"ODCC\");\r\n        _;\r\n    }\r\n\r\n    modifier onlyRetailer() {\r\n        require(user.getUserRole(msg.sender) == 3, \"ORCC\");\r\n        _;\r\n    }\r\n\r\n    //Hold all the orders submitted by Retailer\r\n    mapping(address => address[]) RetailerOrderRequests;\r\n    //Hold all the orders assigned to distributor\r\n    mapping(address => address[]) DistributorOrderRequests;\r\n\r\n    //Event to capture & dispatch order request details\r\n    event OrderRequestEvt(address indexed orderRequestId, uint256 status);\r\n\r\n    //Method will submit product request order by retailer to distributor.\r\n    //@param _productName String Name of product\r\n    //@param _productDesc String Desc of product\r\n    //@param _manufacturerDetail String Manufacturer detail\r\n    //@param _notes String notes\r\n    //@param _distributor Address Distributor address\r\n    //@param _retailer Address retailer store address\r\n    function submitOrder(\r\n        string memory _productName,\r\n        string memory _productDesc,\r\n        string memory _manufacturerDetail,\r\n        uint256 _quantity,\r\n        string memory _notes,\r\n        address _distributor\r\n    ) public onlyRetailer {\r\n        OrderRequestInfo orderRequest = new OrderRequestInfo(\r\n            _productName,\r\n            _productDesc,\r\n            _manufacturerDetail,\r\n            _quantity,\r\n            _notes,\r\n            _distributor,\r\n            msg.sender\r\n        );\r\n        RetailerOrderRequests[msg.sender].push(address(orderRequest));\r\n        DistributorOrderRequests[_distributor].push(address(orderRequest));\r\n        //dispatching event\r\n        emit OrderRequestEvt(\r\n            address(orderRequest),\r\n            OrderRequestInfo(address(orderRequest)).getOrderRequestStatus()\r\n        );\r\n    }\r\n\r\n    //Reject/Approve order received from retailer\r\n    function updateOrder(\r\n        address _orderRequestId,\r\n        string memory _reason,\r\n        bool isApprove\r\n    ) public onlyDistributor {\r\n        if (isApprove) {\r\n            if (OrderRequestInfo(address(_orderRequestId)).accept()) {\r\n                //dispatching event\r\n                emit OrderRequestEvt(\r\n                    _orderRequestId,\r\n                    OrderRequestInfo(_orderRequestId).getOrderRequestStatus()\r\n                );\r\n            }\r\n        } else {\r\n            if (OrderRequestInfo(address(_orderRequestId)).reject(_reason)) {\r\n                //dispatching event\r\n                emit OrderRequestEvt(\r\n                    _orderRequestId,\r\n                    OrderRequestInfo(_orderRequestId).getOrderRequestStatus()\r\n                );\r\n            }\r\n        }\r\n    }\r\n\r\n    //Get list of retailer submitted orders\r\n    function getRetailerSubmittedOrders(address _retailer)\r\n        public\r\n        view\r\n        returns (address[] memory)\r\n    {\r\n        return RetailerOrderRequests[_retailer];\r\n    }\r\n\r\n    //Get list of distributor assigned orders\r\n    function getDistributorAssignedOrders(address _distributor)\r\n        public\r\n        view\r\n        returns (address[] memory)\r\n    {\r\n        return DistributorOrderRequests[_distributor];\r\n    }\r\n\r\n    //Get retailer submitted orders count\r\n    function getRetailerSubmittedOrderCount(address _retailer)\r\n        public\r\n        view\r\n        returns (uint256)\r\n    {\r\n        return RetailerOrderRequests[_retailer].length;\r\n    }\r\n\r\n    //Get distributor assigned orders count\r\n    function getDistributorAssignedOrderCount(address _distributor)\r\n        public\r\n        view\r\n        returns (uint256)\r\n    {\r\n        return DistributorOrderRequests[_distributor].length;\r\n    }\r\n\r\n    //Retrieve order details\r\n    //@param _orderRequestId Address order Id\r\n    function getOrderDetails(address _orderRequestId)\r\n        public\r\n        view\r\n        returns (OrderInfo memory)\r\n    {\r\n        return OrderRequestInfo(_orderRequestId).getOrderRequestInfo();\r\n    }\r\n}\r\n",
  "sourcePath": "C:\\Development\\Blockchain\\AAP-Blockchain\\aap_blockchainpoc_updated_version\\aap_supplychainpoc_blockchain\\contracts\\Order.sol",
  "compiler": {
    "name": "solc",
    "version": "0.8.11+commit.d7f03943.Emscripten.clang"
  },
  "schemaVersion": "3.4.4",
  "updatedAt": "2022-02-15T09:06:17.538Z",
  "networkType": "ethereum",
  "devdoc": {
    "kind": "dev",
    "methods": {},
    "version": 1
  },
  "userdoc": {
    "kind": "user",
    "methods": {},
    "version": 1
  }
}