{
  "contractName": "OrderRequestInfo",
  "abi": [
    {
      "inputs": [
        {
          "internalType": "string",
          "name": "_productName",
          "type": "string"
        },
        {
          "internalType": "string",
          "name": "_productDesc",
          "type": "string"
        },
        {
          "internalType": "string",
          "name": "_manufacturerDetail",
          "type": "string"
        },
        {
          "internalType": "uint256",
          "name": "_quantity",
          "type": "uint256"
        },
        {
          "internalType": "string",
          "name": "_notes",
          "type": "string"
        },
        {
          "internalType": "address",
          "name": "_distributor",
          "type": "address"
        },
        {
          "internalType": "address",
          "name": "_retailer",
          "type": "address"
        }
      ],
      "stateMutability": "nonpayable",
      "type": "constructor"
    },
    {
      "inputs": [
        {
          "internalType": "string",
          "name": "message",
          "type": "string"
        }
      ],
      "name": "PriceMismatch",
      "type": "error"
    },
    {
      "inputs": [
        {
          "internalType": "string",
          "name": "message",
          "type": "string"
        }
      ],
      "name": "UnderProcess",
      "type": "error"
    },
    {
      "inputs": [],
      "name": "orderInfo",
      "outputs": [
        {
          "internalType": "address",
          "name": "orderRequestId",
          "type": "address"
        },
        {
          "internalType": "string",
          "name": "productName",
          "type": "string"
        },
        {
          "internalType": "string",
          "name": "productDesc",
          "type": "string"
        },
        {
          "internalType": "string",
          "name": "manufacturerDetail",
          "type": "string"
        },
        {
          "internalType": "uint256",
          "name": "quantity",
          "type": "uint256"
        },
        {
          "internalType": "address",
          "name": "retailer",
          "type": "address"
        },
        {
          "internalType": "address",
          "name": "distributor",
          "type": "address"
        },
        {
          "internalType": "string",
          "name": "notes",
          "type": "string"
        },
        {
          "internalType": "string",
          "name": "reasonForOrderCancellation",
          "type": "string"
        },
        {
          "internalType": "enum OrderStatus",
          "name": "orderStatus",
          "type": "uint8"
        },
        {
          "internalType": "uint256",
          "name": "orderModifiedDate",
          "type": "uint256"
        },
        {
          "internalType": "string",
          "name": "remark",
          "type": "string"
        },
        {
          "internalType": "uint256",
          "name": "submissionTimestamp",
          "type": "uint256"
        }
      ],
      "stateMutability": "view",
      "type": "function"
    },
    {
      "inputs": [],
      "name": "status",
      "outputs": [
        {
          "internalType": "enum OrderStatus",
          "name": "",
          "type": "uint8"
        }
      ],
      "stateMutability": "view",
      "type": "function"
    },
    {
      "inputs": [],
      "name": "getOrderRequestInfo",
      "outputs": [
        {
          "components": [
            {
              "internalType": "address",
              "name": "orderRequestId",
              "type": "address"
            },
            {
              "internalType": "string",
              "name": "productName",
              "type": "string"
            },
            {
              "internalType": "string",
              "name": "productDesc",
              "type": "string"
            },
            {
              "internalType": "string",
              "name": "manufacturerDetail",
              "type": "string"
            },
            {
              "internalType": "uint256",
              "name": "quantity",
              "type": "uint256"
            },
            {
              "internalType": "address",
              "name": "retailer",
              "type": "address"
            },
            {
              "internalType": "address",
              "name": "distributor",
              "type": "address"
            },
            {
              "internalType": "string",
              "name": "notes",
              "type": "string"
            },
            {
              "internalType": "string",
              "name": "reasonForOrderCancellation",
              "type": "string"
            },
            {
              "internalType": "enum OrderStatus",
              "name": "orderStatus",
              "type": "uint8"
            },
            {
              "internalType": "uint256",
              "name": "orderModifiedDate",
              "type": "uint256"
            },
            {
              "internalType": "string",
              "name": "remark",
              "type": "string"
            },
            {
              "internalType": "uint256",
              "name": "submissionTimestamp",
              "type": "uint256"
            }
          ],
          "internalType": "struct OrderInfo",
          "name": "",
          "type": "tuple"
        }
      ],
      "stateMutability": "view",
      "type": "function"
    },
    {
      "inputs": [],
      "name": "getOrderSubmissionTimestamp",
      "outputs": [
        {
          "internalType": "uint256",
          "name": "",
          "type": "uint256"
        }
      ],
      "stateMutability": "view",
      "type": "function"
    },
    {
      "inputs": [],
      "name": "getOrderModifiedDate",
      "outputs": [
        {
          "internalType": "uint256",
          "name": "",
          "type": "uint256"
        }
      ],
      "stateMutability": "view",
      "type": "function"
    },
    {
      "inputs": [],
      "name": "getOrderRequestStatus",
      "outputs": [
        {
          "internalType": "uint256",
          "name": "",
          "type": "uint256"
        }
      ],
      "stateMutability": "view",
      "type": "function"
    },
    {
      "inputs": [
        {
          "internalType": "string",
          "name": "_reason",
          "type": "string"
        }
      ],
      "name": "reject",
      "outputs": [
        {
          "internalType": "bool",
          "name": "flag",
          "type": "bool"
        }
      ],
      "stateMutability": "nonpayable",
      "type": "function"
    },
    {
      "inputs": [],
      "name": "accept",
      "outputs": [
        {
          "internalType": "bool",
          "name": "flag",
          "type": "bool"
        }
      ],
      "stateMutability": "nonpayable",
      "type": "function"
    },
    {
      "inputs": [],
      "name": "inProcess",
      "outputs": [
        {
          "internalType": "bool",
          "name": "flag",
          "type": "bool"
        }
      ],
      "stateMutability": "nonpayable",
      "type": "function"
    },
    {
      "inputs": [],
      "name": "complete",
      "outputs": [
        {
          "internalType": "bool",
          "name": "flag",
          "type": "bool"
        }
      ],
      "stateMutability": "nonpayable",
      "type": "function"
    }
  ],
  "bytecode": "0x60806040523480156200001157600080fd5b50604051620013ab380380620013ab83398101604081905262000034916200029a565b60018054600160a060020a0319163017905586516200005b9060029060208a0190620000f1565b50855162000071906003906020890190620000f1565b50600a805460ff19169055845162000091906004906020880190620000f1565b5060058490558251620000ac906008906020860190620000f1565b5060068054600160a060020a03928316600160a060020a03199182161790915560078054939092169216919091179055505042600d819055600b5550620003d8915050565b828054620000ff9062000382565b90600052602060002090601f0160209004810192826200012357600085556200016e565b82601f106200013e57805160ff19168380011785556200016e565b828001600101855582156200016e579182015b828111156200016e57825182559160200191906001019062000151565b506200017c92915062000180565b5090565b5b808211156200017c576000815560010162000181565b7f4e487b7100000000000000000000000000000000000000000000000000000000600052604160045260246000fd5b600082601f830112620001d857600080fd5b81516001604060020a0380821115620001f557620001f562000197565b604051601f8301601f19908116603f0116810190828211818310171562000220576200022062000197565b816040528381526020925086838588010111156200023d57600080fd5b600091505b8382101562000261578582018301518183018401529082019062000242565b83821115620002735760008385830101525b9695505050505050565b8051600160a060020a03811681146200029557600080fd5b919050565b600080600080600080600060e0888a031215620002b657600080fd5b87516001604060020a0380821115620002ce57600080fd5b620002dc8b838c01620001c6565b985060208a0151915080821115620002f357600080fd5b620003018b838c01620001c6565b975060408a01519150808211156200031857600080fd5b620003268b838c01620001c6565b965060608a0151955060808a01519150808211156200034457600080fd5b50620003538a828b01620001c6565b9350506200036460a089016200027d565b91506200037460c089016200027d565b905092959891949750929550565b6002810460018216806200039757607f821691505b60208210811415620003d2577f4e487b7100000000000000000000000000000000000000000000000000000000600052602260045260246000fd5b50919050565b610fc380620003e86000396000f3fe608060405234801561001057600080fd5b50600436106100bb576000357c010000000000000000000000000000000000000000000000000000000090048063534206ad11610083578063534206ad1461012457806367e552b4146101395780639989bdf114610141578063d1be9bfe14610149578063e958303f1461015157600080fd5b806302f5ab14146100c0578063200d2ed2146100d7578063201c5cc1146100f15780632852b71c14610114578063522e11771461011c575b600080fd5b600d545b6040519081526020015b60405180910390f35b6000546100e49060ff1681565b6040516100ce9190610c02565b6101046100ff366004610c29565b610172565b60405190151581526020016100ce565b6101046101a6565b6101046101b9565b61012c6101d5565b6040516100ce9190610d27565b6100c46105e1565b6101046105fb565b600b546100c4565b610159610609565b6040516100ce9d9c9b9a99989796959493929190610e6c565b6000610180600160006109ad565b156101a1578151610198906009906020850190610a97565b50600192915050565b919050565b60006101b4600260006109ad565b905090565b60006101c7600460036109ad565b156101d25750600190565b90565b6101dd610b1b565b604080516101a0810190915260018054600160a060020a031682526002805460208401919061020b90610f4f565b80601f016020809104026020016040519081016040528092919081815260200182805461023790610f4f565b80156102845780601f1061025957610100808354040283529160200191610284565b820191906000526020600020905b81548152906001019060200180831161026757829003601f168201915b5050505050815260200160028201805461029d90610f4f565b80601f01602080910402602001604051908101604052809291908181526020018280546102c990610f4f565b80156103165780601f106102eb57610100808354040283529160200191610316565b820191906000526020600020905b8154815290600101906020018083116102f957829003601f168201915b5050505050815260200160038201805461032f90610f4f565b80601f016020809104026020016040519081016040528092919081815260200182805461035b90610f4f565b80156103a85780601f1061037d576101008083540402835291602001916103a8565b820191906000526020600020905b81548152906001019060200180831161038b57829003601f168201915b5050509183525050600482015460208201526005820154600160a060020a03908116604083015260068301541660608201526007820180546080909201916103ef90610f4f565b80601f016020809104026020016040519081016040528092919081815260200182805461041b90610f4f565b80156104685780601f1061043d57610100808354040283529160200191610468565b820191906000526020600020905b81548152906001019060200180831161044b57829003601f168201915b5050505050815260200160088201805461048190610f4f565b80601f01602080910402602001604051908101604052809291908181526020018280546104ad90610f4f565b80156104fa5780601f106104cf576101008083540402835291602001916104fa565b820191906000526020600020905b8154815290600101906020018083116104dd57829003601f168201915b5050509183525050600982015460209091019060ff16600581111561052157610521610bc4565b600581111561053257610532610bc4565b8152602001600a8201548152602001600b8201805461055090610f4f565b80601f016020809104026020016040519081016040528092919081815260200182805461057c90610f4f565b80156105c95780601f1061059e576101008083540402835291602001916105c9565b820191906000526020600020905b8154815290600101906020018083116105ac57829003601f168201915b50505050508152602001600c82015481525050905090565b600a5460009060ff1660058111156101b4576101b4610bc4565b60006101b4600360026109ad565b6001805460028054600160a060020a03909216929161062790610f4f565b80601f016020809104026020016040519081016040528092919081815260200182805461065390610f4f565b80156106a05780601f10610675576101008083540402835291602001916106a0565b820191906000526020600020905b81548152906001019060200180831161068357829003601f168201915b5050505050908060020180546106b590610f4f565b80601f01602080910402602001604051908101604052809291908181526020018280546106e190610f4f565b801561072e5780601f106107035761010080835404028352916020019161072e565b820191906000526020600020905b81548152906001019060200180831161071157829003601f168201915b50505050509080600301805461074390610f4f565b80601f016020809104026020016040519081016040528092919081815260200182805461076f90610f4f565b80156107bc5780601f10610791576101008083540402835291602001916107bc565b820191906000526020600020905b81548152906001019060200180831161079f57829003601f168201915b50505060048401546005850154600686015460078701805496979396600160a060020a0393841696509190921693506107f490610f4f565b80601f016020809104026020016040519081016040528092919081815260200182805461082090610f4f565b801561086d5780601f106108425761010080835404028352916020019161086d565b820191906000526020600020905b81548152906001019060200180831161085057829003601f168201915b50505050509080600801805461088290610f4f565b80601f01602080910402602001604051908101604052809291908181526020018280546108ae90610f4f565b80156108fb5780601f106108d0576101008083540402835291602001916108fb565b820191906000526020600020905b8154815290600101906020018083116108de57829003601f168201915b505050506009830154600a840154600b85018054949560ff909316949193509061092490610f4f565b80601f016020809104026020016040519081016040528092919081815260200182805461095090610f4f565b801561099d5780601f106109725761010080835404028352916020019161099d565b820191906000526020600020905b81548152906001019060200180831161098057829003601f168201915b50505050509080600c015490508d565b60008160058111156109c1576109c1610bc4565b60058111156109d2576109d2610bc4565b600a5460ff1660058111156109e9576109e9610bc4565b1415610a2b57826005811115610a0157610a01610bc4565b600a805460ff19166001836005811115610a1d57610a1d610bc4565b021790555060019050610a91565b6040517f08c379a000000000000000000000000000000000000000000000000000000000815260206004820152600a60248201527f494e5f50524f4345535300000000000000000000000000000000000000000000604482015260640160405180910390fd5b92915050565b828054610aa390610f4f565b90600052602060002090601f016020900481019282610ac55760008555610b0b565b82601f10610ade57805160ff1916838001178555610b0b565b82800160010185558215610b0b579182015b82811115610b0b578251825591602001919060010190610af0565b50610b17929150610baf565b5090565b604051806101a001604052806000600160a060020a03168152602001606081526020016060815260200160608152602001600081526020016000600160a060020a031681526020016000600160a060020a03168152602001606081526020016060815260200160006005811115610b9457610b94610bc4565b81526020016000815260200160608152602001600081525090565b5b80821115610b175760008155600101610bb0565b60e060020a634e487b7102600052602160045260246000fd5b60068110610bfe5760e060020a634e487b7102600052602160045260246000fd5b9052565b60208101610a918284610bdd565b60e060020a634e487b7102600052604160045260246000fd5b600060208284031215610c3b57600080fd5b813567ffffffffffffffff80821115610c5357600080fd5b818401915084601f830112610c6757600080fd5b813581811115610c7957610c79610c10565b604051601f8201601f19908116603f01168101908382118183101715610ca157610ca1610c10565b81604052828152876020848701011115610cba57600080fd5b826020860160208301376000928101602001929092525095945050505050565b6000815180845260005b81811015610d0057602081850181015186830182015201610ce4565b81811115610d12576000602083870101525b50601f01601f19169290920160200192915050565b60208152610d41602082018351600160a060020a03169052565b600060208301516101a0806040850152610d5f6101c0850183610cda565b91506040850151601f1980868503016060870152610d7d8483610cda565b93506060870151915080868503016080870152610d9a8483610cda565b9350608087015160a087015260a08701519150610dc260c0870183600160a060020a03169052565b60c0870151600160a060020a03811660e0880152915060e08701519150610100818786030181880152610df58584610cda565b945080880151925050610120818786030181880152610e148584610cda565b945080880151925050610140610e2c81880184610bdd565b80880151925050610160828188015280880151925050610180818786030181880152610e588584610cda565b970151959092019490945250929392505050565b600160a060020a038e1681526101a060208201526000610e906101a083018f610cda565b8281036040840152610ea2818f610cda565b90508281036060840152610eb6818e610cda565b90508b6080840152610ed360a084018c600160a060020a03169052565b600160a060020a038a1660c084015282810360e0840152610ef4818a610cda565b9050828103610100840152610f098189610cda565b9050610f19610120840188610bdd565b85610140840152828103610160840152610f338186610cda565b915050826101808301529e9d5050505050505050505050505050565b600281046001821680610f6357607f821691505b60208210811415610f875760e060020a634e487b7102600052602260045260246000fd5b5091905056fea2646970667358221220fafe03e5149ab62e9179af2a60df38e3cec4a9a8360dc0d079d67f47e12939aa64736f6c634300080b0033",
  "immutableReferences": {},
  "source": "// SPDX-License-Identifier: MIT\r\npragma solidity ^0.8.11;\r\npragma experimental ABIEncoderV2;\r\n\r\nimport \"./OrderInfo.sol\";\r\n\r\ncontract OrderRequestInfo {\r\n    // custom error\r\n    error UnderProcess(string message);\r\n    error PriceMismatch(string message);\r\n\r\n    //order status\r\n    OrderStatus public status;\r\n\r\n    //Order request details\r\n    OrderInfo public orderInfo;\r\n\r\n    //Create new instance of Product batch by distributor .\r\n    //@param _productName String Name of product\r\n    //@param _productDesc String Desc of product\r\n    //@param _manufacturerName String Manufacturer name\r\n    //@param _retailer Address retailer store address\r\n    constructor(\r\n        string memory _productName,\r\n        string memory _productDesc,\r\n        string memory _manufacturerDetail,\r\n        uint256 _quantity,\r\n        string memory _notes,\r\n        address _distributor,\r\n        address _retailer\r\n    ) {\r\n        orderInfo.orderRequestId = address(this);\r\n        orderInfo.productName = _productName;\r\n        orderInfo.productDesc = _productDesc;\r\n        orderInfo.orderStatus = OrderStatus(0);\r\n        orderInfo.manufacturerDetail = _manufacturerDetail;\r\n        orderInfo.quantity = _quantity;\r\n        orderInfo.notes = _notes;\r\n        orderInfo.retailer = _retailer;\r\n        orderInfo.distributor = _distributor;\r\n        orderInfo.submissionTimestamp = block.timestamp;\r\n        orderInfo.orderModifiedDate = block.timestamp;\r\n    }\r\n\r\n    //get order request info\r\n    function getOrderRequestInfo() public view returns (OrderInfo memory) {\r\n        return orderInfo;\r\n    }\r\n\r\n    //Get order submission timestamp\r\n    function getOrderSubmissionTimestamp() public view returns (uint256) {\r\n        return orderInfo.submissionTimestamp;\r\n    }\r\n\r\n    //Get order modified date\r\n    function getOrderModifiedDate() public view returns (uint256) {\r\n        return orderInfo.orderModifiedDate;\r\n    }\r\n\r\n    //Get the order request status.\r\n    function getOrderRequestStatus() public view returns (uint256) {\r\n        return uint256(orderInfo.orderStatus);\r\n    }\r\n\r\n    //Reject order received from retailer\r\n    function reject(string memory _reason) public returns (bool flag) {\r\n        if (updateOrderStatus(1, 0)) {\r\n            orderInfo.reasonForOrderCancellation = _reason;\r\n            return true;\r\n        }\r\n    }\r\n\r\n    //Accept order received from retailer\r\n    function accept() public returns (bool flag) {\r\n        return updateOrderStatus(2, 0);\r\n    }\r\n\r\n    //Mark order in process till it reaches to retailer\r\n    function inProcess() public returns (bool flag) {\r\n        return updateOrderStatus(3, 2);\r\n    }\r\n\r\n    //Complete order received from retailer\r\n    function complete() public returns (bool flag) {\r\n        if (updateOrderStatus(4, 3)) {\r\n            return true;\r\n        }\r\n    }\r\n\r\n    //Generic method to update order status\r\n    function updateOrderStatus(uint256 _updatedStatus, uint256 _prevStatus)\r\n        private\r\n        returns (bool)\r\n    {\r\n        if (orderInfo.orderStatus == OrderStatus(_prevStatus)) {\r\n            orderInfo.orderStatus = OrderStatus(_updatedStatus);\r\n            return true;\r\n        } else {\r\n            revert(\"IN_PROCESS\");\r\n        }\r\n    }\r\n}\r\n",
  "sourcePath": "C:\\Development\\Blockchain\\AAP-Blockchain\\aap_blockchainpoc_updated_version\\aap_supplychainpoc_blockchain\\contracts\\OrderRequestInfo.sol",
  "compiler": {
    "name": "solc",
    "version": "0.8.11+commit.d7f03943.Emscripten.clang"
  },
  "schemaVersion": "3.4.4",
  "updatedAt": "2022-02-15T09:03:10.726Z",
  "devdoc": {
    "kind": "dev",
    "methods": {},
    "version": 1
  },
  "userdoc": {
    "kind": "user",
    "methods": {},
    "version": 1
  }
}