{
  "contractName": "Owner",
  "abi": [
    {
      "inputs": [],
      "stateMutability": "nonpayable",
      "type": "constructor"
    },
    {
      "inputs": [],
      "name": "OWNER",
      "outputs": [
        {
          "internalType": "address",
          "name": "",
          "type": "address"
        }
      ],
      "stateMutability": "view",
      "type": "function"
    }
  ],
  "bytecode": "0x60a060405234801561001057600080fd5b503360805260805160ce61002d6000396000604d015260ce6000f3fe6080604052348015600f57600080fd5b50600436106044577c01000000000000000000000000000000000000000000000000000000006000350463117803e381146049575b600080fd5b606f7f000000000000000000000000000000000000000000000000000000000000000081565b60405173ffffffffffffffffffffffffffffffffffffffff909116815260200160405180910390f3fea26469706673582212202e45adcc1c6adc7afaae9d9e1147349bda53b4fa2f32bc3ea8d4f468f7c376b464736f6c634300080b0033",
  "immutableReferences": {
    "955": [
      {
        "length": 32,
        "start": 77
      }
    ]
  },
  "source": "// SPDX-License-Identifier: MIT\npragma solidity >=0.7.0;\n\ncontract Owner {\n    //Owner address\n    address public immutable OWNER;\n\n    //Initiate contract\n    constructor() {\n        OWNER = msg.sender;\n    }\n\n    //Validate owner/owner using modifier\n    modifier onlyOwner() {\n        require(msg.sender == OWNER, \"OWCC\"); //Only owner can call this.\n        _;\n    }\n}\n",
  "sourcePath": "C:\\Development\\Blockchain\\AAP-Blockchain\\aap_blockchainpoc_updated_version\\aap_supplychainpoc_blockchain\\contracts\\Owner.sol",
  "compiler": {
    "name": "solc",
    "version": "0.8.11+commit.d7f03943.Emscripten.clang"
  },
  "schemaVersion": "3.4.4",
  "updatedAt": "2022-02-15T09:03:10.735Z",
  "devdoc": {
    "kind": "dev",
    "methods": {},
    "version": 1
  },
  "userdoc": {
    "kind": "user",
    "methods": {},
    "version": 1
  }
}