{
  "contractName": "Product",
  "abi": [
    {
      "inputs": [
        {
          "internalType": "address",
          "name": "_orderRequestId",
          "type": "address"
        },
        {
          "internalType": "string",
          "name": "_productName",
          "type": "string"
        },
        {
          "internalType": "string",
          "name": "_productDesc",
          "type": "string"
        },
        {
          "internalType": "string",
          "name": "_warehouseLoc",
          "type": "string"
        },
        {
          "internalType": "uint256",
          "name": "_quantity",
          "type": "uint256"
        },
        {
          "internalType": "uint256",
          "name": "_price",
          "type": "uint256"
        },
        {
          "internalType": "string",
          "name": "_manufacturerName",
          "type": "string"
        },
        {
          "internalType": "string",
          "name": "_manufacturerLoc",
          "type": "string"
        },
        {
          "internalType": "address",
          "name": "_transporter",
          "type": "address"
        },
        {
          "internalType": "address",
          "name": "_retailer",
          "type": "address"
        },
        {
          "internalType": "address",
          "name": "_distributor",
          "type": "address"
        }
      ],
      "stateMutability": "nonpayable",
      "type": "constructor"
    },
    {
      "inputs": [
        {
          "internalType": "string",
          "name": "message",
          "type": "string"
        }
      ],
      "name": "PriceMismatch",
      "type": "error"
    },
    {
      "inputs": [
        {
          "internalType": "string",
          "name": "message",
          "type": "string"
        }
      ],
      "name": "UnderProcess",
      "type": "error"
    },
    {
      "inputs": [],
      "name": "productAdvanceInfo",
      "outputs": [
        {
          "internalType": "enum BatchStatus",
          "name": "batchStatus",
          "type": "uint8"
        },
        {
          "internalType": "address",
          "name": "transporter",
          "type": "address"
        },
        {
          "internalType": "address",
          "name": "distributor",
          "type": "address"
        },
        {
          "internalType": "string",
          "name": "manufacturerName",
          "type": "string"
        },
        {
          "internalType": "string",
          "name": "manufacturerLoc",
          "type": "string"
        },
        {
          "internalType": "address",
          "name": "retailer",
          "type": "address"
        },
        {
          "internalType": "string",
          "name": "reasonForShipmentCancellation",
          "type": "string"
        },
        {
          "internalType": "string",
          "name": "reasonForPackageRejection",
          "type": "string"
        },
        {
          "internalType": "uint256",
          "name": "lastModifiedTimestamp",
          "type": "uint256"
        }
      ],
      "stateMutability": "view",
      "type": "function"
    },
    {
      "inputs": [],
      "name": "productBasicInfo",
      "outputs": [
        {
          "internalType": "address",
          "name": "productId",
          "type": "address"
        },
        {
          "internalType": "address",
          "name": "orderRequestId",
          "type": "address"
        },
        {
          "internalType": "string",
          "name": "productName",
          "type": "string"
        },
        {
          "internalType": "string",
          "name": "productDesc",
          "type": "string"
        },
        {
          "internalType": "string",
          "name": "warehouseLoc",
          "type": "string"
        },
        {
          "internalType": "uint256",
          "name": "quantity",
          "type": "uint256"
        },
        {
          "internalType": "uint256",
          "name": "totalPrice",
          "type": "uint256"
        },
        {
          "internalType": "uint256",
          "name": "price",
          "type": "uint256"
        },
        {
          "internalType": "uint256",
          "name": "quantityRemain",
          "type": "uint256"
        }
      ],
      "stateMutability": "view",
      "type": "function"
    },
    {
      "inputs": [],
      "name": "status",
      "outputs": [
        {
          "internalType": "enum BatchStatus",
          "name": "",
          "type": "uint8"
        }
      ],
      "stateMutability": "view",
      "type": "function"
    },
    {
      "inputs": [
        {
          "internalType": "string",
          "name": "_productName",
          "type": "string"
        },
        {
          "internalType": "string",
          "name": "_productDesc",
          "type": "string"
        },
        {
          "internalType": "string",
          "name": "_warehouseLoc",
          "type": "string"
        },
        {
          "internalType": "uint256",
          "name": "_quantity",
          "type": "uint256"
        },
        {
          "internalType": "uint256",
          "name": "_price",
          "type": "uint256"
        },
        {
          "internalType": "string",
          "name": "_manufacturerName",
          "type": "string"
        },
        {
          "internalType": "string",
          "name": "_manufacturerLoc",
          "type": "string"
        },
        {
          "internalType": "address",
          "name": "_transporter",
          "type": "address"
        },
        {
          "internalType": "address",
          "name": "_retailer",
          "type": "address"
        }
      ],
      "name": "updateProductBatchDetails",
      "outputs": [
        {
          "internalType": "bool",
          "name": "",
          "type": "bool"
        }
      ],
      "stateMutability": "nonpayable",
      "type": "function"
    },
    {
      "inputs": [],
      "name": "getProductInfo",
      "outputs": [
        {
          "components": [
            {
              "internalType": "address",
              "name": "productId",
              "type": "address"
            },
            {
              "internalType": "address",
              "name": "orderRequestId",
              "type": "address"
            },
            {
              "internalType": "string",
              "name": "productName",
              "type": "string"
            },
            {
              "internalType": "string",
              "name": "productDesc",
              "type": "string"
            },
            {
              "internalType": "string",
              "name": "warehouseLoc",
              "type": "string"
            },
            {
              "internalType": "uint256",
              "name": "quantity",
              "type": "uint256"
            },
            {
              "internalType": "uint256",
              "name": "totalPrice",
              "type": "uint256"
            },
            {
              "internalType": "uint256",
              "name": "price",
              "type": "uint256"
            },
            {
              "internalType": "uint256",
              "name": "quantityRemain",
              "type": "uint256"
            }
          ],
          "internalType": "struct ProductBasicInfo",
          "name": "_productBasicInfo",
          "type": "tuple"
        },
        {
          "components": [
            {
              "internalType": "enum BatchStatus",
              "name": "batchStatus",
              "type": "uint8"
            },
            {
              "internalType": "address",
              "name": "transporter",
              "type": "address"
            },
            {
              "internalType": "address",
              "name": "distributor",
              "type": "address"
            },
            {
              "internalType": "string",
              "name": "manufacturerName",
              "type": "string"
            },
            {
              "internalType": "string",
              "name": "manufacturerLoc",
              "type": "string"
            },
            {
              "internalType": "address",
              "name": "retailer",
              "type": "address"
            },
            {
              "internalType": "string",
              "name": "reasonForShipmentCancellation",
              "type": "string"
            },
            {
              "internalType": "string",
              "name": "reasonForPackageRejection",
              "type": "string"
            },
            {
              "internalType": "uint256",
              "name": "lastModifiedTimestamp",
              "type": "uint256"
            }
          ],
          "internalType": "struct ProductAdvanceInfo",
          "name": "_productAdvanceInfo",
          "type": "tuple"
        },
        {
          "internalType": "uint256",
          "name": "_status",
          "type": "uint256"
        }
      ],
      "stateMutability": "view",
      "type": "function"
    },
    {
      "inputs": [],
      "name": "getProductBasicInfo",
      "outputs": [
        {
          "components": [
            {
              "internalType": "address",
              "name": "productId",
              "type": "address"
            },
            {
              "internalType": "address",
              "name": "orderRequestId",
              "type": "address"
            },
            {
              "internalType": "string",
              "name": "productName",
              "type": "string"
            },
            {
              "internalType": "string",
              "name": "productDesc",
              "type": "string"
            },
            {
              "internalType": "string",
              "name": "warehouseLoc",
              "type": "string"
            },
            {
              "internalType": "uint256",
              "name": "quantity",
              "type": "uint256"
            },
            {
              "internalType": "uint256",
              "name": "totalPrice",
              "type": "uint256"
            },
            {
              "internalType": "uint256",
              "name": "price",
              "type": "uint256"
            },
            {
              "internalType": "uint256",
              "name": "quantityRemain",
              "type": "uint256"
            }
          ],
          "internalType": "struct ProductBasicInfo",
          "name": "_productBasicInfo",
          "type": "tuple"
        }
      ],
      "stateMutability": "view",
      "type": "function"
    },
    {
      "inputs": [
        {
          "internalType": "uint256",
          "name": "_updatedQty",
          "type": "uint256"
        }
      ],
      "name": "updateQuantity",
      "outputs": [],
      "stateMutability": "nonpayable",
      "type": "function"
    },
    {
      "inputs": [],
      "name": "getProductBatchStatus",
      "outputs": [
        {
          "internalType": "uint256",
          "name": "",
          "type": "uint256"
        }
      ],
      "stateMutability": "view",
      "type": "function"
    },
    {
      "inputs": [],
      "name": "getOrderRequestId",
      "outputs": [
        {
          "internalType": "address",
          "name": "",
          "type": "address"
        }
      ],
      "stateMutability": "view",
      "type": "function"
    },
    {
      "inputs": [],
      "name": "initiateTransit",
      "outputs": [
        {
          "internalType": "bool",
          "name": "",
          "type": "bool"
        }
      ],
      "stateMutability": "nonpayable",
      "type": "function"
    },
    {
      "inputs": [
        {
          "internalType": "string",
          "name": "_reason",
          "type": "string"
        }
      ],
      "name": "cancelProductShipment",
      "outputs": [
        {
          "internalType": "bool",
          "name": "",
          "type": "bool"
        }
      ],
      "stateMutability": "nonpayable",
      "type": "function"
    },
    {
      "inputs": [
        {
          "internalType": "string",
          "name": "_reason",
          "type": "string"
        }
      ],
      "name": "cancelPackageShipment",
      "outputs": [
        {
          "internalType": "bool",
          "name": "",
          "type": "bool"
        }
      ],
      "stateMutability": "nonpayable",
      "type": "function"
    },
    {
      "inputs": [],
      "name": "initiateProductBatchForShipment",
      "outputs": [
        {
          "internalType": "bool",
          "name": "",
          "type": "bool"
        }
      ],
      "stateMutability": "nonpayable",
      "type": "function"
    },
    {
      "inputs": [],
      "name": "updateProductBatchStatusToDeliver",
      "outputs": [
        {
          "internalType": "bool",
          "name": "",
          "type": "bool"
        }
      ],
      "stateMutability": "nonpayable",
      "type": "function"
    },
    {
      "inputs": [
        {
          "internalType": "string",
          "name": "_reason",
          "type": "string"
        }
      ],
      "name": "rejectProductBatch",
      "outputs": [
        {
          "internalType": "bool",
          "name": "",
          "type": "bool"
        }
      ],
      "stateMutability": "nonpayable",
      "type": "function"
    },
    {
      "inputs": [],
      "name": "approveProductBatch",
      "outputs": [
        {
          "internalType": "bool",
          "name": "flag",
          "type": "bool"
        }
      ],
      "stateMutability": "nonpayable",
      "type": "function"
    }
  ],
  "bytecode": "0x60806040523480156200001157600080fd5b5060405162001e0e38038062001e0e8339810160408190526200003491620002f5565b60028054600160a060020a038d16600160a060020a03199182161790915560018054909116301790558951620000729060039060208d01906200014c565b508851620000889060049060208c01906200014c565b5087516200009e9060059060208b01906200014c565b50600687905560098790556008869055620000ba86886200044d565b600755600a805460ff191690558451620000dc90600c9060208801906200014c565b508351620000f290600d9060208701906200014c565b50600a8054600160a060020a039485166101000261010060a860020a0319909116179055600e8054928416600160a060020a0319938416179055600b805491909316911617905550504260115550620004ea945050505050565b8280546200015a9062000494565b90600052602060002090601f0160209004810192826200017e5760008555620001c9565b82601f106200019957805160ff1916838001178555620001c9565b82800160010185558215620001c9579182015b82811115620001c9578251825591602001919060010190620001ac565b50620001d7929150620001db565b5090565b5b80821115620001d75760008155600101620001dc565b8051600160a060020a03811681146200020a57600080fd5b919050565b7f4e487b7100000000000000000000000000000000000000000000000000000000600052604160045260246000fd5b600082601f8301126200025057600080fd5b81516001604060020a03808211156200026d576200026d6200020f565b604051601f8301601f19908116603f011681019082821181831017156200029857620002986200020f565b81604052838152602092508683858801011115620002b557600080fd5b600091505b83821015620002d95785820183015181830184015290820190620002ba565b83821115620002eb5760008385830101525b9695505050505050565b60008060008060008060008060008060006101608c8e0312156200031857600080fd5b620003238c620001f2565b9a5060208c01516001604060020a038111156200033f57600080fd5b6200034d8e828f016200023e565b9a505060408c01516001604060020a038111156200036a57600080fd5b620003788e828f016200023e565b99505060608c01516001604060020a038111156200039557600080fd5b620003a38e828f016200023e565b98505060808c0151965060a08c0151955060c08c01516001604060020a03811115620003ce57600080fd5b620003dc8e828f016200023e565b95505060e08c01516001604060020a03811115620003f957600080fd5b620004078e828f016200023e565b945050620004196101008d01620001f2565b92506200042a6101208d01620001f2565b91506200043b6101408d01620001f2565b90509295989b509295989b9093969950565b60008160001904831182151516156200048f577f4e487b7100000000000000000000000000000000000000000000000000000000600052601160045260246000fd5b500290565b600281046001821680620004a957607f821691505b60208210811415620004e4577f4e487b7100000000000000000000000000000000000000000000000000000000600052602260045260246000fd5b50919050565b61191480620004fa6000396000f3fe608060405234801561001057600080fd5b506004361061011c576000357c01000000000000000000000000000000000000000000000000000000009004806384a469da116100b4578063db748f4a11610083578063db748f4a14610229578063ea622a7f1461023f578063f0ca9ef614610247578063fc72a3851461025a57600080fd5b806384a469da146101d6578063a42f3f74146101f3578063ae597cd61461020e578063b7aab7f31461022157600080fd5b8063200d2ed2116100f0578063200d2ed21461018c57806340377ef9146101a6578063521634df146101bb57806352b72a1c146101c357600080fd5b8062613a771461012157806310a95f961461013e57806315f9735a1461015157806317fa1f471461016e575b600080fd5b610129610271565b60405190151581526020015b60405180910390f35b61012961014c36600461136e565b610284565b6101596102ba565b604051610135999897969594939291906113f8565b61018a61017c366004611477565b600681905560095542601155565b005b6000546101999060ff1681565b60405161013591906114ce565b6101ae610496565b604051610135919061158b565b6101296106ab565b6101296101d13660046115c1565b6106b9565b6101de61079e565b604051610135999897969594939291906116c8565b600254604051600160a060020a039091168152602001610135565b61012961021c36600461136e565b610a16565b610129610a25565b610231610a33565b604051908152602001610135565b610129610a4d565b61012961025536600461136e565b610a5b565b610262610a8d565b6040516101359392919061175d565b600061027f60016000610fe9565b905090565b60008061029360026003610fe9565b905080156102b05782516102ae90600f9060208601906111d1565b505b4260115592915050565b6001805460025460038054600160a060020a039384169492909316926102df90611857565b80601f016020809104026020016040519081016040528092919081815260200182805461030b90611857565b80156103585780601f1061032d57610100808354040283529160200191610358565b820191906000526020600020905b81548152906001019060200180831161033b57829003601f168201915b50505050509080600301805461036d90611857565b80601f016020809104026020016040519081016040528092919081815260200182805461039990611857565b80156103e65780601f106103bb576101008083540402835291602001916103e6565b820191906000526020600020905b8154815290600101906020018083116103c957829003601f168201915b5050505050908060040180546103fb90611857565b80601f016020809104026020016040519081016040528092919081815260200182805461042790611857565b80156104745780601f1061044957610100808354040283529160200191610474565b820191906000526020600020905b81548152906001019060200180831161045757829003601f168201915b5050505050908060050154908060060154908060070154908060080154905089565b61049e611255565b604080516101208101825260018054600160a060020a0390811683526002541660208301526003805492939192918401916104d890611857565b80601f016020809104026020016040519081016040528092919081815260200182805461050490611857565b80156105515780601f1061052657610100808354040283529160200191610551565b820191906000526020600020905b81548152906001019060200180831161053457829003601f168201915b5050505050815260200160038201805461056a90611857565b80601f016020809104026020016040519081016040528092919081815260200182805461059690611857565b80156105e35780601f106105b8576101008083540402835291602001916105e3565b820191906000526020600020905b8154815290600101906020018083116105c657829003601f168201915b505050505081526020016004820180546105fc90611857565b80601f016020809104026020016040519081016040528092919081815260200182805461062890611857565b80156106755780601f1061064a57610100808354040283529160200191610675565b820191906000526020600020905b81548152906001019060200180831161065857829003601f168201915b50505050508152602001600582015481526020016006820154815260200160078201548152602001600882015481525050905090565b600061027f60046003610fe9565b88516000906106cf9060039060208d01906111d1565b5088516106e39060049060208c01906111d1565b5087516106f79060059060208b01906111d1565b506006879055600987905560088690556107118688611895565b600755845161072790600c9060208801906111d1565b50835161073b90600d9060208701906111d1565b5050600a805474ffffffffffffffffffffffffffffffffffffffff001916610100600160a060020a0394851602179055600e805473ffffffffffffffffffffffffffffffffffffffff191691909216179055505042601155506001949350505050565b600a8054600b54600c805460ff841694610100909404600160a060020a039081169493169291906107ce90611857565b80601f01602080910402602001604051908101604052809291908181526020018280546107fa90611857565b80156108475780601f1061081c57610100808354040283529160200191610847565b820191906000526020600020905b81548152906001019060200180831161082a57829003601f168201915b50505050509080600301805461085c90611857565b80601f016020809104026020016040519081016040528092919081815260200182805461088890611857565b80156108d55780601f106108aa576101008083540402835291602001916108d5565b820191906000526020600020905b8154815290600101906020018083116108b857829003601f168201915b50505060048401546005850180549495600160a060020a039092169491935091506108ff90611857565b80601f016020809104026020016040519081016040528092919081815260200182805461092b90611857565b80156109785780601f1061094d57610100808354040283529160200191610978565b820191906000526020600020905b81548152906001019060200180831161095b57829003601f168201915b50505050509080600601805461098d90611857565b80601f01602080910402602001604051908101604052809291908181526020018280546109b990611857565b8015610a065780601f106109db57610100808354040283529160200191610a06565b820191906000526020600020905b8154815290600101906020018083116109e957829003601f168201915b5050505050908060070154905089565b60008061029360026001610fe9565b600061027f60066004610fe9565b600a5460009060ff16600681111561027f5761027f611490565b600061027f60036001610fe9565b600080610a6a60056004610fe9565b90508015610a87578251610a859060109060208601906111d1565b505b92915050565b610a95611255565b604080516101208101825260008082526020820181905291810182905260608082018190526080820181905260a0820183905260c0820181905260e0820152610100810191909152600a805460009160019160ff166006811115610afb57610afb611490565b60408051610120810182528454600160a060020a0390811682526001860154166020820152600285018054919286929084019190610b3890611857565b80601f0160208091040260200160405190810160405280929190818152602001828054610b6490611857565b8015610bb15780601f10610b8657610100808354040283529160200191610bb1565b820191906000526020600020905b815481529060010190602001808311610b9457829003601f168201915b50505050508152602001600382018054610bca90611857565b80601f0160208091040260200160405190810160405280929190818152602001828054610bf690611857565b8015610c435780601f10610c1857610100808354040283529160200191610c43565b820191906000526020600020905b815481529060010190602001808311610c2657829003601f168201915b50505050508152602001600482018054610c5c90611857565b80601f0160208091040260200160405190810160405280929190818152602001828054610c8890611857565b8015610cd55780601f10610caa57610100808354040283529160200191610cd5565b820191906000526020600020905b815481529060010190602001808311610cb857829003601f168201915b50505050508152602001600582015481526020016006820154815260200160078201548152602001600882015481525050925081604051806101200160405290816000820160009054906101000a900460ff166006811115610d3957610d39611490565b6006811115610d4a57610d4a611490565b81528154600160a060020a03610100909104811660208301526001830154166040820152600282018054606090920191610d8390611857565b80601f0160208091040260200160405190810160405280929190818152602001828054610daf90611857565b8015610dfc5780601f10610dd157610100808354040283529160200191610dfc565b820191906000526020600020905b815481529060010190602001808311610ddf57829003601f168201915b50505050508152602001600382018054610e1590611857565b80601f0160208091040260200160405190810160405280929190818152602001828054610e4190611857565b8015610e8e5780601f10610e6357610100808354040283529160200191610e8e565b820191906000526020600020905b815481529060010190602001808311610e7157829003601f168201915b50505091835250506004820154600160a060020a03166020820152600582018054604090920191610ebe90611857565b80601f0160208091040260200160405190810160405280929190818152602001828054610eea90611857565b8015610f375780601f10610f0c57610100808354040283529160200191610f37565b820191906000526020600020905b815481529060010190602001808311610f1a57829003601f168201915b50505050508152602001600682018054610f5090611857565b80601f0160208091040260200160405190810160405280929190818152602001828054610f7c90611857565b8015610fc95780601f10610f9e57610100808354040283529160200191610fc9565b820191906000526020600020905b815481529060010190602001808311610fac57829003601f168201915b505050505081526020016007820154815250509150925092509250909192565b6000610ff36110db565b15610a875781600681111561100a5761100a611490565b600681111561101b5761101b611490565b600a5460ff16600681111561103257611032611490565b14156110745782600681111561104a5761104a611490565b600a805460ff1916600183600681111561106657611066611490565b021790555060019050610a87565b6040517fbd0259e600000000000000000000000000000000000000000000000000000000815260206004820152601b60248201527f50524556494f55535f535445505f4e4f545f434f4d504c45544544000000000060448201526064015b60405180910390fd5b600254604080517f67e552b40000000000000000000000000000000000000000000000000000000081529051600092600160a060020a0316916367e552b49160048083019260209291908290030181865afa15801561113e573d6000803e3d6000fd5b505050506040513d601f19601f8201168201806040525081019061116291906118c5565b6003146111cb576040517f08c379a000000000000000000000000000000000000000000000000000000000815260206004820152600e60248201527f4f524445525f43414e43454c454400000000000000000000000000000000000060448201526064016110d2565b50600190565b8280546111dd90611857565b90600052602060002090601f0160209004810192826111ff5760008555611245565b82601f1061121857805160ff1916838001178555611245565b82800160010185558215611245579182015b8281111561124557825182559160200191906001019061122a565b506112519291506112b3565b5090565b6040518061012001604052806000600160a060020a031681526020016000600160a060020a03168152602001606081526020016060815260200160608152602001600081526020016000815260200160008152602001600081525090565b5b8082111561125157600081556001016112b4565b60e060020a634e487b7102600052604160045260246000fd5b600082601f8301126112f257600080fd5b813567ffffffffffffffff8082111561130d5761130d6112c8565b604051601f8301601f19908116603f01168101908282118183101715611335576113356112c8565b8160405283815286602085880101111561134e57600080fd5b836020870160208301376000602085830101528094505050505092915050565b60006020828403121561138057600080fd5b813567ffffffffffffffff81111561139757600080fd5b6113a3848285016112e1565b949350505050565b6000815180845260005b818110156113d1576020818501810151868301820152016113b5565b818111156113e3576000602083870101525b50601f01601f19169290920160200192915050565b6000610120600160a060020a03808d168452808c166020850152508060408401526114258184018b6113ab565b90508281036060840152611439818a6113ab565b9050828103608084015261144d81896113ab565b9150508560a08301528460c08301528360e0830152826101008301529a9950505050505050505050565b60006020828403121561148957600080fd5b5035919050565b60e060020a634e487b7102600052602160045260246000fd5b600781106114ca5760e060020a634e487b7102600052602160045260246000fd5b9052565b60208101610a8782846114a9565b8051600160a060020a03168252600061012060208301516115086020860182600160a060020a03169052565b506040830151816040860152611520828601826113ab565b9150506060830151848203606086015261153a82826113ab565b9150506080830151848203608086015261155482826113ab565b91505060a083015160a085015260c083015160c085015260e083015160e08501526101008084015181860152508091505092915050565b60208152600061159e60208301846114dc565b9392505050565b8035600160a060020a03811681146115bc57600080fd5b919050565b60008060008060008060008060006101208a8c0312156115e057600080fd5b893567ffffffffffffffff808211156115f857600080fd5b6116048d838e016112e1565b9a5060208c013591508082111561161a57600080fd5b6116268d838e016112e1565b995060408c013591508082111561163c57600080fd5b6116488d838e016112e1565b985060608c0135975060808c0135965060a08c013591508082111561166c57600080fd5b6116788d838e016112e1565b955060c08c013591508082111561168e57600080fd5b5061169b8c828d016112e1565b9350506116aa60e08b016115a5565b91506116b96101008b016115a5565b90509295985092959850929598565b60006101206116d7838d6114a9565b600160a060020a03808c166020850152808b1660408501528160608501526117018285018b6113ab565b91508382036080850152611715828a6113ab565b90881660a085015283810360c0850152905061173181876113ab565b905082810360e084015261174581866113ab565b915050826101008301529a9950505050505050505050565b60608152600061177060608301866114dc565b82810360208401526101206117868287516114a9565b60208601516117a06020840182600160a060020a03169052565b5060408601516117bb6040840182600160a060020a03169052565b5060608601518160608401526117d3828401826113ab565b915050608086015182820360808401526117ed82826113ab565b91505060a086015161180a60a0840182600160a060020a03169052565b5060c086015182820360c084015261182282826113ab565b91505060e086015182820360e084015261183c82826113ab565b61010097880151939097019290925250505060400152919050565b60028104600182168061186b57607f821691505b6020821081141561188f5760e060020a634e487b7102600052602260045260246000fd5b50919050565b60008160001904831182151516156118c05760e060020a634e487b7102600052601160045260246000fd5b500290565b6000602082840312156118d757600080fd5b505191905056fea26469706673582212209a30d2b4f7a71d759841481a5e85b7fa307768a34e325761b5a5278e94bc8ed164736f6c634300080b0033",
  "immutableReferences": {},
  "source": "// SPDX-License-Identifier: MIT\r\npragma solidity ^0.8.11;\r\npragma experimental ABIEncoderV2;\r\n\r\nimport \"./ProductInfo.sol\";\r\nimport \"./OrderRequestInfo.sol\";\r\n\r\ncontract Product {\r\n    //product batch status\r\n    BatchStatus public status;\r\n    //Basic details\r\n    ProductBasicInfo public productBasicInfo;\r\n    //Advance details\r\n    ProductAdvanceInfo public productAdvanceInfo;\r\n\r\n    // custom error\r\n    error UnderProcess(string message);\r\n    error PriceMismatch(string message);\r\n\r\n    //Create new instance of Product batch by distributor .\r\n    //@param _productName String Name of product\r\n    //@param _productDesc String Desc of product\r\n    //@param _warehouseLoc String Location of product\r\n    //@param _quantity Uint256 Product quantity\r\n    //@param _price Uint256 Product price\r\n    //@param _totalPrice Uint256 Total batch price\r\n    //@param _manufacturerName String Manufacturer name\r\n    //@param _manufacturerLoc String Manufacturer location\r\n    //@param _transporter Address transporter address\r\n    //@param _retailer Address retailer store address\r\n    constructor(\r\n        address _orderRequestId,\r\n        string memory _productName,\r\n        string memory _productDesc,\r\n        string memory _warehouseLoc,\r\n        uint256 _quantity,\r\n        uint256 _price,\r\n        string memory _manufacturerName,\r\n        string memory _manufacturerLoc,\r\n        address _transporter, // logistic\r\n        address _retailer, // receiver\r\n        address _distributor\r\n    ) {\r\n        productBasicInfo.orderRequestId = _orderRequestId;\r\n        productBasicInfo.productId = address(this);\r\n        productBasicInfo.productName = _productName;\r\n        productBasicInfo.productDesc = _productDesc;\r\n        productBasicInfo.warehouseLoc = _warehouseLoc;\r\n        productBasicInfo.quantity = _quantity;\r\n        productBasicInfo.quantityRemain = _quantity;\r\n        productBasicInfo.price = _price;\r\n        productBasicInfo.totalPrice = _quantity * _price;\r\n        productAdvanceInfo.batchStatus = BatchStatus(0);\r\n        productAdvanceInfo.manufacturerName = _manufacturerName;\r\n        productAdvanceInfo.manufacturerLoc = _manufacturerLoc;\r\n        productAdvanceInfo.transporter = _transporter;\r\n        productAdvanceInfo.retailer = _retailer;\r\n        productAdvanceInfo.distributor = _distributor;\r\n        productAdvanceInfo.lastModifiedTimestamp = block.timestamp;\r\n    }\r\n\r\n    //Update product details with incoming latest values\r\n    function updateProductBatchDetails(\r\n        string memory _productName,\r\n        string memory _productDesc,\r\n        string memory _warehouseLoc,\r\n        uint256 _quantity,\r\n        uint256 _price,\r\n        string memory _manufacturerName,\r\n        string memory _manufacturerLoc,\r\n        address _transporter, // logistic\r\n        address _retailer // receiver\r\n    ) public returns (bool) {\r\n        productBasicInfo.productName = _productName;\r\n        productBasicInfo.productDesc = _productDesc;\r\n        productBasicInfo.warehouseLoc = _warehouseLoc;\r\n        productBasicInfo.quantity = _quantity;\r\n        productBasicInfo.quantityRemain = _quantity;\r\n        productBasicInfo.price = _price;\r\n        productBasicInfo.totalPrice = _quantity * _price;\r\n        productAdvanceInfo.manufacturerName = _manufacturerName;\r\n        productAdvanceInfo.manufacturerLoc = _manufacturerLoc;\r\n        productAdvanceInfo.transporter = _transporter;\r\n        productAdvanceInfo.retailer = _retailer;\r\n        productAdvanceInfo.lastModifiedTimestamp = block.timestamp;\r\n        return true;\r\n    }\r\n\r\n    //Retrieve product details using ProductId\r\n    function getProductInfo()\r\n        public\r\n        view\r\n        returns (\r\n            ProductBasicInfo memory _productBasicInfo,\r\n            ProductAdvanceInfo memory _productAdvanceInfo,\r\n            uint256 _status\r\n        )\r\n    {\r\n        return (\r\n            productBasicInfo,\r\n            productAdvanceInfo,\r\n            uint256(productAdvanceInfo.batchStatus)\r\n        );\r\n    }\r\n\r\n    //Retrieve product basic details using ProductId\r\n    function getProductBasicInfo()\r\n        public\r\n        view\r\n        returns (ProductBasicInfo memory _productBasicInfo)\r\n    {\r\n        return productBasicInfo;\r\n    }\r\n\r\n    //Update quantity after sell\r\n    //@param UpdatedQuantity uint256\r\n    function updateQuantity(uint256 _updatedQty) public {\r\n        productBasicInfo.quantity = _updatedQty;\r\n        productBasicInfo.quantityRemain = _updatedQty;\r\n        productAdvanceInfo.lastModifiedTimestamp = block.timestamp;\r\n    }\r\n\r\n    //Get the Product batch status.\r\n    function getProductBatchStatus() public view returns (uint256) {\r\n        return uint256(productAdvanceInfo.batchStatus);\r\n    }\r\n\r\n    //Get the order id.\r\n    function getOrderRequestId() public view returns (address) {\r\n        return productBasicInfo.orderRequestId;\r\n    }\r\n\r\n    //Initiate product transit by Distributor\r\n    function initiateTransit() public returns (bool) {\r\n        return updateBatchStatus(1, 0);\r\n    }\r\n\r\n    //Cancel product shipment by Distributor\r\n    function cancelProductShipment(string memory _reason)\r\n        public\r\n        returns (bool)\r\n    {\r\n        bool updatedFlag = updateBatchStatus(2, 1);\r\n        if (updatedFlag) {\r\n            productAdvanceInfo.reasonForShipmentCancellation = _reason;\r\n        }\r\n        productAdvanceInfo.lastModifiedTimestamp = block.timestamp;\r\n        return updatedFlag;\r\n    }\r\n\r\n    //Cancel package shipment by Transporter\r\n    function cancelPackageShipment(string memory _reason)\r\n        public\r\n        returns (bool)\r\n    {\r\n        bool updatedFlag = updateBatchStatus(2, 3);\r\n        if (updatedFlag) {\r\n            productAdvanceInfo.reasonForShipmentCancellation = _reason;\r\n        }\r\n        productAdvanceInfo.lastModifiedTimestamp = block.timestamp;\r\n        return updatedFlag;\r\n    }\r\n\r\n    //Pick product batch for shipment by shipper to deliver from warehouse to retailer store\r\n    function initiateProductBatchForShipment() public returns (bool) {\r\n        return updateBatchStatus(3, 1);\r\n    }\r\n\r\n    //update product batch status after successfully delivered from warehouse to retailer store\r\n    function updateProductBatchStatusToDeliver() public returns (bool) {\r\n        return updateBatchStatus(4, 3);\r\n    }\r\n\r\n    //Delivered product batch rejected by Retailer\r\n    function rejectProductBatch(string memory _reason) public returns (bool) {\r\n        bool updatedFlag = updateBatchStatus(5, 4);\r\n        if (updatedFlag) {\r\n            productAdvanceInfo.reasonForPackageRejection = _reason;\r\n        }\r\n        return updatedFlag;\r\n    }\r\n\r\n    //Delivered product batch approved by retailer\r\n    function approveProductBatch() public returns (bool flag) {\r\n        return updateBatchStatus(6, 4);\r\n    }\r\n\r\n    //Generic method to update product batch status\r\n    function updateBatchStatus(uint256 _updatedStatus, uint256 _prevStatus)\r\n        private\r\n        returns (bool flag)\r\n    {\r\n        if (isOrderActive()) {\r\n            if (productAdvanceInfo.batchStatus == BatchStatus(_prevStatus)) {\r\n                productAdvanceInfo.batchStatus = BatchStatus(_updatedStatus);\r\n                return true;\r\n            } else {\r\n                revert UnderProcess(\"PREVIOUS_STEP_NOT_COMPLETED\");\r\n            }\r\n        }\r\n    }\r\n\r\n    function isOrderActive() private view returns (bool flag) {\r\n        if (\r\n            OrderRequestInfo(productBasicInfo.orderRequestId)\r\n                .getOrderRequestStatus() != 3\r\n        ) {\r\n            revert(\"ORDER_CANCELED\");\r\n        }\r\n        return true;\r\n    }\r\n}\r\n",
  "sourcePath": "C:\\Development\\Blockchain\\AAP-Blockchain\\aap_blockchainpoc_updated_version\\aap_supplychainpoc_blockchain\\contracts\\Product.sol",
  "compiler": {
    "name": "solc",
    "version": "0.8.11+commit.d7f03943.Emscripten.clang"
  },
  "schemaVersion": "3.4.4",
  "updatedAt": "2022-02-15T09:03:10.749Z",
  "devdoc": {
    "kind": "dev",
    "methods": {},
    "version": 1
  },
  "userdoc": {
    "kind": "user",
    "methods": {},
    "version": 1
  }
}