{
  "contractName": "Retailer",
  "abi": [
    {
      "inputs": [
        {
          "internalType": "address",
          "name": "_userAddress",
          "type": "address"
        }
      ],
      "stateMutability": "nonpayable",
      "type": "constructor"
    },
    {
      "anonymous": false,
      "inputs": [
        {
          "indexed": true,
          "internalType": "address",
          "name": "orderRequestId",
          "type": "address"
        },
        {
          "indexed": false,
          "internalType": "uint256",
          "name": "orderStatus",
          "type": "uint256"
        },
        {
          "indexed": false,
          "internalType": "uint256",
          "name": "submissionTimestamp",
          "type": "uint256"
        },
        {
          "indexed": false,
          "internalType": "uint256",
          "name": "orderModifiedDate",
          "type": "uint256"
        }
      ],
      "name": "UpdatedOrderStatusEvt",
      "type": "event"
    },
    {
      "anonymous": false,
      "inputs": [
        {
          "indexed": true,
          "internalType": "address",
          "name": "productId",
          "type": "address"
        },
        {
          "indexed": false,
          "internalType": "uint256",
          "name": "status",
          "type": "uint256"
        },
        {
          "indexed": false,
          "internalType": "uint256",
          "name": "approvedCount",
          "type": "uint256"
        },
        {
          "indexed": false,
          "internalType": "uint256",
          "name": "rejectedCount",
          "type": "uint256"
        }
      ],
      "name": "UpdatedProductBatchStatusEvt",
      "type": "event"
    },
    {
      "anonymous": false,
      "inputs": [
        {
          "indexed": true,
          "internalType": "address",
          "name": "productId",
          "type": "address"
        },
        {
          "indexed": false,
          "internalType": "uint256",
          "name": "updatedQty",
          "type": "uint256"
        },
        {
          "indexed": false,
          "internalType": "uint256",
          "name": "status",
          "type": "uint256"
        },
        {
          "indexed": false,
          "internalType": "uint256",
          "name": "soldOutCount",
          "type": "uint256"
        },
        {
          "indexed": false,
          "internalType": "uint256",
          "name": "damageCount",
          "type": "uint256"
        }
      ],
      "name": "UpdatedProductSaleStatusEvt",
      "type": "event"
    },
    {
      "inputs": [
        {
          "internalType": "address",
          "name": "_productId",
          "type": "address"
        },
        {
          "internalType": "bool",
          "name": "_isApprove",
          "type": "bool"
        },
        {
          "internalType": "string",
          "name": "_reason",
          "type": "string"
        }
      ],
      "name": "updateProductBatchStatusOnReceive",
      "outputs": [],
      "stateMutability": "nonpayable",
      "type": "function"
    },
    {
      "inputs": [
        {
          "internalType": "address",
          "name": "_productId",
          "type": "address"
        },
        {
          "internalType": "uint256",
          "name": "_saleStatus",
          "type": "uint256"
        },
        {
          "internalType": "uint256",
          "name": "_qty",
          "type": "uint256"
        }
      ],
      "name": "updateSaleStatus",
      "outputs": [],
      "stateMutability": "nonpayable",
      "type": "function"
    },
    {
      "inputs": [
        {
          "internalType": "address",
          "name": "_productId",
          "type": "address"
        }
      ],
      "name": "getProductSaleSatus",
      "outputs": [
        {
          "internalType": "uint256",
          "name": "",
          "type": "uint256"
        }
      ],
      "stateMutability": "nonpayable",
      "type": "function"
    },
    {
      "inputs": [
        {
          "internalType": "address",
          "name": "_retailer",
          "type": "address"
        }
      ],
      "name": "getSoldOutCount",
      "outputs": [
        {
          "internalType": "uint256",
          "name": "",
          "type": "uint256"
        }
      ],
      "stateMutability": "view",
      "type": "function",
      "constant": true
    },
    {
      "inputs": [
        {
          "internalType": "address",
          "name": "_retailer",
          "type": "address"
        }
      ],
      "name": "getDamageCount",
      "outputs": [
        {
          "internalType": "uint256",
          "name": "",
          "type": "uint256"
        }
      ],
      "stateMutability": "view",
      "type": "function",
      "constant": true
    },
    {
      "inputs": [
        {
          "internalType": "address",
          "name": "_retailer",
          "type": "address"
        }
      ],
      "name": "getApprovedCount",
      "outputs": [
        {
          "internalType": "uint256",
          "name": "",
          "type": "uint256"
        }
      ],
      "stateMutability": "view",
      "type": "function",
      "constant": true
    },
    {
      "inputs": [
        {
          "internalType": "address",
          "name": "_retailer",
          "type": "address"
        }
      ],
      "name": "getRejectedCount",
      "outputs": [
        {
          "internalType": "uint256",
          "name": "",
          "type": "uint256"
        }
      ],
      "stateMutability": "view",
      "type": "function",
      "constant": true
    }
  ],
  "bytecode": "0x608060405234801561001057600080fd5b5060405161112f38038061112f83398101604081905261002f91610054565b60008054600160a060020a031916600160a060020a0392909216919091179055610084565b60006020828403121561006657600080fd5b8151600160a060020a038116811461007d57600080fd5b9392505050565b61109c806100936000396000f3fe608060405234801561001057600080fd5b50600436106100815760003560e060020a900480637a8fa1601161005f5780637a8fa160146100ff5780637cf4df9e14610128578063b31b6cfb1461013b578063b3c700c21461014e57600080fd5b8063132a2ab314610086578063355c0786146100c157806356ffc5f9146100ea575b600080fd5b6100af610094366004610bd4565b600160a060020a031660009081526003602052604090205490565b60405190815260200160405180910390f35b6100af6100cf366004610bd4565b600160a060020a031660009081526002602052604090205490565b6100fd6100f8366004610bf8565b610177565b005b6100af61010d366004610bd4565b600160a060020a031660009081526005602052604090205490565b6100af610136366004610bd4565b6105a9565b6100fd610149366004610ced565b610691565b6100af61015c366004610bd4565b600160a060020a031660009081526004602052604090205490565b6000546040517f27820851000000000000000000000000000000000000000000000000000000008152336004820152600160a060020a0390911690632782085190602401602060405180830381865afa1580156101d8573d6000803e3d6000fd5b505050506040513d601f19601f820116820180604052508101906101fc9190610d92565b6003146102275760405160e560020a62461bcd02815260040161021e90610dab565b60405180910390fd5b82600160a060020a031663db748f4a6040518163ffffffff1660e060020a028152600401602060405180830381865afa158015610268573d6000803e3d6000fd5b505050506040513d601f19601f8201168201806040525081019061028c9190610d92565b6006146102de5760405160e560020a62461bcd02815260206004820152601260248201527f50524f445f4e4f545f5945545f41505256440000000000000000000000000000604482015260640161021e565b600083600160a060020a03166340377ef96040518163ffffffff1660e060020a028152600401600060405180830381865afa158015610321573d6000803e3d6000fd5b505050506040513d6000823e601f3d908101601f191682016040526103499190810190610e66565b90508060a001518211156103a25760405160e560020a62461bcd02815260206004820152600b60248201527f494e56414c49445f515459000000000000000000000000000000000000000000604482015260640161021e565b818160a001516103b29190610f9b565b61010082018190526040517f17fa1f470000000000000000000000000000000000000000000000000000000081526004810191909152600160a060020a038516906317fa1f4790602401600060405180830381600087803b15801561041657600080fd5b505af115801561042a573d6000803e3d6000fd5b50505050806101000151600014156104955782600281111561044e5761044e610fb2565b336000908152600160208181526040808420600160a060020a038a1685529091529091208054909160ff199091169083600281111561048f5761048f610fb2565b02179055505b82600214156104ce57336000908152600260205260409020546104b9906001610fe1565b33600090815260026020526040902055610503565b826001141561050357336000908152600360205260409020546104f2906001610fe1565b336000908152600360205260409020555b610100810151336000908152600160209081526040808320600160a060020a03891680855292529091205490917f8f7c0fa6b858ed16118616895ebce414e27700b5eaa5311158676ecc780bc2a29160ff16600281111561056657610566610fb2565b336000908152600260209081526040808320546003835292819020548151958652918501939093529183015260608201526080015b60405180910390a250505050565b600080546040517f27820851000000000000000000000000000000000000000000000000000000008152336004820152600160a060020a0390911690632782085190602401602060405180830381865afa15801561060b573d6000803e3d6000fd5b505050506040513d601f19601f8201168201806040525081019061062f9190610d92565b6003146106515760405160e560020a62461bcd02815260040161021e90610dab565b336000908152600160209081526040808320600160a060020a038616845290915290205460ff16600281111561068957610689610fb2565b90505b919050565b6000546040517f27820851000000000000000000000000000000000000000000000000000000008152336004820152600160a060020a0390911690632782085190602401602060405180830381865afa1580156106f2573d6000803e3d6000fd5b505050506040513d601f19601f820116820180604052508101906107169190610d92565b6003146107385760405160e560020a62461bcd02815260040161021e90610dab565b6000826107cc576040517ff0ca9ef6000000000000000000000000000000000000000000000000000000008152600160a060020a0385169063f0ca9ef690610784908590600401610ff9565b6020604051808303816000875af11580156107a3573d6000803e3d6000fd5b505050506040513d601f19601f820116820180604052508101906107c7919061102c565b610833565b83600160a060020a031663b7aab7f36040518163ffffffff1660e060020a0281526004016020604051808303816000875af115801561080f573d6000803e3d6000fd5b505050506040513d601f19601f82011682018060405250810190610833919061102c565b90508015610bb65782610872573360009081526005602052604090205461085b906001610fe1565b3360009081526005602052604090208190556108a0565b3360009081526004602052604090205461088d906001610fe1565b3360009081526004602052604090208190555b508215610af257600084600160a060020a031663a42f3f746040518163ffffffff1660e060020a028152600401602060405180830381865afa1580156108ea573d6000803e3d6000fd5b505050506040513d601f19601f8201168201806040525081019061090e9190611049565b905080600160a060020a031663522e11776040518163ffffffff1660e060020a0281526004016020604051808303816000875af1158015610953573d6000803e3d6000fd5b505050506040513d601f19601f82011682018060405250810190610977919061102c565b5080600160a060020a03167fad4953fc2efcbf2a0692f4eb4f919ce548102c655646c5f00b23fc9617b6819e82600160a060020a03166367e552b46040518163ffffffff1660e060020a028152600401602060405180830381865afa1580156109e4573d6000803e3d6000fd5b505050506040513d601f19601f82011682018060405250810190610a089190610d92565b83600160a060020a03166302f5ab146040518163ffffffff1660e060020a028152600401602060405180830381865afa158015610a49573d6000803e3d6000fd5b505050506040513d601f19601f82011682018060405250810190610a6d9190610d92565b84600160a060020a031663d1be9bfe6040518163ffffffff1660e060020a028152600401602060405180830381865afa158015610aae573d6000803e3d6000fd5b505050506040513d601f19601f82011682018060405250810190610ad29190610d92565b6040805193845260208401929092529082015260600160405180910390a2505b83600160a060020a03167ffbb29ab81adf43de5cc2461167b55924601ce9610c523a9e2947b92580088d9b85600160a060020a031663db748f4a6040518163ffffffff1660e060020a028152600401602060405180830381865afa158015610b5e573d6000803e3d6000fd5b505050506040513d601f19601f82011682018060405250810190610b829190610d92565b336000908152600460209081526040808320546005835292819020548151948552918401929092529082015260600161059b565b50505050565b600160a060020a0381168114610bd157600080fd5b50565b600060208284031215610be657600080fd5b8135610bf181610bbc565b9392505050565b600080600060608486031215610c0d57600080fd5b8335610c1881610bbc565b95602085013595506040909401359392505050565b8015158114610bd157600080fd5b7f4e487b7100000000000000000000000000000000000000000000000000000000600052604160045260246000fd5b604051610120810167ffffffffffffffff81118282101715610c8e57610c8e610c3b565b60405290565b604051601f8201601f1916810167ffffffffffffffff81118282101715610cbd57610cbd610c3b565b604052919050565b600067ffffffffffffffff821115610cdf57610cdf610c3b565b50601f01601f191660200190565b600080600060608486031215610d0257600080fd5b8335610d0d81610bbc565b92506020840135610d1d81610c2d565b9150604084013567ffffffffffffffff811115610d3957600080fd5b8401601f81018613610d4a57600080fd5b8035610d5d610d5882610cc5565b610c94565b818152876020838501011115610d7257600080fd5b816020840160208301376000602083830101528093505050509250925092565b600060208284031215610da457600080fd5b5051919050565b60208082526004908201527f4f52434300000000000000000000000000000000000000000000000000000000604082015260600190565b805161068c81610bbc565b60005b83811015610e08578181015183820152602001610df0565b83811115610bb65750506000910152565b600082601f830112610e2a57600080fd5b8151610e38610d5882610cc5565b818152846020838601011115610e4d57600080fd5b610e5e826020830160208701610ded565b949350505050565b600060208284031215610e7857600080fd5b815167ffffffffffffffff80821115610e9057600080fd5b908301906101208286031215610ea557600080fd5b610ead610c6a565b610eb683610de2565b8152610ec460208401610de2565b6020820152604083015182811115610edb57600080fd5b610ee787828601610e19565b604083015250606083015182811115610eff57600080fd5b610f0b87828601610e19565b606083015250608083015182811115610f2357600080fd5b610f2f87828601610e19565b60808301525060a083015160a082015260c083015160c082015260e083015160e08201526101009150818301518282015280935050505092915050565b7f4e487b7100000000000000000000000000000000000000000000000000000000600052601160045260246000fd5b600082821015610fad57610fad610f6c565b500390565b7f4e487b7100000000000000000000000000000000000000000000000000000000600052602160045260246000fd5b60008219821115610ff457610ff4610f6c565b500190565b6020815260008251806020840152611018816040850160208701610ded565b601f01601f19169190910160400192915050565b60006020828403121561103e57600080fd5b8151610bf181610c2d565b60006020828403121561105b57600080fd5b8151610bf181610bbc56fea26469706673582212203f147a230d5c690611ef4e9d638d4be33ce197a908ba2e5b4a77f41b14d5f59964736f6c634300080b0033",
  "immutableReferences": {},
  "source": "// SPDX-License-Identifier: MIT\r\npragma solidity ^0.8.11;\r\npragma experimental ABIEncoderV2;\r\n\r\nimport \"./User.sol\";\r\nimport \"./Product.sol\";\r\nimport \"./OrderRequestInfo.sol\";\r\n\r\ncontract Retailer {\r\n    User user;\r\n\r\n    constructor(address _userAddress) {\r\n        user = User(_userAddress);\r\n    }\r\n\r\n    modifier onlyRetailer() {\r\n        require(user.getUserRole(msg.sender) == 3, \"ORCC\");\r\n        _;\r\n    }\r\n\r\n    // Track sale status of each product batch.\r\n    mapping(address => mapping(address => SaleStatus)) ProductSaleStatus;\r\n    mapping(address => uint256) SoldOutCount;\r\n    mapping(address => uint256) DamageCount;\r\n    mapping(address => uint256) ApprovedCount;\r\n    mapping(address => uint256) RejectedCount;\r\n\r\n    //Enum Status - To hold different product sale status\r\n    enum SaleStatus {\r\n        approved,\r\n        damage,\r\n        sold\r\n    }\r\n\r\n    //Event to capture & dispatch product batch detalils & updated status on received\r\n    event UpdatedProductBatchStatusEvt(\r\n        address indexed productId,\r\n        uint256 status,\r\n        uint256 approvedCount,\r\n        uint256 rejectedCount\r\n    );\r\n\r\n    //Event to capture & dispatch product sale status\r\n    event UpdatedProductSaleStatusEvt(\r\n        address indexed productId,\r\n        uint256 updatedQty,\r\n        uint256 status,\r\n        uint256 soldOutCount,\r\n        uint256 damageCount\r\n    );\r\n\r\n    //Event to dispatch order request status after batch approved\r\n    event UpdatedOrderStatusEvt(\r\n        address indexed orderRequestId,\r\n        uint256 orderStatus,\r\n        uint256 submissionTimestamp,\r\n        uint256 orderModifiedDate\r\n    );\r\n\r\n    //Reject/Approve product batch by Retailer\r\n    //@param _productId Product Id address\r\n    //@param _isApprove Boolean flag for approve/reject\r\n    function updateProductBatchStatusOnReceive(\r\n        address _productId,\r\n        bool _isApprove,\r\n        string memory _reason\r\n    ) public onlyRetailer {\r\n        bool result = _isApprove\r\n            ? Product(_productId).approveProductBatch()\r\n            : Product(_productId).rejectProductBatch(_reason);\r\n        if (result) {\r\n            _isApprove\r\n                ? ApprovedCount[msg.sender] = ApprovedCount[msg.sender] + 1\r\n                : RejectedCount[msg.sender] = RejectedCount[msg.sender] + 1;\r\n            if (_isApprove) {\r\n                address _orderRequestId = Product(_productId)\r\n                    .getOrderRequestId();\r\n                OrderRequestInfo(_orderRequestId).complete();\r\n\r\n                //Dispatching event\r\n                emit UpdatedOrderStatusEvt(\r\n                    _orderRequestId,\r\n                    OrderRequestInfo(_orderRequestId).getOrderRequestStatus(),\r\n                    OrderRequestInfo(_orderRequestId)\r\n                        .getOrderSubmissionTimestamp(),\r\n                    OrderRequestInfo(_orderRequestId).getOrderModifiedDate()\r\n                );\r\n            }\r\n            //Dispatching event\r\n            emit UpdatedProductBatchStatusEvt(\r\n                _productId,\r\n                Product(_productId).getProductBatchStatus(),\r\n                ApprovedCount[msg.sender],\r\n                RejectedCount[msg.sender]\r\n            );\r\n        }\r\n    }\r\n\r\n    //Method to update product sale status\r\n    //@param _productId  Address Product Id\r\n    //@param _saleStatus uint256 Product sale status\r\n    function updateSaleStatus(\r\n        address _productId,\r\n        uint256 _saleStatus,\r\n        uint256 _qty\r\n    ) public onlyRetailer {\r\n        if (Product(_productId).getProductBatchStatus() != 6) {\r\n            revert(\"PROD_NOT_YET_APRVD\");\r\n        }\r\n        ProductBasicInfo memory _productBasicInfo = Product(_productId)\r\n            .getProductBasicInfo();\r\n        if (_qty > _productBasicInfo.quantity) {\r\n            revert(\"INVALID_QTY\");\r\n        }\r\n        _productBasicInfo.quantityRemain = _productBasicInfo.quantity - _qty;\r\n        Product(_productId).updateQuantity(_productBasicInfo.quantityRemain);\r\n        if (_productBasicInfo.quantityRemain == 0) {\r\n            ProductSaleStatus[msg.sender][_productId] = SaleStatus(_saleStatus);\r\n        }\r\n        if (_saleStatus == 2) {\r\n            SoldOutCount[msg.sender] = SoldOutCount[msg.sender] + 1;\r\n        } else if (_saleStatus == 1) {\r\n            DamageCount[msg.sender] = DamageCount[msg.sender] + 1;\r\n        }\r\n        emit UpdatedProductSaleStatusEvt(\r\n            _productId,\r\n            _productBasicInfo.quantityRemain,\r\n            uint256(ProductSaleStatus[msg.sender][_productId]),\r\n            SoldOutCount[msg.sender],\r\n            DamageCount[msg.sender]\r\n        );\r\n    }\r\n\r\n    //Get sale status of product\r\n    //@param _productId Address Product Id\r\n    function getProductSaleSatus(address _productId)\r\n        public\r\n        onlyRetailer\r\n        returns (uint256)\r\n    {\r\n        return uint256(ProductSaleStatus[msg.sender][_productId]);\r\n    }\r\n\r\n    //Get product sale status total count\r\n    function getSoldOutCount(address _retailer) public view returns (uint256) {\r\n        return SoldOutCount[_retailer];\r\n    }\r\n\r\n    //Get product damage total count\r\n    function getDamageCount(address _retailer) public view returns (uint256) {\r\n        return DamageCount[_retailer];\r\n    }\r\n\r\n    //Get product approved total count\r\n    function getApprovedCount(address _retailer) public view returns (uint256) {\r\n        return ApprovedCount[_retailer];\r\n    }\r\n\r\n    //Get product rejected total count\r\n    function getRejectedCount(address _retailer) public view returns (uint256) {\r\n        return RejectedCount[_retailer];\r\n    }\r\n}\r\n",
  "sourcePath": "C:\\Development\\Blockchain\\AAP-Blockchain\\aap_blockchainpoc_updated_version\\aap_supplychainpoc_blockchain\\contracts\\Retailer.sol",
  "compiler": {
    "name": "solc",
    "version": "0.8.11+commit.d7f03943.Emscripten.clang"
  },
  "schemaVersion": "3.4.4",
  "updatedAt": "2022-02-15T09:06:17.585Z",
  "networkType": "ethereum",
  "devdoc": {
    "kind": "dev",
    "methods": {},
    "version": 1
  },
  "userdoc": {
    "kind": "user",
    "methods": {},
    "version": 1
  }
}