{
  "contractName": "Transporter",
  "abi": [
    {
      "inputs": [
        {
          "internalType": "address",
          "name": "_userAddress",
          "type": "address"
        }
      ],
      "stateMutability": "nonpayable",
      "type": "constructor"
    },
    {
      "anonymous": false,
      "inputs": [
        {
          "indexed": true,
          "internalType": "address",
          "name": "productId",
          "type": "address"
        },
        {
          "indexed": false,
          "internalType": "uint256",
          "name": "status",
          "type": "uint256"
        }
      ],
      "name": "UpdatedProductBatchShipmentStatusEvt",
      "type": "event"
    },
    {
      "inputs": [
        {
          "internalType": "address",
          "name": "",
          "type": "address"
        },
        {
          "internalType": "uint256",
          "name": "",
          "type": "uint256"
        }
      ],
      "name": "RetailerTaggedProductBatchList",
      "outputs": [
        {
          "internalType": "address",
          "name": "",
          "type": "address"
        }
      ],
      "stateMutability": "view",
      "type": "function",
      "constant": true
    },
    {
      "inputs": [
        {
          "internalType": "address",
          "name": "_productId",
          "type": "address"
        },
        {
          "internalType": "string",
          "name": "_reason",
          "type": "string"
        }
      ],
      "name": "cancelInitiatedPackageShipment",
      "outputs": [],
      "stateMutability": "nonpayable",
      "type": "function"
    },
    {
      "inputs": [
        {
          "internalType": "address",
          "name": "_productId",
          "type": "address"
        },
        {
          "internalType": "address",
          "name": "_receiver",
          "type": "address"
        }
      ],
      "name": "loadProductBatchForShipmentToRetailer",
      "outputs": [],
      "stateMutability": "nonpayable",
      "type": "function"
    },
    {
      "inputs": [
        {
          "internalType": "address",
          "name": "_productId",
          "type": "address"
        }
      ],
      "name": "productBatchDeliveredToRetailer",
      "outputs": [],
      "stateMutability": "nonpayable",
      "type": "function"
    },
    {
      "inputs": [
        {
          "internalType": "address",
          "name": "_retailer",
          "type": "address"
        }
      ],
      "name": "getRetailerAssignedProductBatches",
      "outputs": [
        {
          "internalType": "address[]",
          "name": "",
          "type": "address[]"
        }
      ],
      "stateMutability": "view",
      "type": "function",
      "constant": true
    }
  ],
  "bytecode": "0x608060405234801561001057600080fd5b50604051610ab1380380610ab183398101604081905261002f91610054565b60008054600160a060020a031916600160a060020a0392909216919091179055610084565b60006020828403121561006657600080fd5b8151600160a060020a038116811461007d57600080fd5b9392505050565b610a1e806100936000396000f3fe608060405234801561001057600080fd5b506004361061005a5760e060020a60003504630755d274811461005f57806313fc9d471461007457806315884c83146100875780633944bfce146100b7578063eb2e8961146100ca575b600080fd5b61007261006d366004610764565b6100ea565b005b6100726100823660046107b5565b6102c2565b61009a610095366004610877565b6104b3565b604051600160a060020a0390911681526020015b60405180910390f35b6100726100c53660046108a1565b6104eb565b6100dd6100d8366004610764565b6106d2565b6040516100ae91906108d4565b6000546040517f27820851000000000000000000000000000000000000000000000000000000008152336004820152600160a060020a0390911690632782085190602401602060405180830381865afa15801561014b573d6000803e3d6000fd5b505050506040513d601f19601f8201168201806040525081019061016f9190610921565b6004146101b1576040517f08c379a00000000000000000000000000000000000000000000000000000000081526004016101a89061093a565b60405180910390fd5b80600160a060020a031663521634df6040518163ffffffff1660e060020a0281526004016020604051808303816000875af11580156101f4573d6000803e3d6000fd5b505050506040513d601f19601f820116820180604052508101906102189190610971565b156102bf5780600160a060020a03167f36775eee042f076e2cbd9468d0dce1f37e5038a986289960a4ec10bda6d0c03d82600160a060020a031663db748f4a6040518163ffffffff1660e060020a028152600401602060405180830381865afa158015610289573d6000803e3d6000fd5b505050506040513d601f19601f820116820180604052508101906102ad9190610921565b60405190815260200160405180910390a25b50565b6000546040517f27820851000000000000000000000000000000000000000000000000000000008152336004820152600160a060020a0390911690632782085190602401602060405180830381865afa158015610323573d6000803e3d6000fd5b505050506040513d601f19601f820116820180604052508101906103479190610921565b600414610380576040517f08c379a00000000000000000000000000000000000000000000000000000000081526004016101a89061093a565b6040517f10a95f96000000000000000000000000000000000000000000000000000000008152600160a060020a038316906310a95f96906103c5908490600401610993565b6020604051808303816000875af11580156103e4573d6000803e3d6000fd5b505050506040513d601f19601f820116820180604052508101906104089190610971565b156104af5781600160a060020a03167f36775eee042f076e2cbd9468d0dce1f37e5038a986289960a4ec10bda6d0c03d83600160a060020a031663db748f4a6040518163ffffffff1660e060020a028152600401602060405180830381865afa158015610479573d6000803e3d6000fd5b505050506040513d601f19601f8201168201806040525081019061049d9190610921565b60405190815260200160405180910390a25b5050565b600160205281600052604060002081815481106104cf57600080fd5b600091825260209091200154600160a060020a03169150829050565b6000546040517f27820851000000000000000000000000000000000000000000000000000000008152336004820152600160a060020a0390911690632782085190602401602060405180830381865afa15801561054c573d6000803e3d6000fd5b505050506040513d601f19601f820116820180604052508101906105709190610921565b6004146105a9576040517f08c379a00000000000000000000000000000000000000000000000000000000081526004016101a89061093a565b81600160a060020a031663ea622a7f6040518163ffffffff1660e060020a0281526004016020604051808303816000875af11580156105ec573d6000803e3d6000fd5b505050506040513d601f19601f820116820180604052508101906106109190610971565b156104af57600160a060020a03818116600090815260016020818152604080842080549384018155845292819020909101805473ffffffffffffffffffffffffffffffffffffffff1916938616938417905581517fdb748f4a00000000000000000000000000000000000000000000000000000000815291517f36775eee042f076e2cbd9468d0dce1f37e5038a986289960a4ec10bda6d0c03d92849263db748f4a926004808401938290030181865afa158015610479573d6000803e3d6000fd5b600160a060020a03811660009081526001602090815260409182902080548351818402810184019094528084526060939283018282801561073c57602002820191906000526020600020905b8154600160a060020a0316815260019091019060200180831161071e575b50505050509050919050565b8035600160a060020a038116811461075f57600080fd5b919050565b60006020828403121561077657600080fd5b61077f82610748565b9392505050565b7f4e487b7100000000000000000000000000000000000000000000000000000000600052604160045260246000fd5b600080604083850312156107c857600080fd5b6107d183610748565b9150602083013567ffffffffffffffff808211156107ee57600080fd5b818501915085601f83011261080257600080fd5b81358181111561081457610814610786565b604051601f8201601f19908116603f0116810190838211818310171561083c5761083c610786565b8160405282815288602084870101111561085557600080fd5b8260208601602083013760006020848301015280955050505050509250929050565b6000806040838503121561088a57600080fd5b61089383610748565b946020939093013593505050565b600080604083850312156108b457600080fd5b6108bd83610748565b91506108cb60208401610748565b90509250929050565b6020808252825182820181905260009190848201906040850190845b81811015610915578351600160a060020a0316835292840192918401916001016108f0565b50909695505050505050565b60006020828403121561093357600080fd5b5051919050565b60208082526004908201527f4f54434300000000000000000000000000000000000000000000000000000000604082015260600190565b60006020828403121561098357600080fd5b8151801515811461077f57600080fd5b600060208083528351808285015260005b818110156109c0578581018301518582016040015282016109a4565b818111156109d2576000604083870101525b50601f01601f191692909201604001939250505056fea2646970667358221220f7583bce4e5c470da9c92a8a4111a069a1ebcb3ac6537185beccd5a437e1402464736f6c634300080b0033",
  "immutableReferences": {},
  "source": "// SPDX-License-Identifier: MIT\r\npragma solidity >=0.7.0;\r\npragma experimental ABIEncoderV2;\r\n\r\nimport \"./User.sol\";\r\nimport \"./UserInfo.sol\";\r\nimport \"./Product.sol\";\r\n\r\ncontract Transporter {\r\n    User user;\r\n\r\n    constructor(address _userAddress) {\r\n        user = User(_userAddress);\r\n    }\r\n\r\n    modifier onlyTransporter() {\r\n        require(user.getUserRole(msg.sender) == 4, \"OTCC\");\r\n        _;\r\n    }\r\n\r\n    //Hold all the product batches initiated for shipment by transporter to deliver at retailer store\r\n    mapping(address => address[]) public RetailerTaggedProductBatchList;\r\n\r\n    //Event to capture & dispatch updated product detalils after shipment initiated\r\n    event UpdatedProductBatchShipmentStatusEvt(\r\n        address indexed productId,\r\n        uint256 status\r\n    );\r\n\r\n    //Method to cancel package shipment\r\n    //@param _productId Address product id\r\n    function cancelInitiatedPackageShipment(\r\n        address _productId,\r\n        string memory _reason\r\n    ) public onlyTransporter {\r\n        // bool result = Product(_productId).cancelPackageShipment(_reason);\r\n        if (Product(_productId).cancelPackageShipment(_reason)) {\r\n            //Dispatching event\r\n            emit UpdatedProductBatchShipmentStatusEvt(\r\n                _productId,\r\n                Product(_productId).getProductBatchStatus()\r\n            );\r\n        }\r\n    }\r\n\r\n    //Load product batch from sender & deliver to associated receiver (Dist-retailer)\r\n    //@param _productId Product batch Id\r\n    //@param _receiver Retailer store\r\n    function loadProductBatchForShipmentToRetailer(\r\n        address _productId,\r\n        address _receiver\r\n    ) public onlyTransporter {\r\n        if (Product(_productId).initiateProductBatchForShipment()) {\r\n            //Capture all the product batches which are initiated for shipment\r\n            RetailerTaggedProductBatchList[_receiver].push(_productId);\r\n            //dispatching event\r\n            emit UpdatedProductBatchShipmentStatusEvt(\r\n                _productId,\r\n                Product(_productId).getProductBatchStatus()\r\n            );\r\n        }\r\n    }\r\n\r\n    //deliver to associated receiver & update status (Dist-Retailer)\r\n    //@param _productId Product batch Id\r\n    function productBatchDeliveredToRetailer(address _productId)\r\n        public\r\n        onlyTransporter\r\n    {\r\n        if (Product(_productId).updateProductBatchStatusToDeliver()) {\r\n            //dispatching event\r\n            emit UpdatedProductBatchShipmentStatusEvt(\r\n                _productId,\r\n                Product(_productId).getProductBatchStatus()\r\n            );\r\n        }\r\n    }\r\n\r\n    //get list of product batches initiated for transfer by distributor to transporter\r\n    function getRetailerAssignedProductBatches(address _retailer)\r\n        public\r\n        view\r\n        returns (address[] memory)\r\n    {\r\n        return RetailerTaggedProductBatchList[_retailer];\r\n    }\r\n}\r\n",
  "sourcePath": "C:\\Development\\Blockchain\\AAP-Blockchain\\aap_blockchainpoc_updated_version\\aap_supplychainpoc_blockchain\\contracts\\Transporter.sol",
  "compiler": {
    "name": "solc",
    "version": "0.8.11+commit.d7f03943.Emscripten.clang"
  },
  "schemaVersion": "3.4.4",
  "updatedAt": "2022-02-15T09:06:17.525Z",
  "networkType": "ethereum",
  "devdoc": {
    "kind": "dev",
    "methods": {},
    "version": 1
  },
  "userdoc": {
    "kind": "user",
    "methods": {},
    "version": 1
  }
}