{
  "contractName": "User",
  "abi": [
    {
      "inputs": [],
      "name": "OWNER",
      "outputs": [
        {
          "internalType": "address",
          "name": "",
          "type": "address"
        }
      ],
      "stateMutability": "view",
      "type": "function",
      "constant": true
    },
    {
      "inputs": [
        {
          "internalType": "uint256",
          "name": "",
          "type": "uint256"
        }
      ],
      "name": "UserList",
      "outputs": [
        {
          "internalType": "address",
          "name": "userAddress",
          "type": "address"
        },
        {
          "internalType": "string",
          "name": "userName",
          "type": "string"
        },
        {
          "internalType": "string",
          "name": "userLocation",
          "type": "string"
        },
        {
          "internalType": "enum roles",
          "name": "userRole",
          "type": "uint8"
        },
        {
          "internalType": "string",
          "name": "userStatus",
          "type": "string"
        },
        {
          "internalType": "bool",
          "name": "isDeleted",
          "type": "bool"
        },
        {
          "internalType": "uint256",
          "name": "registrationDate",
          "type": "uint256"
        },
        {
          "internalType": "string",
          "name": "email",
          "type": "string"
        },
        {
          "internalType": "string",
          "name": "fullName",
          "type": "string"
        },
        {
          "internalType": "uint256",
          "name": "phone",
          "type": "uint256"
        }
      ],
      "stateMutability": "view",
      "type": "function",
      "constant": true
    },
    {
      "inputs": [
        {
          "internalType": "address",
          "name": "",
          "type": "address"
        }
      ],
      "name": "UsersDetails",
      "outputs": [
        {
          "internalType": "address",
          "name": "userAddress",
          "type": "address"
        },
        {
          "internalType": "string",
          "name": "userName",
          "type": "string"
        },
        {
          "internalType": "string",
          "name": "userLocation",
          "type": "string"
        },
        {
          "internalType": "enum roles",
          "name": "userRole",
          "type": "uint8"
        },
        {
          "internalType": "string",
          "name": "userStatus",
          "type": "string"
        },
        {
          "internalType": "bool",
          "name": "isDeleted",
          "type": "bool"
        },
        {
          "internalType": "uint256",
          "name": "registrationDate",
          "type": "uint256"
        },
        {
          "internalType": "string",
          "name": "email",
          "type": "string"
        },
        {
          "internalType": "string",
          "name": "fullName",
          "type": "string"
        },
        {
          "internalType": "uint256",
          "name": "phone",
          "type": "uint256"
        }
      ],
      "stateMutability": "view",
      "type": "function",
      "constant": true
    },
    {
      "inputs": [
        {
          "internalType": "address",
          "name": "_address",
          "type": "address"
        },
        {
          "internalType": "string",
          "name": "_name",
          "type": "string"
        },
        {
          "internalType": "string",
          "name": "_location",
          "type": "string"
        },
        {
          "internalType": "uint256",
          "name": "_role",
          "type": "uint256"
        },
        {
          "internalType": "string",
          "name": "_userStatus",
          "type": "string"
        },
        {
          "internalType": "string",
          "name": "_fullName",
          "type": "string"
        },
        {
          "internalType": "uint256",
          "name": "_phone",
          "type": "uint256"
        },
        {
          "internalType": "string",
          "name": "_email",
          "type": "string"
        }
      ],
      "name": "registerAdmin",
      "outputs": [],
      "stateMutability": "nonpayable",
      "type": "function"
    },
    {
      "inputs": [
        {
          "internalType": "address",
          "name": "_address",
          "type": "address"
        },
        {
          "internalType": "string",
          "name": "_name",
          "type": "string"
        },
        {
          "internalType": "string",
          "name": "_location",
          "type": "string"
        },
        {
          "internalType": "uint256",
          "name": "_role",
          "type": "uint256"
        },
        {
          "internalType": "string",
          "name": "_userStatus",
          "type": "string"
        },
        {
          "internalType": "string",
          "name": "_fullName",
          "type": "string"
        },
        {
          "internalType": "uint256",
          "name": "_phone",
          "type": "uint256"
        },
        {
          "internalType": "string",
          "name": "_email",
          "type": "string"
        }
      ],
      "name": "registerUser",
      "outputs": [],
      "stateMutability": "nonpayable",
      "type": "function"
    },
    {
      "inputs": [
        {
          "internalType": "address",
          "name": "_address",
          "type": "address"
        },
        {
          "internalType": "string",
          "name": "_location",
          "type": "string"
        },
        {
          "internalType": "string",
          "name": "_userStatus",
          "type": "string"
        },
        {
          "internalType": "string",
          "name": "_fullName",
          "type": "string"
        },
        {
          "internalType": "uint256",
          "name": "_phone",
          "type": "uint256"
        },
        {
          "internalType": "string",
          "name": "_email",
          "type": "string"
        }
      ],
      "name": "updateUser",
      "outputs": [],
      "stateMutability": "nonpayable",
      "type": "function"
    },
    {
      "inputs": [
        {
          "internalType": "address",
          "name": "_address",
          "type": "address"
        }
      ],
      "name": "deleteUser",
      "outputs": [],
      "stateMutability": "nonpayable",
      "type": "function"
    },
    {
      "inputs": [
        {
          "internalType": "address",
          "name": "_address",
          "type": "address"
        }
      ],
      "name": "revokeUser",
      "outputs": [],
      "stateMutability": "nonpayable",
      "type": "function"
    },
    {
      "inputs": [
        {
          "internalType": "address",
          "name": "_address",
          "type": "address"
        },
        {
          "internalType": "string",
          "name": "_userName",
          "type": "string"
        }
      ],
      "name": "validateUser",
      "outputs": [
        {
          "components": [
            {
              "internalType": "address",
              "name": "userAddress",
              "type": "address"
            },
            {
              "internalType": "string",
              "name": "userName",
              "type": "string"
            },
            {
              "internalType": "string",
              "name": "userLocation",
              "type": "string"
            },
            {
              "internalType": "enum roles",
              "name": "userRole",
              "type": "uint8"
            },
            {
              "internalType": "string",
              "name": "userStatus",
              "type": "string"
            },
            {
              "internalType": "bool",
              "name": "isDeleted",
              "type": "bool"
            },
            {
              "internalType": "uint256",
              "name": "registrationDate",
              "type": "uint256"
            },
            {
              "internalType": "string",
              "name": "email",
              "type": "string"
            },
            {
              "internalType": "string",
              "name": "fullName",
              "type": "string"
            },
            {
              "internalType": "uint256",
              "name": "phone",
              "type": "uint256"
            }
          ],
          "internalType": "struct UserInfo",
          "name": "",
          "type": "tuple"
        }
      ],
      "stateMutability": "view",
      "type": "function",
      "constant": true
    },
    {
      "inputs": [
        {
          "internalType": "address",
          "name": "_address",
          "type": "address"
        }
      ],
      "name": "getUserInfo",
      "outputs": [
        {
          "components": [
            {
              "internalType": "address",
              "name": "userAddress",
              "type": "address"
            },
            {
              "internalType": "string",
              "name": "userName",
              "type": "string"
            },
            {
              "internalType": "string",
              "name": "userLocation",
              "type": "string"
            },
            {
              "internalType": "enum roles",
              "name": "userRole",
              "type": "uint8"
            },
            {
              "internalType": "string",
              "name": "userStatus",
              "type": "string"
            },
            {
              "internalType": "bool",
              "name": "isDeleted",
              "type": "bool"
            },
            {
              "internalType": "uint256",
              "name": "registrationDate",
              "type": "uint256"
            },
            {
              "internalType": "string",
              "name": "email",
              "type": "string"
            },
            {
              "internalType": "string",
              "name": "fullName",
              "type": "string"
            },
            {
              "internalType": "uint256",
              "name": "phone",
              "type": "uint256"
            }
          ],
          "internalType": "struct UserInfo",
          "name": "",
          "type": "tuple"
        }
      ],
      "stateMutability": "view",
      "type": "function",
      "constant": true
    },
    {
      "inputs": [],
      "name": "getAllRegisteredUsers",
      "outputs": [
        {
          "components": [
            {
              "internalType": "address",
              "name": "userAddress",
              "type": "address"
            },
            {
              "internalType": "string",
              "name": "userName",
              "type": "string"
            },
            {
              "internalType": "string",
              "name": "userLocation",
              "type": "string"
            },
            {
              "internalType": "enum roles",
              "name": "userRole",
              "type": "uint8"
            },
            {
              "internalType": "string",
              "name": "userStatus",
              "type": "string"
            },
            {
              "internalType": "bool",
              "name": "isDeleted",
              "type": "bool"
            },
            {
              "internalType": "uint256",
              "name": "registrationDate",
              "type": "uint256"
            },
            {
              "internalType": "string",
              "name": "email",
              "type": "string"
            },
            {
              "internalType": "string",
              "name": "fullName",
              "type": "string"
            },
            {
              "internalType": "uint256",
              "name": "phone",
              "type": "uint256"
            }
          ],
          "internalType": "struct UserInfo[]",
          "name": "",
          "type": "tuple[]"
        }
      ],
      "stateMutability": "view",
      "type": "function",
      "constant": true
    },
    {
      "inputs": [
        {
          "internalType": "address",
          "name": "_address",
          "type": "address"
        }
      ],
      "name": "getUserRole",
      "outputs": [
        {
          "internalType": "uint256",
          "name": "",
          "type": "uint256"
        }
      ],
      "stateMutability": "view",
      "type": "function",
      "constant": true
    }
  ],
  "bytecode": "0x60a060405234801561001057600080fd5b50336080526080516121126100366000396000818160db01526111c301526121126000f3fe608060405234801561001057600080fd5b50600436106100d1576000357c010000000000000000000000000000000000000000000000000000000090048063a22d986b1161008e578063a22d986b146101ae578063babe1655146101c1578063bb4f2012146101d4578063d939710f146101e7578063eaa2f67f146101fa578063ef097fc41461020d57600080fd5b8063117803e3146100d65780631ecd65631461011a5780632782085114610143578063397388af146101645780635c60f226146101795780636386c1c71461018e575b600080fd5b6100fd7f000000000000000000000000000000000000000000000000000000000000000081565b604051600160a060020a0390911681526020015b60405180910390f35b61012d6101283660046119e6565b610220565b6040516101119a99989796959493929190611a8c565b6101566101513660046119e6565b610531565b604051908152602001610111565b61016c610567565b6040516101119190611c0f565b61018c6101873660046119e6565b610911565b005b6101a161019c3660046119e6565b610a35565b6040516101119190611c70565b61018c6101bc366004611d29565b610dab565b61012d6101cf366004611e1f565b611179565b61018c6101e2366004611d29565b6111b8565b61018c6101f5366004611e38565b611235565b6101a1610208366004611efe565b61156b565b61018c61021b3660046119e6565b6116fb565b600160208190526000918252604090912080549181018054600160a060020a039093169261024d90611f4c565b80601f016020809104026020016040519081016040528092919081815260200182805461027990611f4c565b80156102c65780601f1061029b576101008083540402835291602001916102c6565b820191906000526020600020905b8154815290600101906020018083116102a957829003601f168201915b5050505050908060020180546102db90611f4c565b80601f016020809104026020016040519081016040528092919081815260200182805461030790611f4c565b80156103545780601f1061032957610100808354040283529160200191610354565b820191906000526020600020905b81548152906001019060200180831161033757829003601f168201915b5050506003840154600485018054949560ff90921694919350915061037890611f4c565b80601f01602080910402602001604051908101604052809291908181526020018280546103a490611f4c565b80156103f15780601f106103c6576101008083540402835291602001916103f1565b820191906000526020600020905b8154815290600101906020018083116103d457829003601f168201915b5050505060058301546006840154600785018054949560ff909316949193509061041a90611f4c565b80601f016020809104026020016040519081016040528092919081815260200182805461044690611f4c565b80156104935780601f1061046857610100808354040283529160200191610493565b820191906000526020600020905b81548152906001019060200180831161047657829003601f168201915b5050505050908060080180546104a890611f4c565b80601f01602080910402602001604051908101604052809291908181526020018280546104d490611f4c565b80156105215780601f106104f657610100808354040283529160200191610521565b820191906000526020600020905b81548152906001019060200180831161050457829003601f168201915b505050505090806009015490508a565b600160a060020a03811660009081526001602052604081206003015460ff16600581111561056157610561611a4e565b92915050565b60606000805480602002602001604051908101604052809291908181526020016000905b82821015610908576000848152602090819020604080516101408101909152600a85029091018054600160a060020a0316825260018101805492939192918401916105d590611f4c565b80601f016020809104026020016040519081016040528092919081815260200182805461060190611f4c565b801561064e5780601f106106235761010080835404028352916020019161064e565b820191906000526020600020905b81548152906001019060200180831161063157829003601f168201915b5050505050815260200160028201805461066790611f4c565b80601f016020809104026020016040519081016040528092919081815260200182805461069390611f4c565b80156106e05780601f106106b5576101008083540402835291602001916106e0565b820191906000526020600020905b8154815290600101906020018083116106c357829003601f168201915b5050509183525050600382015460209091019060ff16600581111561070757610707611a4e565b600581111561071857610718611a4e565b815260200160048201805461072c90611f4c565b80601f016020809104026020016040519081016040528092919081815260200182805461075890611f4c565b80156107a55780601f1061077a576101008083540402835291602001916107a5565b820191906000526020600020905b81548152906001019060200180831161078857829003601f168201915b5050509183525050600582015460ff1615156020820152600682015460408201526007820180546060909201916107db90611f4c565b80601f016020809104026020016040519081016040528092919081815260200182805461080790611f4c565b80156108545780601f1061082957610100808354040283529160200191610854565b820191906000526020600020905b81548152906001019060200180831161083757829003601f168201915b5050505050815260200160088201805461086d90611f4c565b80601f016020809104026020016040519081016040528092919081815260200182805461089990611f4c565b80156108e65780601f106108bb576101008083540402835291602001916108e6565b820191906000526020600020905b8154815290600101906020018083116108c957829003601f168201915b505050505081526020016009820154815250508152602001906001019061058b565b50505050905090565b3360009081526001602052604081206003015460ff16600581111561093857610938611a4e565b146109615760405160e560020a62461bcd02815260040161095890611f8a565b60405180910390fd5b600160a060020a038082166000818152600160205260409020549091161461099e5760405160e560020a62461bcd02815260040161095890611fc1565b604080518082018252600881527f496e6163746976650000000000000000000000000000000000000000000000006020808301918252600160a060020a038516600090815260019091529290922090516109fe92600490920191906118c2565b50600160a060020a0381166000908152600160208190526040909120600501805460ff191682179055610a329082906117a6565b50565b610a3d611946565b600160a060020a038083166000908152600160208181526040928390208351610140810190945280549094168352908301805492939291840191610a8090611f4c565b80601f0160208091040260200160405190810160405280929190818152602001828054610aac90611f4c565b8015610af95780601f10610ace57610100808354040283529160200191610af9565b820191906000526020600020905b815481529060010190602001808311610adc57829003601f168201915b50505050508152602001600282018054610b1290611f4c565b80601f0160208091040260200160405190810160405280929190818152602001828054610b3e90611f4c565b8015610b8b5780601f10610b6057610100808354040283529160200191610b8b565b820191906000526020600020905b815481529060010190602001808311610b6e57829003601f168201915b5050509183525050600382015460209091019060ff166005811115610bb257610bb2611a4e565b6005811115610bc357610bc3611a4e565b8152602001600482018054610bd790611f4c565b80601f0160208091040260200160405190810160405280929190818152602001828054610c0390611f4c565b8015610c505780601f10610c2557610100808354040283529160200191610c50565b820191906000526020600020905b815481529060010190602001808311610c3357829003601f168201915b5050509183525050600582015460ff161515602082015260068201546040820152600782018054606090920191610c8690611f4c565b80601f0160208091040260200160405190810160405280929190818152602001828054610cb290611f4c565b8015610cff5780601f10610cd457610100808354040283529160200191610cff565b820191906000526020600020905b815481529060010190602001808311610ce257829003601f168201915b50505050508152602001600882018054610d1890611f4c565b80601f0160208091040260200160405190810160405280929190818152602001828054610d4490611f4c565b8015610d915780601f10610d6657610100808354040283529160200191610d91565b820191906000526020600020905b815481529060010190602001808311610d7457829003601f168201915b505050505081526020016009820154815250509050919050565b3360009081526001602052604081206003015460ff166005811115610dd257610dd2611a4e565b14610df25760405160e560020a62461bcd02815260040161095890611f8a565b600160a060020a038089166000818152600160205260409020549091161415610e605760405160e560020a62461bcd02815260206004820152600960248201527f5553525f455849535400000000000000000000000000000000000000000000006044820152606401610958565b610e68611946565b600160a060020a03891681526020810188905260408101879052856005811115610e9457610e94611a4e565b81606001906005811115610eaa57610eaa611a4e565b90816005811115610ebd57610ebd611a4e565b90525060808101859052600060a082018190524260c083015260e0820183905261012082018490526101008201859052600160a060020a038a811682526001602081815260409093208451815473ffffffffffffffffffffffffffffffffffffffff191693169290921782558284015180518594610f3f9385019201906118c2565b5060408201518051610f5b9160028401916020909101906118c2565b50606082015160038201805460ff19166001836005811115610f7f57610f7f611a4e565b021790555060808201518051610f9f9160048401916020909101906118c2565b5060a082015160058201805460ff191691151591909117905560c0820151600682015560e08201518051610fdd9160078401916020909101906118c2565b506101008201518051610ffa9160088401916020909101906118c2565b5061012091909101516009909101556000805460018101825590805281517f290decd9548b62a8d60345a988386fc84ba6bc95484008f6362f93160ef3e563600a909202918201805473ffffffffffffffffffffffffffffffffffffffff1916600160a060020a03909216919091178155602080840151805185946110a5937f290decd9548b62a8d60345a988386fc84ba6bc95484008f6362f93160ef3e5649091019201906118c2565b50604082015180516110c19160028401916020909101906118c2565b50606082015160038201805460ff191660018360058111156110e5576110e5611a4e565b0217905550608082015180516111059160048401916020909101906118c2565b5060a082015160058201805460ff191691151591909117905560c0820151600682015560e082015180516111439160078401916020909101906118c2565b5061010082015180516111609160088401916020909101906118c2565b5061012082015181600901555050505050505050505050565b6000818154811061118957600080fd5b60009182526020909120600a909102018054600182018054600160a060020a0390921693509061024d90611f4c565b33600160a060020a037f00000000000000000000000000000000000000000000000000000000000000001614610df25760405160e560020a62461bcd0281526004016109589060208082526004908201527f4f57434300000000000000000000000000000000000000000000000000000000604082015260600190565b3360009081526001602052604081206003015460ff16600581111561125c5761125c611a4e565b1461127c5760405160e560020a62461bcd02815260040161095890611f8a565b600160a060020a03808716600081815260016020526040902054909116146112b95760405160e560020a62461bcd02815260040161095890611fc1565b600160a060020a03861660009081526001602052604090206005015460ff16156113285760405160e560020a62461bcd02815260206004820152600b60248201527f5553525f44454c455445440000000000000000000000000000000000000000006044820152606401610958565b600160a060020a03861660009081526001602090815260409091208651611357926002909201918801906118c2565b50600160a060020a03861660009081526001602090815260409091208551611387926004909201918701906118c2565b50600160a060020a038616600090815260016020908152604090912084516113b7926008909201918601906118c2565b50600160a060020a03861660009081526001602090815260409091206009810184905582516113ee926007909201918401906118c2565b506000805b6000548110156114545787600160a060020a03166000828154811061141a5761141a611ff8565b60009182526020909120600a9091020154600160a060020a0316141561144257809150611454565b8061144c81612011565b9150506113f3565b50856000828154811061146957611469611ff8565b90600052602060002090600a0201600201908051906020019061148d9291906118c2565b5084600082815481106114a2576114a2611ff8565b90600052602060002090600a020160040190805190602001906114c69291906118c2565b5083600082815481106114db576114db611ff8565b90600052602060002090600a020160080190805190602001906114ff9291906118c2565b50826000828154811061151457611514611ff8565b90600052602060002090600a020160090181905550816000828154811061153d5761153d611ff8565b90600052602060002090600a020160070190805190602001906115619291906118c2565b5050505050505050565b611573611946565b600160a060020a03808416600081815260016020526040902054909116146115b05760405160e560020a62461bcd02815260040161095890611fc1565b81805190602001206001600085600160a060020a0316600160a060020a031681526020019081526020016000206001016040516115ed919061203d565b6040518091039020146116155760405160e560020a62461bcd02815260040161095890611fc1565b604080518082018252600681527f4163746976650000000000000000000000000000000000000000000000000000602091820152600160a060020a0385166000908152600190915281902090517ff07b88471cd28dc438f2291190512bd968fbd79b8c86b9ed015e51c1261d911f916116939160049091019061203d565b6040518091039020146116eb5760405160e560020a62461bcd02815260206004820152600d60248201527f5553525f4e545f414354495645000000000000000000000000000000000000006044820152606401610958565b6116f483610a35565b9392505050565b3360009081526001602052604081206003015460ff16600581111561172257611722611a4e565b146117425760405160e560020a62461bcd02815260040161095890611f8a565b600160a060020a038082166000818152600160205260409020549091161461177f5760405160e560020a62461bcd02815260040161095890611fc1565b600160a060020a03166000908152600160205260409020600301805460ff19166005179055565b6000805b60005481101561180b5783600160a060020a0316600082815481106117d1576117d1611ff8565b60009182526020909120600a9091020154600160a060020a031614156117f95780915061180b565b8061180381612011565b9150506117aa565b506040518060400160405280600881526020017f496e6163746976650000000000000000000000000000000000000000000000008152506000828154811061185557611855611ff8565b90600052602060002090600a020160040190805190602001906118799291906118c2565b50600182151514156118bd5760016000828154811061189a5761189a611ff8565b60009182526020909120600a90910201600501805460ff19169115159190911790555b505050565b8280546118ce90611f4c565b90600052602060002090601f0160209004810192826118f05760008555611936565b82601f1061190957805160ff1916838001178555611936565b82800160010185558215611936579182015b8281111561193657825182559160200191906001019061191b565b506119429291506119b5565b5090565b6040518061014001604052806000600160a060020a0316815260200160608152602001606081526020016000600581111561198357611983611a4e565b815260200160608152602001600015158152602001600081526020016060815260200160608152602001600081525090565b5b8082111561194257600081556001016119b6565b8035600160a060020a03811681146119e157600080fd5b919050565b6000602082840312156119f857600080fd5b6116f4826119ca565b6000815180845260005b81811015611a2757602081850181015186830182015201611a0b565b81811115611a39576000602083870101525b50601f01601f19169290920160200192915050565b60e060020a634e487b7102600052602160045260246000fd5b60068110611a885760e060020a634e487b7102600052602160045260246000fd5b9052565b6000610140600160a060020a038d168352806020840152611aaf8184018d611a01565b90508281036040840152611ac3818c611a01565b9050611ad2606084018b611a67565b8281036080840152611ae4818a611a01565b905087151560a08401528660c084015282810360e0840152611b068187611a01565b9050828103610100840152611b1b8186611a01565b915050826101208301529b9a5050505050505050505050565b8051600160a060020a0316825260006101406020830151816020860152611b5d82860182611a01565b91505060408301518482036040860152611b778282611a01565b9150506060830151611b8c6060860182611a67565b5060808301518482036080860152611ba48282611a01565b91505060a0830151611bba60a086018215159052565b5060c083015160c085015260e083015184820360e0860152611bdc8282611a01565b9150506101008084015185830382870152611bf78382611a01565b61012095860151969095019590955250919392505050565b600060208083018184528085518083526040860191506040848202870101925083870160005b82811015611c6357603f19888603018452611c51858351611b34565b94509285019290850190600101611c35565b5092979650505050505050565b6020815260006116f46020830184611b34565b60e060020a634e487b7102600052604160045260246000fd5b600082601f830112611cad57600080fd5b813567ffffffffffffffff80821115611cc857611cc8611c83565b604051601f8301601f19908116603f01168101908282118183101715611cf057611cf0611c83565b81604052838152866020858801011115611d0957600080fd5b836020870160208301376000602085830101528094505050505092915050565b600080600080600080600080610100898b031215611d4657600080fd5b611d4f896119ca565b9750602089013567ffffffffffffffff80821115611d6c57600080fd5b611d788c838d01611c9c565b985060408b0135915080821115611d8e57600080fd5b611d9a8c838d01611c9c565b975060608b0135965060808b0135915080821115611db757600080fd5b611dc38c838d01611c9c565b955060a08b0135915080821115611dd957600080fd5b611de58c838d01611c9c565b945060c08b0135935060e08b0135915080821115611e0257600080fd5b50611e0f8b828c01611c9c565b9150509295985092959890939650565b600060208284031215611e3157600080fd5b5035919050565b60008060008060008060c08789031215611e5157600080fd5b611e5a876119ca565b9550602087013567ffffffffffffffff80821115611e7757600080fd5b611e838a838b01611c9c565b96506040890135915080821115611e9957600080fd5b611ea58a838b01611c9c565b95506060890135915080821115611ebb57600080fd5b611ec78a838b01611c9c565b94506080890135935060a0890135915080821115611ee457600080fd5b50611ef189828a01611c9c565b9150509295509295509295565b60008060408385031215611f1157600080fd5b611f1a836119ca565b9150602083013567ffffffffffffffff811115611f3657600080fd5b611f4285828601611c9c565b9150509250929050565b600281046001821680611f6057607f821691505b60208210811415611f845760e060020a634e487b7102600052602260045260246000fd5b50919050565b60208082526004908201527f4f41434300000000000000000000000000000000000000000000000000000000604082015260600190565b6020808252600a908201527f5553525f4e545f52454700000000000000000000000000000000000000000000604082015260600190565b60e060020a634e487b7102600052603260045260246000fd5b60006000198214156120365760e060020a634e487b7102600052601160045260246000fd5b5060010190565b815460009081906002810460018083168061205957607f831692505b602080841082141561207c5760e060020a634e487b710286526022600452602486fd5b81801561209057600181146120a1576120ce565b60ff198616895284890196506120ce565b60008a81526020902060005b868110156120c65781548b8201529085019083016120ad565b505084890196505b50949897505050505050505056fea26469706673582212204aa52453c7517438ff1eeb676bb8fbb7c4395440aadeefbe519a43492ba7a97964736f6c634300080b0033",
  "immutableReferences": {
    "955": [
      {
        "length": 32,
        "start": 219
      },
      {
        "length": 32,
        "start": 4547
      }
    ]
  },
  "source": "// SPDX-License-Identifier: MIT\r\npragma solidity >=0.7.0;\r\npragma experimental ABIEncoderV2;\r\nimport \"./Owner.sol\";\r\nimport \"./UserInfo.sol\";\r\n\r\ncontract User is Owner {\r\n    //Function to check if caller is Admin or not\r\n    modifier onlyAdmin() {\r\n        require(UsersDetails[msg.sender].userRole == roles.admin, \"OACC\"); //\"Only Admin can call this function.\"\r\n        _;\r\n    }\r\n\r\n    modifier onlyRetailer() {\r\n        require(UsersDetails[msg.sender].userRole == roles.retailer, \"ORCC\"); //\"Only Retailer can call this function.\"\r\n        _;\r\n    }\r\n\r\n    modifier onlyDistributor() {\r\n        require(UsersDetails[msg.sender].userRole == roles.distributor, \"ODCC\"); //\"Only Distributor can call this function.\"\r\n        _;\r\n    }\r\n\r\n    modifier onlyTransporter() {\r\n        require(\r\n            UsersDetails[msg.sender].userRole == roles.transporter,\r\n            \"OTCC.\" //Only Transporter can call this function\r\n        );\r\n        _;\r\n    }\r\n\r\n    // UserInfo struct array to hold list of registered user\r\n    UserInfo[] public UserList;\r\n\r\n    //Map user with address\r\n    mapping(address => UserInfo) public UsersDetails;\r\n\r\n    // Register Admin by Owner who deployed contract\r\n    // @param _address User Address\r\n    // @param _name User name\r\n    // @param _location User Location\r\n    // @param _role User Role\r\n    // @param _userStatus User status\r\n    function registerAdmin(\r\n        address _address,\r\n        string memory _name,\r\n        string memory _location,\r\n        uint256 _role,\r\n        string memory _userStatus,\r\n        string memory _fullName,\r\n        uint256 _phone,\r\n        string memory _email\r\n    ) public onlyOwner {\r\n        require(UsersDetails[_address].userAddress != _address, \"USR_EXIST\");\r\n        //Create & Populate User object with request params\r\n        UserInfo memory newUser;\r\n        newUser.userAddress = _address;\r\n        newUser.userName = _name;\r\n        newUser.userLocation = _location;\r\n        newUser.userRole = roles(_role);\r\n        newUser.userStatus = _userStatus;\r\n        newUser.isDeleted = false;\r\n        newUser.registrationDate = block.timestamp;\r\n        newUser.email = _email;\r\n        newUser.phone = _phone;\r\n        newUser.fullName = _fullName;\r\n        UsersDetails[_address] = newUser;\r\n        //push user into array\r\n        UserList.push(newUser);\r\n    }\r\n\r\n    // Register New user by Owner/Admin\r\n    // @param _address User Address\r\n    // @param _name User name\r\n    // @param _location User Location\r\n    // @param _userStatus User Role\r\n    // @param _userStatus User Status\r\n    function registerUser(\r\n        address _address,\r\n        string memory _name,\r\n        string memory _location,\r\n        uint256 _role,\r\n        string memory _userStatus,\r\n        string memory _fullName,\r\n        uint256 _phone,\r\n        string memory _email\r\n    ) public onlyAdmin {\r\n        require(UsersDetails[_address].userAddress != _address, \"USR_EXIST\");\r\n        //Create & Populate User object with request params\r\n        UserInfo memory newUser;\r\n        newUser.userAddress = _address;\r\n        newUser.userName = _name;\r\n        newUser.userLocation = _location;\r\n        newUser.userRole = roles(_role);\r\n        newUser.userStatus = _userStatus;\r\n        newUser.isDeleted = false;\r\n        newUser.registrationDate = block.timestamp;\r\n        newUser.email = _email;\r\n        newUser.phone = _phone;\r\n        newUser.fullName = _fullName;\r\n        UsersDetails[_address] = newUser;\r\n        //push user into array\r\n        UserList.push(newUser);\r\n    }\r\n\r\n    // Update user by Owner/Admin\r\n    // @param _address User Address\r\n    // @param _location User Location\r\n    // @param _userStatus User Status\r\n    function updateUser(\r\n        address _address,\r\n        string memory _location,\r\n        string memory _userStatus,\r\n        string memory _fullName,\r\n        uint256 _phone,\r\n        string memory _email\r\n    ) public onlyAdmin {\r\n        require(UsersDetails[_address].userAddress == _address, \"USR_NT_REG\"); //User not registered\r\n        require(UsersDetails[_address].isDeleted == false, \"USR_DELETED\"); //User was deleted\r\n        //Update User object with request params\r\n        UsersDetails[_address].userLocation = _location;\r\n        UsersDetails[_address].userStatus = _userStatus;\r\n        UsersDetails[_address].fullName = _fullName;\r\n        UsersDetails[_address].phone = _phone;\r\n        UsersDetails[_address].email = _email;\r\n        uint256 userToUpdateIndex;\r\n        for (uint256 i = 0; i < UserList.length; i++) {\r\n            if (UserList[i].userAddress == _address) {\r\n                userToUpdateIndex = i;\r\n                break;\r\n            }\r\n        }\r\n        UserList[userToUpdateIndex].userLocation = _location;\r\n        UserList[userToUpdateIndex].userStatus = _userStatus;\r\n        UserList[userToUpdateIndex].fullName = _fullName;\r\n        UserList[userToUpdateIndex].phone = _phone;\r\n        UserList[userToUpdateIndex].email = _email;\r\n    }\r\n\r\n    //Delete user based on address\r\n    // @param _address User Address\r\n    function deleteUser(address _address) public onlyAdmin {\r\n        require(UsersDetails[_address].userAddress == _address, \"USR_NT_REG\"); //User not registered\r\n        //soft delete user from blockchain\r\n        UsersDetails[_address].userStatus = \"Inactive\";\r\n        UsersDetails[_address].isDeleted = true;\r\n        findAndDeactivateUser(_address, true);\r\n    }\r\n\r\n    //Revoke user based on address\r\n    //@param _address User Address\r\n    function revokeUser(address _address) public onlyAdmin {\r\n        require(UsersDetails[_address].userAddress == _address, \"USR_NT_REG\"); //User not registered\r\n        UsersDetails[_address].userRole = roles(5);\r\n    }\r\n\r\n    //Function to find user and delete based on address\r\n    // Visibility - Public and payable\r\n    function findAndDeactivateUser(address _address, bool _isDeleted) private {\r\n        uint256 userToDeleteIndex;\r\n        //Find the index of user to be deleted\r\n        for (uint256 i = 0; i < UserList.length; i++) {\r\n            if (UserList[i].userAddress == _address) {\r\n                userToDeleteIndex = i;\r\n                break;\r\n            }\r\n        }\r\n        UserList[userToDeleteIndex].userStatus = \"Inactive\";\r\n        if (_isDeleted == true) {\r\n            UserList[userToDeleteIndex].isDeleted = true;\r\n        }\r\n    }\r\n\r\n    // Validate user based on address & username\r\n    // @param _address User Address\r\n    // @param _userName User Name\r\n    function validateUser(address _address, string memory _userName)\r\n        public\r\n        view\r\n        returns (UserInfo memory)\r\n    {\r\n        require(UsersDetails[_address].userAddress == _address, \"USR_NT_REG\"); //User not registered\r\n        require(\r\n            keccak256(bytes(UsersDetails[_address].userName)) ==\r\n                keccak256(bytes(_userName)),\r\n            \"USR_NT_REG\"\r\n        ); //User not registered\r\n        require(\r\n            keccak256(bytes(UsersDetails[_address].userStatus)) ==\r\n                keccak256(bytes(\"Active\")),\r\n            \"USR_NT_ACTIVE\"\r\n        ); //User not active\r\n        return getUserInfo(_address);\r\n    }\r\n\r\n    // Retrieve User information based on address\r\n    // @param _address User Address\r\n    function getUserInfo(address _address)\r\n        public\r\n        view\r\n        returns (UserInfo memory)\r\n    {\r\n        return UsersDetails[_address];\r\n    }\r\n\r\n    //Function to retrieve all the registered users\r\n    //Visibility - Public\r\n    //Return type - list of user\r\n    function getAllRegisteredUsers() public view returns (UserInfo[] memory) {\r\n        return UserList;\r\n    }\r\n\r\n    function getUserRole(address _address) public view returns (uint256) {\r\n        return uint256(UsersDetails[_address].userRole);\r\n    }\r\n}\r\n",
  "sourcePath": "C:\\Development\\Blockchain\\AAP-Blockchain\\aap_blockchainpoc_updated_version\\aap_supplychainpoc_blockchain\\contracts\\User.sol",
  "compiler": {
    "name": "solc",
    "version": "0.8.11+commit.d7f03943.Emscripten.clang"
  },
  "schemaVersion": "3.4.4",
  "updatedAt": "2022-02-15T09:06:17.506Z",
  "networkType": "ethereum",
  "devdoc": {
    "kind": "dev",
    "methods": {},
    "version": 1
  },
  "userdoc": {
    "kind": "user",
    "methods": {},
    "version": 1
  }
}